:020000040000fa
:080000000002040000000000f2
:020000040000fa
:100400006fa720000e7f22000e0188000000000070
:1004100000012000200288000c000700c02d2200ef
:100420000100200011000700000020000000e00093
:10043000020032000000020000000000e41e020082
:10044000000000000040da000000fe004440a90067
:10045000200120000000e000030032000000200026
:10046000a00188004440a800000006009101880017
:10047000800078000000eb0015003700e2804000ab
:1004800032a0b4009101ba00e280400032a0b40072
:100490009102ba00e280400032a0b4000002eb00fa
:1004a000472bde00f507b200602ce10004003a00a3
:1004b0000059eb008301e900fdff3e000400370016
:1004c0006128e100010032000082eb000400070017
:1004d0001101ba000200e000e8ff3a000000060047
:1004e0003159ba008301e9000c0032002159ba00e9
:1004f0008301e900080032000400e00003003a0034
:10050000e280400032a0b400f5ff370011d9ba00f4
:100510008301e900faff3a008100e800e180400031
:1005200032a0b4000000060000000000000000003f
:1005300000000000000000000000000000000000bb
:100540000040da000000fe0000c0da0000000600f3
:100550000a00fa00e20f500022003e00a45380007f
:10056000e10f5200060032008723200046232000be
:100570002423200005232000e08f530004003a00cc
:10058000872220004622200024222000052220006d
:10059000000028001500600003003a00800b78007e
:1005a00007002800958a73000540200094826200ad
:1005b00001003a0014a0a000820278000600370073
:1005c000940378000710b200fdff3200b103fb0076
:1005d000070b78008502e900e08f5200f8ff3a002f
:1005e0000800370034002000b4bf9f00c0bf9f0048
:1005f000d1bf9f00e2bf9f006a805700d2ff070073
:100600006fb99700020078000080fa000000060031
:100610006011b800f300370003f0a200889fbe000d
:100620008a9fbe008c1f78001d0107002401330043
:100630006450e1004f0032006420e10052003200bb
:1006400003826c0007003b000905d0000306d000c0
:10065000820f54000c065d000200390002003200d7
:1006600089017800030678008582550004003d006a
:100670000003fd008103fd008502ea008b85420036
:10068000840f720002003b0060001000e080180040
:100690006011b8000005eb007a28e1000a0039007b
:1006a00006007800c75ddd00f707b200878075009f
:1006b0002d003700828171000a0178006105600019
:1006c0008180d1000080d3008502e900f9ff3b0062
:1006d000060440008784480002003b0060041400c8
:1006e000e0841c000988a300070032008a817100a1
:1006f00082817100610164008904d1000884d30003
:100700008b05e800170037000978a30013003a00b2
:100710000b00e000130034008b05e90008044400de
:1007200089844c000a4474000978a3000d003a0043
:100730000b00e000070034008b05e90008044400ca
:1007400089844c0001003a000b0020000978a300c6
:10075000f7ff32000001eb000200370082817100d8
:100760000a017800e60007000cf0a70001f0a000e5
:10077000dc0037006420e10002003a00838f6c0047
:10078000dc0033000801be000200be00d5003700c7
:100790001400200000013700f4ff2f00fe00370096
:1007a000889fbe008a9fbe008c1f7800bc00070097
:1007b000c300330003866c006450e1002e00320059
:1007c0006420e100330032006150e1002f0032006c
:1007d0006120e1003100320085855500eb07b00053
:1007e0000900200008042000050037000804440028
:1007f00089844c000a0031000603430087834b00c4
:100800000001530081815b00f8ff33000203be004a
:100810000800a0000804440089844c00f6ff390059
:10082000c639dd008301730001003200130020008f
:100830008904d1000884d3000998a3000500320080
:100840000800a7000300a0008904d1000884d30099
:100850008b05e8008904d1000884d3000001eb0077
:100860000281d200a600070001f0a1000cf0a70051
:1008700001f0a0009b0037006420e1009d003200e1
:100880000801be000200be00f7ff37006120e10052
:10089000980032006000b800f3ff3700000020002d
:1008a00001f82700f0ff3700889fbe008a9fbe0036
:1008b0008c1f78007a0007008100330003866c00eb
:1008c0006450e100240032006420e100270032007f
:1008d0006150e100220032006120e100210032007d
:1008e0008b854200eb07b1000134b800003ab80034
:1008f0000804420089844a00013ab8000030b80078
:100900008880400009014a000400330000004000d4
:1009100081804800020149008b05e900c909dd001a
:10092000830170000100320013002000c814de00b3
:100930004814dd004709de001200b200c808de00de
:10094000088470006e00070001f0a1000cf0a70001
:1009500001f0a000630037006120e1006500320073
:100960000801be000200be00f7ff37006150e10041
:10097000fcff3a005f0037000001be00a100070045
:100980000470a70003f0a10003f8a30013003a00cd
:100990006509b10010003200090035006928e10046
:1009a00002003500010028000000050000004000a2
:1009b000818048008502e900fcff3a000000060043
:1009c000f88f4200050035008100d1000080d3007f
:1009d0008502e800fcff3a00000006008000eb0002
:1009e00000000500889fbe008a9fbe000082700044
:1009f0000402710004827100260032000004be006f
:100a00000200be006011b8006b09200095022000b2
:100a10000182cf000a0039000541b1000082cf00f9
:100a2000070039000541b1000982cf0004003900f8
:100a30000541b1000882cf00010039000541b10035
:100a400005425200120032000a003b008281710010
:100a5000610164008100d1000080d3008984d3004b
:100a60000884d3008b05e8000442e800f7ff3a0051
:100a7000070037000804440089844c000000480047
:100a8000818048008b05e9000442e900f9ff3a0043
:100a90001b0007004f05be004f04be00000006000b
:100aa0000004be00570007000003be000405be009e
:100ab0000200be0053000700844f750000000600ce
:100ac0000200be006450e100050036006420e10031
:100ad000020036000968a30001003a000800be00c9
:100ae0000160a0004f0678004f05be004f04be0015
:100af00000000600f0ff2f00f1ff2700f9ff37008c
:100b000081002000618055000b003d000b0020009b
:100b100061fe2f000100e1001d00340082817100a0
:100b2000610164008904d1000884d3000000e8005a
:100b3000faff3a00710020006100640003007000b9
:100b4000020060000900320061044400e0844c00af
:100b50000988a500050032008b05e8006808e1005f
:100b600002003a008904d1000884d300f20f20006b
:100b70000258e10005003d00c75ddd00f907b20045
:100b80008980750008007800000006000bf8270037
:100b90008b00780000000500889fbe008a9fbe0081
:100ba000841f7800beff07004f007800110033005b
:100bb000f0ff2f00838f6c0006003b0004056500ea
:100bc0000a00a7000800370009f0a6001000200066
:100bd00008003700820f5400838f5c000300390047
:100be0001000200001003e000000200009f0a700d6
:100bf0000000ea004f05be004f04be000000e00008
:100c000000000600c70ade00f107b200f50fb200cf
:100c100008003200e1cf4200020032000170a00063
:100c200024000500810f7000010032000408050057
:100c300044000500810f700002003a001400050016
:100c40008502e9000000400081c04800fcff3b0035
:100c50000170a000240005002800fa00889fbe0053
:100c60008a9fbe008c9fbe0003866b002003070096
:100c70000028a30064003a000128a30067003a009e
:100c80000008a30062003a000108a30065003a00d2
:100c90001e009000be08900081064000ed3fb100ac
:100ca000f4805700ee019000111ab8008e099000f0
:100cb000311bb8009e099000311cb800511db800ce
:100cc000f485570046000700fe0190003a00070037
:100cd0008b85e8003e0007008e0990004000070069
:100ce000ee019000340007008b85e8003800070013
:100cf0008e099000400007009e0990001b18b80064
:100d0000890440000a854800fe0190003400070075
:100d10008b85e80038000700ee01900030000700e6
:100d20008e0990001b18b800890440000a8548000d
:100d30000a98a30008003a000402420085824a0093
:100d400006034b0087834b0008044c0089844c0049
:100d50000a054d008d06e900848272008502730049
:100d60004c3add00850272000100320015002000bf
:100d7000443ade001400b2004538de00cb45dd0009
:100d80000b007000c540de00cb4ddd008b80700095
:100d90004549de00cb55dd000b017100c551de0079
:100da0000d037800eb02070003f0a1000cf0a70090
:100db00003f0a000e20237001b18b80085024000d3
:100dc00006834800e0834b0060044c0007003700b6
:100dd0001b18b8000603400087834800faff37005d
:100de0001b18b8008703400008844800e0844c00ca
:100df00060054d00000006001b18b8000804400004
:100e000089844800faff37000108a300c9023a00ac
:100e10005800be005801be00e3ff37000008a300e1
:100e2000c4023a0009047800f9ff37008103780012
:100e300074ff07000001be006000b8000478a30042
:100e400013003a006220e10015003e000d00390059
:100e50008301d1000281d3008180d3008301d100be
:100e60000281d3008180d3008301d1000281d300ad
:100e70008180d3000538b000c42add00f300b20041
:100e80008381720007f0a70003f0a00000000600b5
:100e9000f3ff2700f2ff2f006110b900fbff3700be
:100ea00003ff2700f7ff37008f1fd100d50207008f
:100eb0008f87e9000000e00000000600801feb00c3
:100ec000d00207008f87e9000000e0000000060064
:100ed0001400fa00889fbe008a9fbe008c9fbe004f
:100ee0000005be000206be00680047000c90be0070
:100ef0000a90be00ec0207006400e1001a00320014
:100f000016003e006100e1001a0032006e049000fd
:100f1000fe0490000e0b90009e0b90006011b80034
:100f20009e0590000b38b100d50120008281710030
:100f3000610164008703d1000683d3008984d30054
:100f40000884d3008502e900f8ff3a00ecfe0700b0
:100f50000df0a70001f0a00079023700f1ff270093
:100f6000f0ff2f007602370001f827000000200074
:100f7000f7ff37006000b800f5ff37001400fa00f3
:100f8000889fbe008a9fbe008c9fbe00040678002a
:100f90000004be000205be00680047000a90be00c3
:100fa0000890be00c00207006200e1000800be0019
:100fb0000a01be00040020000b003a001e0290004f
:100fc000e43fb1006e009000fe0090000e0990001a
:100fd0009e099000f300b20005fe23008581710098
:100fe0000bf0a70003f0a000040e780054023700b5
:100ff000809feb00830207008f87e9000000e0007c
:10100000000006002800fa00889fbe008a9fbe00ec
:101010008c9fbe0007067800878669000c003b00a5
:10102000030478008704780008f0a10009f0a1000b
:10103000840f5000858f5800860f5900890f5c007f
:10104000030033000cf0a20001003a000cf0a100f4
:10105000270207006400e1005f00320078014700ca
:101060006408e100610032006c014700748557009c
:101070003200be001201be003a04be001a05be00d6
:101080001e039000be0a90008503530006003d0039
:101090000004fd008104fd000205fd008305fd0044
:1010a0008703ea00050378000df8a300040032006e
:1010b00060041400e0841c0060051d00e0851d0034
:1010c0006022b8007d0320000d38e1008006eb00af
:1010d0000b0039004433dd00f300b20083017300dc
:1010e00039003700848272000d027800e106640046
:1010f0008b85d1000a85d3008984d3000884d3006e
:101100008703e900f7ff3b000800400089804800a2
:101110000a0149008b81490004003b006000100077
:10112000e080180060011900e08119000358a30055
:10113000090032008d8272008482720061026000b8
:101140008301d1000281d3008180d3000080d300cd
:101150000603e8001b0037000348a30017003a000d
:101160000600e000170034000603e9000d00a300ac
:101170000000480081804800020149008381490045
:101180000348a3000f003a000600e0000900340005
:101190000603e90000004000818048000201490088
:1011a0008381490001003a000003eb000348a300db
:1011b000f5ff32006022b80002003700848272001e
:1011c00061826600e301070003f0a1000cf0a700b4
:1011d00003f0a000da013700640147006408e10071
:1011e00002003a000df8a300d2013a003200be001e
:1011f0001201be00d20137001400fa00889fbe0021
:101200008a9fbe008c9fbe000004be000205be0087
:10121000680047000a90be000890be002202070046
:101220000070a7000bf0a1000bf8a30020003a000b
:101230009e0990000e099000fe0090006e00900044
:101240009e0290003443200084825200bc01320090
:101250000a003c00b4fc2f000428e1001400340014
:101260008301d1000281d3008180d3000080d300ac
:101270008502e800faff3a00b1013700b40020000f
:101280000428e10007003c00000040008180480085
:1012900002014900838149008502e900faff3a0012
:1012a000a7013700030028000200200001003700da
:1012b0006011b8006000b800a10137002800fa00f2
:1012c000889fbe008a9fbe008c9fbe0003866b0075
:1012d000870107006400e100440032006408e10077
:1012e0004a0032006100e100460032006108e1007e
:1012f00049003200ec0647006000b8003d02be0025
:101300003d03be00f48657006011b8003d04be00e6
:101310003d05be007d0320000b0037000000a0004b
:101320008d06e900130032000402420085824a0063
:1013300006034b0087834b0000004000818048007b
:1013400002014900838149000802520089825a0043
:101350000a035b008b835b00f0ff3b000802420046
:1013600089824a000a034b008b834b008d06e900fb
:10137000edff3a008482720086827200f707b200a5
:101380008782720001003200150020001e049000c8
:101390003e0b900006035400e63fb0000368a30034
:1013a000070032000000a7000500a0008301d10063
:1013b0000281d3008180d3000080d3000603e800bf
:1013c0008301d1000281d3008180d3000080d3004b
:1013d0000002eb000482d2005e01070003f0a100ce
:1013e0000cf0a70003f0a00055013700640247008d
:1013f0006408e1004f0132003400be003401be0039
:10140000f6ff37006108e1004a0132006011b800c0
:101410006000b800f1ff370003ff27000200200042
:10142000fbff3700889fbe0000827000040271003d
:10143000048271002400320036432000c5002000e1
:101440008383cf000a0039000541b1008283cf00b9
:10145000070039000541b1008183cf000400390045
:101460000541b1008083cf00010039000541b10082
:1014700085c353006022b800120032000a003b000e
:1014800084827200610260008301d1000281d30076
:101490008180d3000080d3000603e8008743e80082
:1014a000f7ff3a0007003700000040008180480045
:1014b00002014900838149000603e9008743e900ee
:1014c000f9ff3a00230107004f04be0000000600a8
:1014d00007f0a200cbfe3700889fbe008a9fbe00a7
:1014e0003004be002005be000404440085844c0086
:1014f00006054d0087854d000898be000a90be0085
:101500000440e10005c8e10006d0e10007d8e10091
:1015100002003100680040001008e8004f05be00de
:101520004f04be00000006001000fa00889fbe00b5
:101530008a9fbe000605be000404be003002be0045
:101540002003be00c4b79f00d5b79f00e6b79f0039
:10155000f7b79f000802520089825a000a035b0015
:101560008b835b0084bf9f0095bf9f00a6bf9f0039
:10157000b7bf9f000498be000698be00110020006f
:101580004fb29700dfb297006fb39700ffb3970099
:10159000b2000700010039008000eb001088100045
:1015a0004f05be004f04be000080fa000000060098
:1015b0001400fa00889fbe008a9fbe008c9fbe0068
:1015c000790007000605be000404be000006eb001b
:1015d000ccb79f00bcb79f00acb79f009cb79f00e3
:1015e0008cb79f000d0420004fb39700bfb2970047
:1015f000860343002fb29700e00f530004003d0024
:101600009b0007000f004000b3ff070003003700f6
:10161000970007000f004000c3ff0700cfb29700fc
:1016200095bf9f00e08f520009003500650007005c
:1016300014002000050020006033b8000000720094
:1016400081807200020173008381730056000700dd
:101650000c06e8008d0f5600e3ff3a001fba970012
:10166000e00f520005003d000802be000a03be0064
:1016700000fe2f000f00400097ff07004faa9700c1
:10168000e00f520008003a000fb497009fb4970093
:101690002fb59700bfb59700d8b79f00e9b79f0057
:1016a000fab79f008bbf9f00460007004f06be00a1
:1016b0004f05be004f04be000080fa000000060087
:1016c000881f780018002000881f7800b8ff0700e6
:1016d0008f87e9004f04780000000600801feb00b0
:1016e000b3ff07008f87e90000000600889fbe0057
:1016f0008a9fbe004100070007003d00440007002c
:10170000180020004900070008003d002f000700d6
:101710000004eb00050037000004eb004300070065
:1017200002003d002900070018002000e4ff070028
:10173000e00f540001003200410007004f05be00d9
:101740004f04be0000000600889fbe008a9fbe00b6
:101750008c1f78002900070005003d002c000700c1
:101760001c0020003d00070007003d000500370079
:101770000006eb002d00070003003d006044b800a8
:101780006055b80013000700d4ff0700e00f5600b3
:10179000010032002a0007004f0678004f05be0006
:1017a0004f04be0000000600010007000000060014
:1017b00090b79f00a1b79f00b2b79f00c3b79f002b
:1017c0000000060008000700000006006044b800a2
:1017d0006055b8000402540085825c0006035d0079
:1017e00087835d00000006001fb09700afb0970030
:1017f0003fb19700cfb1970000000600e00f500006
:10180000e08f5800e00f5900e08f590000000600fb
:101810006044b8006055b8000000540081805c004e
:1018200002015d0083815d0000000600e00f5200b0
:10183000e08f5a00e00f5b00e08f5b0000000600c5
:101840006022b8006033b8000000520081805a0066
:1018500002015b0083815b00000006000820e100bc
:1018600009a8e1000ab0e1000bb8e10000000600a1
:101870004f2bde0087037300a7b79f004f23de00c6
:10188000858242008502730095b79f00ffaa9700ea
:101890004f2bde00040242000402730084b79f0055
:1018a0006faa97004f23de008582420085027300f5
:1018b000f5af9f00ccff07004f18de000402420086
:1018c00000027200e4af9f00c7ff07000000400065
:1018d000818048000201490083814900b4ff07006c
:1018e0000802be000a03be0000fe2f000000060032
:1018f000680447000294be000094be00fc04470048
:101900008694be008494be0009007800660007003b
:10191000080078006400070099007800814f70008b
:101920000b003b000800be00860007004f00b1001e
:1019300003003700f3ff2700f2ff2f006110b9000a
:101940004f06be004f05be004f04be000080fa00e7
:101950000000060018002000570020000804530073
:101960000d003d000600200097fc2f000740e1001d
:101970001e00340084827200610260008301d10085
:101980000281d3008180d3000080d3000804e800e6
:10199000f8ff3a004700200061046000050474006d
:1019a000040464000d00320061004000e080480043
:1019b00060014900e081490003b8a500070032003a
:1019c0000603e8006538e10004003a008301d10015
:1019d0000281d3008180d3000080d300f87f2000f3
:1019e0000830e10003003500080378006000b8000b
:1019f0006011b8004433dd00f300b20083017300ce
:101a000000000600889fbe008a9fbe008c9fbe001b
:101a10000404be000605be00809fbe00829fbe007b
:101a200056000700040678000800be000a01be0048
:101a300052000700840678004f03be004f02be002c
:101a40008d4f76007fb0970013003300f0ff2f001a
:101a50008b8f6b0006003b000d0666000c00a70094
:101a60000a00370007f0a600100020000a00370027
:101a7000880f5200898f5a008a0f5b008b8f5b00a2
:101a8000030039001000200001003e00000020008b
:101a900007f0a7000000ea004f06be004f05be0099
:101aa0004f04be0000000600800078005002be0017
:101ab0005003be004439de00f700b200f37f20007f
:101ac00003016100090032000218e10016003a002b
:101ad0008501720083017300838173000008200078
:101ae00015003a0040002000130037008501720005
:101af000830173008381730005003a0004a8be00cf
:101b000006a8be00100020000b0037000201e9000b
:101b10000402420085824a0006034b0087834b0083
:101b20000748a300f9ff32000740a00004a8be0048
:101b300006a8be00200020008000980092009800b7
:101b400000000600e48240001078a3000700320085
:101b5000640240001178a3003400be001401be00ee
:101b6000040032000330a700000006003500be006c
:101b70001501be000330a0000000060005ff27008d
:101b800005826100070032000428e10001003200f4
:101b9000240005000600070001003a00440005008b
:101ba0000408050002000700f9ff3a0014000500d0
:101bb0006f826100810270008502710085027200ef
:101bc000000006000c00fa00889fbe0000047800a8
:101bd000f4ff2700d4bf9f008004eb0099bf9f0053
:101be00088bf9f00a8bf9f00240c2000b4bf9f00a7
:101bf00078815700cfb0970070805700c40007006d
:101c00000fba9700094a78000fba970008005200ef
:101c10004f04be000080fa00000006000800fa0031
:101c2000889fbe008a9fbe000084fb00d4c6b3001c
:101c3000844f5000340036004b062000110009008c
:101c40000b84d80081057800720040004300dd005d
:101c5000e98c2000008044006022b80006002000cb
:101c600007fe23005001be004000be00fafb070043
:101c70000002be000203be0084bf9f0095bf9f000c
:101c8000a6bf9f00b7bf9f00aa0020001100090057
:101c90008a85d80080057800e9854500c35ddd00b0
:101ca0008b8544003b02be002b03be000fb897009b
:101cb0009fb897002fb99700bfb99700e6fb0700c0
:101cc0000002be000203be0084bf9f0095bf9f00bc
:101cd000a6bf9f00b7bf9f00110009000a84d8006b
:101ce000010478004344dd00888444003902be00ca
:101cf0002903be000fb897009fb897002fb997002f
:101d0000bfb997001d003700ea4f5000130036009e
:101d1000aa002000110009000a84d80001057800fb
:101d2000690440004344dd00e98c2000088444003d
:101d30006022b8000600200007fe23003800be0025
:101d40002801be00c4fb07004355dd008a8444001f
:101d50003902be002903be00080037004344dd00fd
:101d6000e48c2000080442006022b8000600200035
:101d700007fe23003800be002801be00b6fb0700a6
:101d80004f05be004f04be000080fa0000000600b0
:101d90000800fa00889fbe008a9fbe00d4c6b30028
:101da000e04f500022003d000040ea000004fb002c
:101db000844f50000a00340044062000110009003e
:101dc0000404d800a9002000110009008900d800ef
:101dd000e9004000c308dd00ea8c20002000370045
:101de000ea4f50000f003400a40020001100090049
:101df0000404d800690040004300dd00e48c2000aa
:101e000000004200430cdd00080242005403be0003
:101e10004402be005001be004000be008efb070021
:101e2000370037004344dd00e48c200031003700e8
:101e30000004fb00844f50002300340044062000bf
:101e4000110009000404d800a900200011000900b5
:101e50008900d800e9004000c308dd00ea812000c5
:101e6000810045003102be002103be008b09200025
:101e70008a8545003b00be002b01be0076fb0700b3
:101e80000002be000203be0084bf9f0095bf9f00fa
:101e9000a6bf9f00b7bf9f00110009000904d8002a
:101ea000010478004344dd00080545003a02be0005
:101eb0002a03be000fb897009fb897002fb997006c
:101ec000bfb99700d5ff3700ea4f50000700340034
:101ed000a4002000110009000404d800690040009b
:101ee0004300dd00e4812000c5ff37004344dd00ee
:101ef000e4812000080442003800be002801be0032
:101f00004f05be004f04be000080fa00000006002e
:101f10002f04b000889fbe008a9fbe008c9fbe0029
:101f20008e1f7800a0af9f00c1a79f00b2af9f0097
:101f30006000b8006011b800d0a79f00e1a79f0023
:101f4000f2a79f0083af9f008006eb002f043700ad
:101f5000cfa097008100e800c1a79f0054c2b30042
:101f6000844f500006003a00010378000006eb00a1
:101f700000c3b30007c2b300b1c2b300070037000b
:101f80000000fb00afa897002c040700e10f400001
:101f90001e0432008d06e8001c043700060278009b
:101fa000b6427800d2c2b30082cf5200090032009c
:101fb00005003c0087cf52000800320081cf52005c
:101fc0000c003a000700370080cf520009003a00a9
:101fd000060037000c30a000f0ff37000c00a00016
:101fe000eeff37000c10a000ecff37000c20a00023
:101ff000eaff370062036600010032000c00a10016
:1020000068036600010032000c20a1000503fb00fc
:102010000603b100e90f53000d003e008402780072
:10202000070020006a3bb9003502fb000403b10041
:1020300086034200050278001503fb000603b10089
:10204000e90f5300f7ff360097af9f000a003700f3
:102050000003eb0096af9f00a6c2b30086cf5200ec
:1020600005003a00bfab970047007800b7af9f006c
:1020700090af9f000402e800e5c2b30094cf1200c5
:1020800017003a000ce0a000e4c25200d4cf1200c6
:1020900003003200840278000700200009003700a6
:1020a0003fa99700c2017800b2af9f0083b79f009d
:1020b0000402e800c6c6b3000d0037006a38b90054
:1020c00080034300050278003503fb000603b100de
:1020d000e90f5300f9ff360087b79f00f5ff37007f
:1020e0000cc0a0008002eb0085b79f00f1ff370015
:1020f00084037800b74278000702780086cf520048
:102100002d003200c7a79f00c4c6b30084cf520081
:1021100014003c006842520084cf52002400320078
:1021200009003c006c42520084cf52002e00320065
:102130006b42420084cf520071003200e0cf520067
:10214000b70332008e00370064c6b30084cf52005c
:102150001f0032006342420084cf520088003a00e0
:102160001300370034c7b30084cf5200220032007e
:1021700007003c006442520084cf52001700320036
:102180000442e80084cf52007d003a001600370078
:1021900054c7b30084cf52007e0032006342420035
:1021a00084cf520076003a00a5779f0010003700d8
:1021b000a5779f0079003700f00366000501200035
:1021c000010032000500280005067600c8ff370030
:1021d000a5779f000ca0a00070003700a5779f0096
:1021e0000c60a0006d003700a5779f000c50a00088
:1021f0000c70a00069003700a5779f003fab9700e7
:1022000046027800b6af9f0004047800e00f520049
:1022100001003a0008a42000880278000002eb00c8
:10222000010037000402e80065437a00e04f5300e4
:10223000fcff3a00840478008fb39700e08f5300ce
:1022400003003200898f53000100310087047800b9
:102250000007eb001fa89700890f5000010036000f
:10226000090750006806660014003a0007003700ae
:10227000afa897000002200070030700e10f4000a4
:10228000010032008d06e8000e07e900e00f57005c
:10229000f7ff3a000087eb000800370008027800db
:1022a0003400fb0004047800afa897006303070024
:1022b000e10f4000010032008d06e80009027800bd
:1022c0008404e900e00f5200f4ff3a00e00f5600ea
:1022d0004e03320007003700afa89700000220002d
:1022e00056030700e10f4000010032008d06e800b0
:1022f0000e07e900e00f5700f7ff3a0043033700ed
:10230000bfa8970041027800b1af9f000400780099
:10231000cf80de000101780082017800c0af9f000d
:10232000d1af9f00e2af9f00f3af9f004800de00f7
:10233000480add0000007200a0779f00f0026600ee
:1023400009003200e04f500007003200e14f40002a
:1023500005003200b0779f008fda9700c5779f00a5
:1023600029002000030037000fdb9700b6779f009d
:102370001900200038fb2f000f044400aeff370087
:10238000a5779f0028fb2f000f04440019002000b0
:10239000a9ff3700a5779f000c0cb3000470200044
:1023a00004026600ba013200040021000402660043
:1023b000020032006700200087b79f0070026600ad
:1023c000090032003faa97004401be004400be004d
:1023d000b4af9f00c0af9f00d1af9f00e2af9f009e
:1023e000f3af9f000a003700bfaa97004500be0068
:1023f000b5af9f008dfa07000002be000203be00c9
:10240000c4af9f00d5af9f00e6af9f00f7af9f001e
:102410006022b8006033b8004fa89700dfa897008b
:102420006fa99700ffa997009ffa0700e00f5000df
:102430000a003d004fa89700dfa897006fa99700fa
:10244000ffa9970003f0a200c0af9f00d1af9f008b
:10245000e2af9f00f3af9f003c00b3000002eb002f
:10246000b49f9f006022b8006033b8004fa8970067
:10247000dfa897006fa99700ffa997008ffa0700c0
:10248000e00f5000350032004fa89700dfa89700fa
:102490006fa99700ffa997008dfa070062fb2f0034
:1024a0000f014100b5fa07003f9897000000e900ce
:1024b0006300b900a4002000110009000400d80046
:1024c000b09f9f00e00f500002003d000000e900b7
:1024d000b09f9f003f9c97000840ea002cfe070039
:1024e0004faa9700dfaa97006fab9700ffab97004a
:1024f000d9f907000002be000203be00d4a79f0066
:10250000e5a79f00f6a79f0087af9f006022b80055
:102510000600200007ff230063fa0700e00f5000c9
:1025200002003d000804e9000b0037006022b800fb
:1025300006002000470224005fa09700efa097004c
:102540007fa197008fa99700a9fa0700e00f50001c
:10255000020035000804e800b89f9f008fb2970082
:10256000f88f52000f003c0005407800abfd0700db
:102570000002be000203be004fa89700dfa897002c
:102580006fa99700ffa997009efa07000002be00fe
:102590000203be00c4af9f00d5af9f00e6af9f000f
:1025a000f7af9f003f9c9700e90f540015003c00d7
:1025b0006022b8006033b8004fa89700dfa89700ea
:1025c0006fa99700ffa997003cfa0700e00f5000a1
:1025d000320032004fa89700dfa897006fa997003c
:1025e000ffa9970004fb0700e00f5000e08f5800a0
:1025f000e00f5900e08f590028003a00e10f540025
:10260000260034000400200005002e00b6e0220061
:10261000170124005fa09700efa097007fa197000b
:102620008fa9970020fa0700e00f500002003d003c
:10263000730454000100370072045400b89f9f00d7
:102640006f709700d2fd07000002be000203be00bb
:10265000d4a79f00e5a79f00f6a79f0087af9f0024
:102660004fa89700dfa897006fa99700ffa99700d0
:1026700012fb0700e0fa07000205be000004be00de
:102680006000b8006011b800c0af9f00d1af9f00dc
:10269000e2af9f00f3af9f00170037004fa89700ed
:1026a000dfa897006fa99700ffa99700d2fa07004b
:1026b0000205be000004be005afb07000002be0077
:1026c0000203be004fa89700dfa897006fa99700ec
:1026d000ffa997007efb07000002be000203be00b8
:1026e000c4af9f00d5af9f00e6af9f00f7af9f003c
:1026f0000002eb00b49f9f006198200010c0b3005f
:10270000080037003102be003103be000440e10082
:1027100005c8e10006d0e10007d8e1000300390058
:102720000040e800f44f5000f6ff3a00a0779f0009
:102730003f9a97009faa9700048252000fb3970018
:10274000060252000000fb0000075200e00f530099
:10275000010032000e07e90063026600010032004a
:102760000e07e900640266001d003200e202660006
:1027700061026600e08f520006003200b0022000c5
:10278000e00f5200010032000080e800afa897007f
:1027900004003700e00f52000e003200afa897008f
:1027a0000002200025020700e10f4000090032006e
:1027b0008d06e80007003700afa89700000320004f
:1027c0001e020700e10f4000010032008d06e80004
:1027d0000e07e900e00f5700f7ff3c00300037001c
:1027e000680266000a003a0007003700afa89700a9
:1027f0000002200011020700e10f4000010032003a
:102800008d06e8000e07e900e00f5700f7ff3c00d7
:10281000e202660061026600e08f520006003200ac
:10282000b0022000e00f5200010032000080e800fa
:10283000afa8970016003700e00f520018003200d2
:10284000afa8970000022000110037008502fb00ae
:10285000c32add00e7972000858243005503be00b0
:102860004502be000800be000a01be0094fb07003e
:10287000a4002000050020006033b80097fb07008b
:102880000403200000024200afa897000400780073
:10289000ea010700e10f4000010032008d06e80068
:1028a0002f7297008442e900a5779f00e04f520005
:1028b000e6ff3a0008003700afa8970000032000a9
:1028c000de010700e10f4000010032008d06e80044
:1028d0000804e900b89f9f003f9c9700e00f540058
:1028e000f5ff3c000fb09700f20f500003003400da
:1028f00024c1b300a4779f00020037008fe0970047
:10290000a1779f002f7297008402fb000fb1970000
:102910008502510095af9f00e04f52000600320043
:10292000afa89700e0022000c4010700e10f4000bb
:10293000010032008d06e8002f70970014fd07009b
:102940000002be000203be004fa89700dfa8970058
:102950006fa99700ffa99700bff8070026fa0700a4
:10296000220037008502fb00c32add00e397200028
:10297000858241003500be002501be0080b79f0062
:1029800091b79f00a2b79f00b3b79f000203be009c
:102990000002be000800be000a01be0048fb07009e
:1029a000a4002000050020006033b8004bfb0700a6
:1029b0000403200000024200afa897000400780042
:1029c0009e010700e10f4000010032008d06e80083
:1029d0000fb297009fb297002fb39700bfb3970035
:1029e0000800be000a01be003cfb07000205be0055
:1029f0000004be002f7297008442e900a5779f0073
:102a0000e04f5200d7ff3a000203be000002be00b2
:102a10009fac97000f003700afa89700000320007d
:102a2000c4b79f00d5b79f00e6b79f00f7b79f00d8
:102a3000820107004fb29700dfb297006fb3970093
:102a4000ffb39700e10f4000010032008d06e8005f
:102a50008904e900e08f5400efff3a006806660041
:102a60006a013200e00f570068013400afa89700f8
:102a70000002200071010700e10f40000100320058
:102a80008d06e8000e07e900f8ff3a005f01370005
:102a90008c027800050cb2002b003a00e00f5600c3
:102aa00005003d00bfa897004105be004104be00df
:102ab000b1af9f0017003700700266000f003200b0
:102ac0003faa97004401be00b4af9f0082a79f00b9
:102ad00093a79f0084027800150290004fa2de00a9
:102ae000a4a79f00b4a79f000fa497009fa49700de
:102af0002fa59700bfa5970006003700bfab970032
:102b000047047800b7af9f00cfc4de000905780006
:102b10008a057800e00f5400e08f5c00e00f5d0054
:102b2000e08f5d0023003d003c00b3006022b80050
:102b30006033b8000804520089845a000a055b001b
:102b40008b855b001b003700e00f560005003d0041
:102b50003fa897004005be004004be00b0af9f00f4
:102b600014003700f00266000c003200bfaa970084
:102b70004501be00b5af9f00c29f9f00d39f9f003d
:102b8000e49f9f00f49f9f004f9c9700df9c97005d
:102b90006f9d9700ff9d970006003700bfab970021
:102ba00047047800b7af9f00090020000a0020000a
:102bb0000b0020000fb09700e00f500009003a0012
:102bc0001100200081b79f00e00f5400e08f5c00ef
:102bd000e00f5d00e08f5d00020032000001eb00bd
:102be00082b79f008c017800030cb200c3af9f0036
:102bf00004042000848f51002c00320003003c00ac
:102c0000e08f5100080032003c003700040820002b
:102c1000cfaa9700848f520010003200040c2000cd
:102c2000848f520035003a006598200014c0b3002c
:102c30003500be003501be000040e10001c8e100e2
:102c400002d0e10003d8e1002b0039000442e80083
:102c5000f44f5200f6ff3a002700370014c0b300cb
:102c600000012000010020006011b8000040e100d8
:102c700001c8e10002d0e10003d8e1001e003900e4
:102c8000460020000000d0008180d2000281d200e6
:102c90008381d2000603e900faff3a000442e8000b
:102ca000f04f5200f1ff3a001300370014c0b30098
:102cb00080002000010020006011b8000040e10009
:102cc00001c8e10002d0e10003d8e1000a003900a8
:102cd000370020000000d0008180d2000281d200a5
:102ce0008381d2008703e900faff3a000442e8003a
:102cf000f54f5200f1ff3a00a4779f002f70970024
:102d00000002fb008fb09700810f520002003d00cf
:102d1000a1779f00040037000fb19700840f510086
:102d200001003d0084b79f009fa99700e08f5100ec
:102d30000400320063026600020032008301e900f1
:102d400093af9f00040024000402660009003200d3
:102d50001faa97008fb29700850f5200030034001e
:102d60000502520094af9f00020037000003eb0001
:102d700096af9f00af7397000702fb000007eb00c0
:102d80001fa89700840f5000010034000407500072
:102d9000640266001c003200e20266006102660006
:102da000e08f520006003200b0022000e00f520017
:102db000010032000080e800afa89700040037004f
:102dc000e00f520006003200afa89700000220007a
:102dd0009a000700e10f4000010032008d06e80074
:102de000e00f570075003200afa8970000032000e5
:102df00092000700e10f4000010032008d06e8005c
:102e00000e07e900f6ff3700e00f57000a00320016
:102e10006802660008003a00afa897000002200090
:102e200086000700e10f4000010032008d06e80037
:102e30000e07e900f8ff3a00e20266006102660050
:102e4000e08f520006003200b0022000e00f520076
:102e5000010032000080e800afa8970004003700ae
:102e6000e00f520055003200afa89700000220008a
:102e700072000700e10f4000500032008d06e800ac
:102e80004e0037008fb097008100e90081b79f00a6
:102e90004fa9970003042000830f51003000320037
:102ea00003003c00e00f5100080032003b003700f7
:102eb00004082000cfaa9700848f5200140032002b
:102ec000040c2000848f520034003a000fb39700a6
:102ed0004332dd00e7972000070242005403be00a2
:102ee0004402be000800be000a01be00f4f907005b
:102ef000a4002000050020006033b800f7f90700a7
:102f00000cc3b3000c464000ac779f002300370091
:102f1000f4a220001fa89700e00f5000010032002b
:102f2000e4a120008fb09700c20add000800be00b7
:102f30000a01be008502e900050033008301d100cb
:102f40000281d3008180d3000080d300f9ff3700d5
:102f50006f00600064407800a0779f000f0037008a
:102f60000fb197006312b9000800be000a01be004d
:102f7000040678000c06e900050033008301d10047
:102f80000281d3008180d3000080d300f9ff370095
:102f9000674260000443b000a4779f00af709700c1
:102fa0000100fb00afa8970024000700e10f4000dc
:102fb000060032008d06e800040037000c0178009e
:102fc0000202b20092af9f008cbf9f008fb19700aa
:102fd000e08f5100abff3a000fbe97006806660015
:102fe0000a003200e00f570008003400afa8970035
:102ff0000002200011000700e10f40000100320034
:103000008d06e8000e07e900f8ff3a004fa297008e
:1030100014407800a0779f00e04f5000ccfb3a00ae
:103020000d0078004f0778004f06be004f05be0028
:103030004f04be002f04b10000000600889fbe00b0
:103040000104780038029000e20262008084eb0004
:103050003b003200040378000620b2009802900082
:1030600002003a00e08f520035003a000490a000c0
:103070003404980080047800f90fb200e08f520009
:1030800002003a00a8029000050c7800ea8f540074
:1030900005003a000408b20003003a0088007800f6
:1030a000d0002000e5ff070018029000d802900031
:1030b000850f52000b0032000402e800140498004f
:1030c00018027800094a7800040ce80015c0b30023
:1030d000e4a62000054a7800ea8f540018003a0060
:1030e00005003700880078000940780017000700c5
:1030f0008004780012003700380290000410b200fb
:103100000f00320018019000a800900048009000c5
:103110000ff5070018029000840f500004003200e1
:10312000380290000403b300340498008084eb005c
:103130000002eb001404980028029000040c7800b0
:10314000090078004f04be00000006000200fa00eb
:10315000889fbe00a0ff9f00010478003802900005
:10316000840278000504b200020032000000fb0077
:1031700035003700e202620005003a000403b300a4
:1031800034049800150498000080eb002e003700ee
:10319000d8049000e08f540006003a00120020008e
:1031a000e680570048009000e9f4070019049800f1
:1031b00023003700a8029000e08f520008003a0078
:1031c00015a7200025049800050c78002500200094
:1031d00055049800150498000430a00034049800a9
:1031e00018019000a800900048009000d8f4070053
:1031f000280290008082eb0015049800affa970037
:10320000054a7800040ce8002ffa9700ea4f5200b4
:103210000b003a00380290000410b200080032009f
:1032200018019000a800900048009000c8f4070022
:103230000002eb0014049800a8029000050c78002e
:103240002ffa97000400fb004f04be000080fa0034
:043250000000060074
:020000040000fa
:020000040001f9
:0457f800ad7b000085
:020000040000fa
:020000040001f9
:0457fc003f3f00002b
:020000040000fa
:10000800a0020000a0020000a0020000a002000060
:10001800a0020000a0020000a0020000a002000050
:10002800a0020000a0020000a0020000a002000040
:10003800a0020000a0020000a0020000a002000030
:10004800a0020000a0020000a0020000a002000020
:10005800a0020000a0020000a0020000a002000010
:10006800a0020000a0020000a00200008a220000f6
:10007800a0020000a0020000a0020000a0020000f0
:10008800a0020000a0020000a0020000a0020000e0
:10009800a0020000a0020000a0020000a0020000d0
:1000a800a0020000a0020000a0020000a0020000c0
:1000b800a0020000a0020000a0020000a0020000b0
:1000c800a0020000a0020000a0020000a0020000a0
:1000d800a0020000a0020000a0020000a002000090
:1000e800a0020000a0020000a0020000a002000080
:1000f800a0020000a0020000a0020000a002000070
:10010800a0020000a0020000a0020000a00200005f
:10011800a0020000a0020000a0020000a00200004f
:10012800a0020000a0020000a0020000a00200003f
:10013800a0020000a0020000a0020000a00200002f
:10014800a0020000a0020000a0020000a00200001f
:10015800a0020000a0020000a0020000a00200000f
:10016800a0020000a0020000a0020000a0020000ff
:10017800a0020000a0020000a0020000a0020000ef
:10018800a0020000a0020000a0020000a0020000df
:10019800a0020000a0020000a0020000a0020000cf
:1001a800a0020000a0020000a0020000a0020000bf
:1001b800a0020000a0020000a0020000a0020000af
:1001c800a0020000a0020000a0020000a00200009f
:1001d800a0020000a0020000a0020000a00200008f
:1001e800a0020000a0020000a0020000a00200007f
:0801f800a0020000a0020000bb
:020000040000fa
:10020800a0020000a0020000a0020000a00200005e
:10021800a0020000a0020000a0020000a00200004e
:10022800a0020000a0020000a0020000a00200003e
:10023800a0020000a0020000a0020000a00200002e
:10024800a0020000a0020000a0020000a00200001e
:10025800a0020000a0020000a0020000a00200000e
:10026800a0020000a0020000a00200008a220000f4
:10027800a0020000a0020000a0020000a0020000ee
:10028800a0020000a0020000a0020000a0020000de
:10029800a0020000a0020000a0020000a0020000ce
:1002a800a0020000a0020000a0020000a0020000be
:1002b800a0020000a0020000a0020000a0020000ae
:1002c800a0020000a0020000a0020000a00200009e
:1002d800a0020000a0020000a0020000a00200008e
:1002e800a0020000a0020000a0020000a00200007e
:1002f800a0020000a0020000a0020000a00200006e
:10030800a0020000a0020000a0020000a00200005d
:10031800a0020000a0020000a0020000a00200004d
:10032800a0020000a0020000a0020000a00200003d
:10033800a0020000a0020000a0020000a00200002d
:10034800a0020000a0020000a0020000a00200001d
:10035800a0020000a0020000a0020000a00200000d
:10036800a0020000a0020000a0020000a0020000fd
:10037800a0020000a0020000a0020000a0020000ed
:10038800a0020000a0020000a0020000a0020000dd
:10039800a0020000a0020000a0020000a0020000cd
:1003a800a0020000a0020000a0020000a0020000bd
:1003b800a0020000a0020000a0020000a0020000ad
:1003c800a0020000a0020000a0020000a00200009d
:1003d800a0020000a0020000a0020000a00200008d
:1003e800a0020000a0020000a0020000a00200007d
:0803f800a0020000a0020000b9
:020000040000fa
:10325400253300002e3000006600000025310000f8
:1032640064000000496e0000766100006c69000093
:0432740064000000f2
:020000040000fa
:103278001800fa00881f7800200f9800310f980076
:103288006022b80044079800550798006022b800eb
:1032980064079800750798006022b800048fbe0084
:1032a8006022b80024079800350798006022b8000b
:1032b800040f9800150f980002002800f33f24001f
:1032c8002e089000be08900033f507000002be00eb
:1032d800040f9800150f980018c0b30002002000d2
:1032e80003f823000e0890009e08900026f50700ba
:1032f80000027800e00f5200010035000044eb00a6
:10330800e04f5400080032000400200005f82300b4
:1033180024079800350798000e0a90009e0a90002e
:10332800048fbe000b0037000400200005f82300be
:10333800048fbe000e0990009e0990000000200036
:1033480001002400b2f407000002be002407980020
:103358003507980002002000030824001e00be0064
:103368004ff507000002be00440798005507980073
:1033780002002000030824002e009000be009000e8
:1033880047f507000002be0064079800750798001b
:103398000002eb00140c88004e009000de00900044
:1033a80073f507000002be0004027800040c8800d0
:1033b8008461a800240c80000400a1000410a0006f
:1033c8000420a000240c88000002eb00440c8800b4
:1033d8006e009000fe00900065f507000002be0038
:1033e80004027800340c88008a61a800540c80001c
:1033f8000400a1000410a0000420a000540c8800c0
:103408000002eb005408880044002000740888007b
:1034180004032800940888004f0478000080fa000c
:10342800000006001c00fa00881f7800000f9800b2
:10343800110f9800220f9800330f9800440f98003e
:10344800550f98006022b800048fbe006022b800b3
:1034580024079800350798006022b80044079800b0
:10346800550798006022b80064079800750798000f
:1034780018c0b30002002000833c24004e089000ce
:10348800de089000c0f4070000027800e00f520048
:10349800010035000044eb00e04f54000900320001
:1034a80004002c00f53f2400240f9800350f9800e5
:1034b80004002c00f53f2400040f9800150f980015
:1034c8002400370018c0b30002002000833c240009
:1034d8004e089000de089000adf407000002780066
:1034e800e00f520001003c000044eb00e04f5400a4
:1034f8001800320018c0b30002002000833c2400ea
:103508002e089000be089000a1f407000002780081
:10351800e00f520001003c000044eb00e04f540073
:103528000c00320018c0b30002002000833c2400c5
:103538000e0890009e08900095f40700000278009d
:10354800e00f520001003c000044eb00e04f540043
:1035580035003a0002002c00f33f24002e089000aa
:10356800be0890008cf407000002be0064079800b3
:103578007507980002002c00f33f24000e08900005
:103588009e08900084f407000002be0044079800db
:103598005507980002002000030824004e00900000
:1035a800de009000bef407000002be00048fbe00db
:1035b8006266260063f623001e00be00b8f407000a
:1035c8000002be000400be00e9f407000002be00cd
:1035d80004027800040c880002002000030824007c
:1035e8006e009000fe009000adf407000002be00df
:1035f80024079800350798006266260063f62300c2
:103608002e009000be009000a5f407000002be0046
:103618000400be00d6f407000002be0004027800d1
:10362800340c880001003700000000004f047800c7
:103638000080fa00000006001000fa00881f7800d9
:103648002007980031079800420798005307980010
:1036580064079800750798000042eb00244798001b
:103668000042eb00344798000002eb00040f78009a
:103678006e02900014027800e20f520038003a00ff
:1036880018c0b30002002000833424002e009000ec
:10369800be0090003cf4070000027800e00f5200e2
:1036a800010034000044eb00e04f540010003200e9
:1036b8006e0290008082eb00050a780094c5b30082
:1036c80024479800e4c4b30034479800270507004e
:1036d8008000eb000000eb002b050700c004200071
:1036e8003a050700a003200038050700b10137009c
:1036f80018c0b30002002000833424004e0090005c
:10370800de00900020f4070000027800e00f52006d
:10371800010034000044eb00e04f54009e013200e9
:103728006e0290008082eb00050a7800e4c4b300c2
:103738002447980094c5b300344798000b05070048
:103748008000eb00100020000f0507002005200076
:103758001e050700a00320001c050700950137007f
:10376800ae42900094c5b30084cf5200bf003a0027
:1037780018c0b30002002000833424002e009000fb
:10378800be00900000f4070000027800e00f52002d
:10379800010034000044eb00e04f540021003200e7
:1037a8007e0290001402780004024200ee029000ab
:1037b8000482420014027800e00f52007d013200ba
:1037c8007e0290001402780004024200ee0290008b
:1037d8000482420014027800e10f420075013200b1
:1037e8007e0290001402780004024200ee0290006b
:1037f800048242008002eb00050a78007e029000f5
:103808001402780004024200ee0290000482420092
:10381800140278000403b00004007800eb040700e9
:103828006401370018c0b30002002000633124008f
:103838002e009000be009000d5f30700000278002b
:10384800e00f520001003d000044eb00e04f54003f
:103858002500320018c0b30002002c005341240098
:103868002e009000be009000c7f307000002780009
:10387800e00f5200010034000044eb00e04f540018
:10388800190032007e0290001402780004024200ff
:10389800ee0290000482420014027800e10f520008
:1038a8003f0132007e0290001402780004024200b8
:1038b800ee0290000482420015002000050a7800fc
:1038c8007e0290001402780004024200ee0290008a
:1038d80004824200140278000403b0000400780057
:1038e800ba0407006000370018c0b30002002000c7
:1038f800634124002e009000be009000a4f307004e
:1039080000027800e00f520001003d000044eb0087
:10391800e04f54001000320018c0b30002002c0021
:10392800034624002e009000be00900096f3070086
:1039380000027800e00f5200010034000044eb0060
:10394800e04f5400040032007e0290000482e80038
:10395800740798004400370018c0b3000200200024
:10396800634124002e009000be00900088f30700f9
:1039780000027800e00f520001003d000044eb0017
:10398800e04f54002100320018c0b30002002c00a0
:10399800034624002e009000be0090007af3070032
:1039a80000027800e00f5200010034000044eb00f0
:1039b800e04f5400150032007e0290001402780097
:1039c800e40f520011003a000002eb00040f7800e7
:1039d800070037001e02780004024200ee02900041
:1039e8000482420025002000050a78001e0fe80026
:1039f8001e027800e40f5200f6ff34007e029000a9
:103a08008002eb00050a780017003700570407000a
:103a18008000eb000000eb005b04070040932900e6
:103a2800730407000002eb00040f7800070037005a
:103a38001e02780004024200ee0290000482420056
:103a480025002000050a78001e0fe8001e027800f5
:103a5800e40f5200f6ff34007e0290008002eb0073
:103a6800050a7800d3003700d2003700be42900024
:103a780094c5b30084cf5200cb003a0018c0b300fd
:103a880002002000833424004e009000de009000e5
:103a98003df3070000027800e00f520001003400f7
:103aa8000044eb00e04f5400240032007e029000f6
:103ab8001402780004024200ee02900004824200e0
:103ac80014027800e00f5200ba0032007e02900023
:103ad8001402780004024200ee02900004824200c0
:103ae80014027800e10f4200b20032007e0290001a
:103af8000482e800740798007e029000140278009f
:103b080004024200ee029000048242008002eb00b0
:103b1800050a78007e029000140278000402420030
:103b2800ee02900004824200140278000403b00000
:103b380004007800250407009e00370018c0b30071
:103b480002002000633124004e009000de00900047
:103b58000ff3070000027800e00f520001003d005b
:103b68000044eb00e04f54002800320018c0b300b6
:103b780002002c00534124004e009000de0090000b
:103b880001f3070000027800e00f52000100340042
:103b98000044eb00e04f54001c0032007e0290000d
:103ba8001402780004024200ee02900004824200ef
:103bb80014027800e10f52007d0032007e0290006e
:103bc8000482e800740798007e02900014027800ce
:103bd80004024200ee029000048242001500200018
:103be800050a78007e029000140278000402420060
:103bf800ee02900004824200140278000403b00030
:103c080004007800f10307006100370018c0b30012
:103c180002002000634124004e009000de00900066
:103c2800dbf2070000027800e00f520001003d00bf
:103c38000044eb00e04f54001100320018c0b300fc
:103c480002002c00034624004e009000de00900085
:103c5800cdf2070000027800e00f520001003400a6
:103c68000044eb00e04f5400050032007e02900053
:103c7800940278007e029000050a7800440037001c
:103c880018c0b30002002000634124002e009000f9
:103c9800be009000bef2070000027800e00f52005c
:103ca80001003d000044eb00e04f540021003200c9
:103cb80018c0b30002002c00034624002e00900018
:103cc800be009000b0f2070000027800e00f52003a
:103cd800010034000044eb00e04f540015003200ae
:103ce8007e02900014027800e40f520011003a009e
:103cf8000002eb00040f7800070037001e0278006e
:103d080004024200ee0290000482420025002000d6
:103d1800050a78001e0fe8001e027800e40f520022
:103d2800f6ff34007e0290008002eb00050a78005e
:103d3800170037008d0307008000eb000000eb0040
:103d48009103070040932900a90307000002eb0034
:103d5800040f7800070037001e02780004024200b2
:103d6800ee0290000482420025002000050a780037
:103d78001e0fe8001e027800e40f5200f6ff340020
:103d88007e0290008002eb00050a780009003700e7
:103d980000000000070037000000000005003700a1
:103da8000000000003003700000000000100370099
:103db800000000004f0478000080fa0000000600b0
:103dc8000c00fa000400200005f82300048fbe0050
:103dd800c902a900c842a900c862a900c942a9002d
:103de800c002a8002c03a900c022a8002c23a90007
:103df800c802a8002c43a900c8a2a8006360a800b4
:103e08008660a9009660a8000002eb0014198800db
:103e18001410200024198800440e22000419880078
:103e28000002eb00441988000002eb0084198800a6
:103e380085a0a90021e3a80013030700144080000f
:103e4800254080000400be0009fd0700010037007e
:103e5800000000000002eb00441988004006200022
:103e6800bb02070000000000041980006102620024
:103e7800e00f5200fcff320004188000050020000b
:103e88000400be00e0f107000002be0034408800d4
:103e98004540880034408000454080006403470066
:103ea800849fbe00a4922900841f78000600780031
:103eb80042f70700e68757008040eb000040eb0020
:103ec8003103070064024700040078004803070034
:103ed80000c2b3003d030700140020004419880005
:103ee800400620009a020700000000000419800024
:103ef80061026200e00f5200fcff320004188000eb
:103f0800050020000400be00bff107000002be004b
:103f18005440880065408800544080006540800017
:103f280064034700849fbe00a4922900841f780080
:103f38000600780021f70700e6875700640247006b
:103f4800040078002a030700240020004419880090
:103f5800400620007e0207000000000004198000cf
:103f680061026200e00f5200fcff3200041880007a
:103f78007c22b90004027800e407b00005002000a4
:103f88000400be00a0f107000002be0074408800d3
:103f980085408800744080008540800064034700a5
:103fa800849fbe00a4922900841f78000600780030
:103fb80002f70700e68757008040eb0010c0b30007
:103fc800f1020700640247000400780008030700b4
:103fd80000c2b300fd02070000c2b300fb020700e5
:103fe8000540800064024700851f7800059329007a
:103ff800851f780004007800f0f60700e487570072
:104008006402470004007800f902070004408000b9
:104018006123b900140020000500200006024200b8
:1040280087824a006600200007002000860f5200a1
:10403800878f5a0086ff3e00046001007e0037002b
:104048000500370010003700260037003c00370015
:1040580063003700670037005440800065408000e7
:1040680076408000874080003040800041408000da
:104078000601be00ebfc0700800c2000340207009c
:104088007f0007007d0037004536800004fe2f00c2
:1040980004826200443688001536800004fe2f0032
:1040a800048262002401b3001436880015368000ab
:1040b800f40f2e0004826200143688005536800002
:1040c80004fe2f00048262003401b30054368800d5
:1040d80004202200040001000002eb0004408800d4
:1040e80066003700242422000400010045368000c1
:1040f80004fe2f00048262004436880015368000d2
:1041080004fe2f00048262002401b30014368800e4
:1041180015368000f40f2e000482620014368800e1
:104128005536800004fe2f00048262003401b3007b
:10413800543688000002eb00044088004f00370026
:1041480074408000854080000401be00000020000b
:10415800014024002ef107000002be000403be0047
:1041680034408000454080000401be000600be00c7
:1041780028f107000002be0014408800254088008e
:1041880014408000254080000400be00a5fc070004
:104198004536800004fe2f00048262004436880001
:1041a8001536800004fe2f00048262002401b3004b
:1041b8001436880015368000f40f2e000482620041
:1041c800143688005536800004fe2f0004826200f1
:1041d8003401b30054368800580007002700370020
:1041e800242222000400010034002000044088003a
:1041f800220037004536800004fe2f00048262004a
:10420800443688001536800004fe2f0004826200c0
:104218001436880015368000f40f2e0004826200e0
:10422800143688005536800004fe2f000482620090
:1042380054368800110037004536800004fe2f00f0
:1042480004826200443688001536800004fe2f0080
:10425800048262001436880015368000f40f2e00a0
:1042680004826200143688005536800004fe2f0050
:10427800048262005436880000000000f5fe370012
:104288000000fa00881f7800344080004540800014
:1042980018c0b30002002000833424000400be00cc
:1042a80039f1070000027800e00f520001003500e4
:1042b8000044eb00e04f54001c00320054408000e2
:1042c8006540800018c0b30002002000033a2400b3
:1042d8000400be002cf1070000027800e00f520035
:1042e800010035000044eb00e04f54000f0032009d
:1042f800744080008540800018c0b3000200200090
:10430800833424000400be001ff107000002780077
:10431800e00f5200010035000044eb00e04f54006c
:1043280002003200240020000440880004007800c5
:104338004f0478000080fa00000006000000fa0030
:10434800881f7800344080004540800018c0b300c2
:1043580002002000033a24000400be000cf107000c
:1043680000027800e00f520001003c000044eb001e
:10437800e04f54001c00320054408000654080002b
:1043880018c0b30002002000033a24000400be0055
:10439800fff0070000027800e00f520001003c0027
:1043a8000044eb00e04f54000f00320074408000de
:1043b8008540800018c0b30002002000033a2400a2
:1043c8000400be00f2f0070000027800e00f52007f
:1043d80001003c000044eb00e04f540002003200b2
:1043e8005400200004408800040078004f0478003e
:1043f8000080fa00000006000200fa00f03f2000ea
:1044080008fc07000002eb00040f78000002eb0034
:10441800040f780003003700800c20004c010700cf
:104428001e0fe800f47c20009e027800848f520062
:10443800f9ff34000080fa00000006000200fa00cc
:104448000000eb00f7fb07000002eb00040f780008
:104458000002eb00040f780003003700006a280010
:104468003b0107001e0fe8001e027800e90f52000a
:10447800faff34000080fa00000006000200fa008b
:104488004536800004fe2f00048262002401b30038
:10449800443688001536800004fe2f00048262002e
:1044a8001436880015368000f40f2e00048262004e
:1044b800143688005536800004fe2f0004826200fe
:1044c8003401b3005436880000002c00f13f24006a
:1044d800d4fb07000002eb00040f78000002eb0099
:1044e800040f780003003700803e20001801070001
:1044f8001e0fe800747020009e027800848f52001e
:10450800f9ff34000080fa0000000600849fbe0016
:104518003400f80004002000a40188000000fa001c
:104528008660a900551680000402200004826200fb
:10453800e00f52001a003a0004408000e10f4200e8
:1045480015003a000002eb00044088004536800060
:1045580004fe2f000482620044368800153680006d
:1045680004fe2f00048262002401b3001436880080
:1045780015368000f40f2e0004826200143688007d
:104588005536800004fe2f00048262003401b30017
:1045980054368800020037000082eb00044088008f
:1045a8000080fa003400f9004f02be000040060007
:020000040000fa
:1045b800000800001e00000002000000ffff0000cd
:1045c800600044000000000000000000000000003f
:1045d80000000000020002000002000002000200c9
:1045e800000000001e0a00002a000000020000006f
:1045f8003031320033343500363738003941420023
:10460800434445004600300031323300343536002b
:1046180037383900616263006465660000286e00ff
:10462800756c6c00290000007e090000a0000000e5
:1046380002000000010000000000000000000a0065
:1046480000000000000000000064000000000000fe
:1046580000000000e8030000000000000000100057
:10466800270000000000000000a0860001000000f4
:104678000000000040420f00000000000000800021
:1046880096980000000000000000e100f505000019
:104698000000000000ca9a003b0000000000000073
:1046a800e40b5400020000000000e8007648170000
:1046b800000000000010a500d4e800000000000081
:1046c800a0724e0018090000000040007a10f300a4
:1046d8005a0000000080c600a47e8d000300000080
:1046e80000c16f00f2862300000000008a5d780098
:1046f8004563010000006400a7b3b600e00d0000a8
:1047080000e889000423c7008a0000001e08000092
:10471800600100000200000000000000000000002e
:10472800f03f0000000000000000240040000000ee
:104738000000000000594000000000000000400098
:104748008f400000000000000088c3004000000007
:10475800000000006af840000000000000808400ab
:104768002e41000000000000d0126300410000004c
:1047780000008400d7974100000000000065cd00cc
:10478800cd410000000020005fa0020042000000b0
:1047980000801d00af1544000000000040593e0095
:1047a80029460000000000000000f0007f00000023
:1047b8000000000000f07f00000000000000000082
:1047c800f07f0000000000000000f0007f00000003
:1047d8000000000000f07f00000000000000000062
:1047e800f07f0000000000000000f0007f000000e3
:1047f8000000000000f07f00000000000000000042
:10480800f07f0000000000000000f0003f00000002
:1048180000a0990099b93f000000000040e17a002b
:10482800843f00000000e0004d6250003f0000009f
:1048380000e0e200361a3f000000000080b5f800f2
:10484800e43e00000000a000f7c6b0003e000000f3
:1048580000a0f200d77a3e0000000000e08e790048
:10486800453e00000000e0000b2e11003e00000055
:1048780000e0df007cdb3d000000000000a19c00a0
:10488800c73b0000000000004c48b400390000009d
:10489800000020006ca137000000000000000000ac
:1048a8000000000000000000000000000000000000
:1048b80000000000000000000000000000000000f0
:1048c80000000000000000000000000000000000e0
:1048d80000000000000000000000000000000000d0
:1048e80000000000000000000000000000000000c0
:1048f8006e0a00000600000000000000480a0000e0
:1049080026000000020000006f0a0000006f0a0085
:104918000900000000020000710a000000710a008e
:104928000e0201000000000000000000000000006e
:104938000602020000000000480a0000740a000095
:10494800020000000200000001000000000000005a
:020000040000fa
:104958000200fa00000f780004012800840888008b
:104968000002eb00340888001e02780004024200ae
:104978000402e9006408880084e0a900000000003f
:10498800250480000408200004826200e00f520021
:10499800fbff320011e1a90084e0a9000080fa00c1
:1049a800000006000400fa00004f78001107980084
:1049b8009e42780061c262000482fb0061026200cc
:1049c8004722dd0066168000f5f72f008502630098
:1049d80004827200641688001e009000dcff070045
:1049e800ccc2a8001e009000d9ff0700ccc2a900c5
:1049f8001e009000d6ff07000080fa0000000600a5
:104a08000600fa00004f7800110798002207980066
:104a180065168000f4ff2000848262001e42780040
:104a28000483fb00040f2000040263004822dd0019
:104a380004827200641688001e0290000442780006
:104a4800ae00900004407800d6ff0700651680008d
:104a5800f4ff2000848262001e4378000682fb0077
:104a68004c22dd0004827200641688001e02900049
:104a780004427800ae00900004407800c9ff0700a7
:104a88000080fa00000006000000fa00c8e2a90051
:104a9800c8c2a900c9e2a900c9c2a900c9a2a9003f
:104aa800c982a9000002eb0064168800cce2a900c4
:104ab800ccc2a90080a92300a5ff070065168000c5
:104ac800f4ff200084826200040023000482720044
:104ad80064168800410021000040eb00b1ff070088
:104ae80065168000f4ff2000848262000400230021
:104af8000482720064168800410620000040eb0022
:104b0800a8ff0700420620008000eb0020c3b30086
:104b1800bbff0700820220008000eb0080c2b300c8
:104b2800b7ff0700820220008000eb0080c0b300be
:104b3800b3ff0700826620008000eb0010c0b300be
:104b4800afff0700820220008000eb0060c0b300c6
:104b5800abff0700220320008000eb00c0c0b300b9
:104b6800a7ff07000080fa00000006000000fa0016
:104b7800025f20008000eb0010c0b300a0ff070018
:104b88000080fa00000006000200fa00004f7800da
:104b9800114798009e4278000582fb004622dd00fe
:104ba8008442780004c8b30084c272001e42900098
:104bb80004c27200820220008000eb0004407800ea
:104bc8008fff07000080fa00000006000200fa00cc
:104bd800004f78001e427800820220001100200059
:104be8000440780086ff07000080fa0000000600f5
:104bf8000200fa00000f7800050037001e02780056
:104c0800144278001e0fe80004407800efff070008
:104c18001e02780014427800e04f5200f7ff3a0075
:084c28000080fa000000060004
:00000001FF
