:020000040000fa
:080000000002040000000000f2
:020000040000fa
:100400006fa720000e7f22000e0188000000000070
:10041000000020000000e000020032000001200087
:10042000200288000c000700006422000100200068
:1004300011000700000020000000e0000200320070
:100440000000020000000000001d0200000000008b
:100450000040da000000fe004440a900e000200057
:100460000000e0000300320000002000a00188002e
:100470004440a80000000600910188008000780038
:100480000000eb0015003700e280400032a0b4000d
:100490009101ba00e280400032a0b4009102ba009b
:1004a000e280400032a0b4000002eb00472bde00e7
:1004b000f507b200602ce10004003a000059eb009f
:1004c0008301e900fdff3e00040037006128e100e0
:1004d000010032000082eb00040007001101ba00a5
:1004e0000200e000e8ff3a00000006003159ba00bf
:1004f0008301e9000c0032002159ba008301e900b0
:10050000080032000400e00003003a00e2804000ee
:1005100032a0b400f5ff370011d9ba008301e90019
:10052000faff3a008100e800e180400032a0b40008
:1005300000000600000000000000000000000000b5
:100540000000000000000000000000000040da0091
:100550000000fe0000c0da00000006000a00fa00f9
:10056000e20f500022003e00a4538000e10f520031
:100570000600320087232000462320002423200089
:1005800005232000e08f530004003a00872220005a
:1005900046222000242220000522200000002800fe
:1005a0001500600003003a00800b78000700280067
:1005b000958a7300054020009482620001003a0091
:1005c00014a0a0008202780006003700940378008f
:1005d0000710b200fdff3200b103fb00070b7800eb
:1005e0008502e900e08f5200f8ff3a00080037006a
:1005f00034002000b4bf9f00c0bf9f00d1bf9f0048
:10060000e2bf9f006a805700d2ff07006fb99700d2
:10061000020078000080fa00000006006011b800b7
:10062000f30037001400200020013700f4ff2f00f2
:100630001e01370003f0a200889fbe008a9fbe0003
:100640008c1f7800340107003b0133006450e10047
:100650004f0032006420e1005200320003826c003f
:1006600007003b000905d0000306d000820f5400ac
:100670000c065d000200390002003200890178009a
:10068000030678008582550004003d000003fd004c
:100690008103fd008502ea008b854200840f720011
:1006a00002003b0060001000e08018006011b800fc
:1006b0000005eb007a28e1000a0039000600780006
:1006c000c75ddd00f707b200878075002d00370099
:1006d000828171000a017800610560008180d1008b
:1006e0000080d3008502e900f9ff3b0006044000ca
:1006f0008784480002003b0060041400e0841c0072
:100700000988a300070032008a817100828171008c
:10071000610164008904d1000884d3008b05e800de
:10072000170037000978a30013003a000b00e0001f
:10073000130034008b05e9000804440089844c0050
:100740000a4474000978a3000d003a000b00e00091
:10075000070034008b05e9000804440089844c003c
:1007600001003a000b0020000978a300f7ff3200d7
:100770000001eb0002003700828171000a0178005d
:10078000fd0007000cf0a70001f0a000f300370007
:100790006420e10002003a00838f6c00f300330014
:1007a0000801be000200be00ec003700889fbe00ba
:1007b0008a9fbe008c1f7800d7000700de00330040
:1007c00003866c006450e100240032006420e100e4
:1007d000270032006150e100220032006120e10078
:1007e000210032008b854200eb07b1000134b800d4
:1007f000003ab8000804420089844a00013ab8006f
:100800000030b8008880400009014a00040033002d
:100810000000400081804800020149008b05e9008a
:10082000c909dd00830170000100320013002000bf
:10083000c814de004814dd004709de001200b200d3
:10084000c808de0008847000cb00070001f0a1009a
:100850000cf0a70001f0a000c00037006120e1000b
:10086000c20032000801be000200be00f7ff3700e0
:100870006150e100fcff3a00bc003700889fbe00d9
:100880008a9fbe008c1f7800a3000700aa003300d7
:1008900003866c006450e1002e0032006420e10009
:1008a000330032006150e1002f0032006120e1008e
:1008b0003100320085855500eb07b00009002000ab
:1008c00008042000050037000804440089844c0017
:1008d0000a0031000603430087834b0000015300e8
:1008e00081815b00f8ff33000203be000800a00016
:1008f0000804440089844c00f6ff3900c639dd0045
:100900008301730001003200130020008904d1002c
:100910000884d3000998a300050032000800a7004e
:100920000300a0008904d1000884d3008b05e800ef
:100930008904d1000884d3000001eb000281d200b9
:100940008d00070001f0a1000cf0a70001f0a0004d
:10095000820037006420e100840032000801be00fc
:100960000200be00f7ff37006120e1007f00320087
:100970006000b800f3ff37000000200001f82700f6
:10098000f0ff37000001be00a10007000470a700bf
:1009900003f0a10003f8a30013003a006509b100b9
:1009a00010003200090035006928e100020035001e
:1009b0000100280000000500000040008180480080
:1009c0008502e900fcff3a0000000600f88f4200b3
:1009d000050035008100d1000080d3008502e800c9
:1009e000fcff3a00000006008000eb00000005005c
:1009f000889fbe008a9fbe000082700004027100c2
:100a000004827100260032000004be000200be0015
:100a10006011b8006b092000950220000182cf0010
:100a20000a0039000541b1000082cf0007003900fb
:100a30000541b1000982cf00040039000541b10031
:100a40000882cf00010039000541b1000542520083
:100a5000120032000a003b008281710061016400d3
:100a60008100d1000080d3008984d3000884d300a2
:100a70008b05e8000442e800f7ff3a000700370062
:100a80000804440089844c0000004800818048002c
:100a90008b05e9000442e900f9ff3a00360007003f
:100aa0004f05be004f04be0000000600889fbe0038
:100ab0008a9fbe00841f7800170007004f0078004f
:100ac00011003300f0ff2f00838f6c0006003b0005
:100ad000040565000a00a7000800370009f0a60019
:100ae0001000200008003700820f5400838f5c0044
:100af000030039001000200001003e00000020002b
:100b000009f0a7000000ea004f05be004f04be0038
:100b10000000e000000006000004be003c000700ea
:100b20000003be000405be000200be00380007003e
:100b3000844f7500000006000200be006450e10012
:100b4000050036006420e100020036000968a300b9
:100b500001003a000800be000160a0004f067800c6
:100b60004f05be004f04be0000000600f0ff2f003e
:100b7000f1ff2700f9ff3700810020006180550058
:100b80000b003d000b00200061fe2f000100e10082
:100b90001d00340082817100610164008904d1006c
:100ba0000884d3000000e800faff3a00710020003a
:100bb0006100640003007000020060000900320060
:100bc00061044400e0844c000988a500050032005f
:100bd0008b05e8006808e10002003a008904d100b2
:100be0000884d300f20f20000258e10005003d0008
:100bf000c75ddd00f907b200898075000800780044
:100c0000000006000bf827008b00780000000500ac
:100c1000c70ade00f107b200f50fb200080032008b
:100c2000e1cf4200020032000170a0002400050064
:100c3000810f700001003200040805004400050027
:100c4000810f700002003a00140005008502e900df
:100c50000000400081c04800fcff3b000170a00084
:100c6000240005002800fa00889fbe008a9fbe006d
:100c70008c9fbe0003866b00340307000028a3008e
:100c800064003a000128a30067003a000008a300ae
:100c900062003a000108a30065003a001e009000bf
:100ca000be08900081064000ed3fb100f48057007f
:100cb000ee019000111ab8008e099000311bb800a7
:100cc0009e099000311cb800511db800f4855700f2
:100cd00046000700fe0190003a0007008b85e800ff
:100ce0003e0007008e09900040000700ee019000d2
:100cf000340007008b85e800380007008e0990005b
:100d0000400007009e0990001b18b80089044000ad
:100d10000a854800fe019000340007008b85e8003a
:100d200038000700ee019000300007008e099000a7
:100d30001b18b800890440000a8548000a98a300df
:100d400008003a000402420085824a0006034b0074
:100d500087834b0008044c0089844c000a054d0031
:100d60008d06e90084827200850273004c3add0032
:100d7000850272000100320015002000443ade00b6
:100d80001400b2004538de00cb45dd000b007000da
:100d9000c540de00cb4ddd008b8070004549de0094
:100da000cb55dd000b017100c551de000d0378004d
:100db000ff02070003f0a1000cf0a70003f0a00061
:100dc000f60237001b18b800850240000683480071
:100dd000e0834b0060044c00070037001b18b8008c
:100de0000603400087834800faff37001b18b8004d
:100df0008703400008844800e0844c0060054d00f3
:100e0000000006001b18b800080440008984480050
:100e1000faff37000108a300dd023a005800be00c7
:100e20005801be00e3ff37000008a300d8023a00d3
:100e300009047800f9ff37008103780074ff070088
:100e40000001be006000b8000478a30013003a005f
:100e50006220e10015003e000d0039008301d10041
:100e60000281d3008180d3008301d1000281d300ad
:100e70008180d3008301d1000281d3008180d3001f
:100e80000538b000c42add00f300b200838172008f
:100e900007f0a70003f0a00000000600f3ff270002
:100ea000f2ff2f006110b900fbff370003ff27009e
:100eb000f7ff37008f1fd100e90207008f87e90095
:100ec0000000e00000000600801feb00e4020700c5
:100ed0008f87e9000000e000000006001400fa001f
:100ee000889fbe008a9fbe008c9fbe0004067800cb
:100ef0000004be000205be00680047000a90be0064
:100f00000890be00ff0207006200e1000800be007a
:100f10000a01be00040020000b003a001e029000ef
:100f2000e43fb1006e009000fe0090000e099000ba
:100f30009e099000f300b20005fe23008581710038
:100f40000bf0a70003f0a000040e78009302370016
:100f5000809feb00c20207008f87e9000000e000dd
:100f6000000006002800fa00889fbe008a9fbe008d
:100f70008c9fbe0007067800878669000c003b0046
:100f8000030478008704780008f0a10009f0a100ac
:100f9000840f5000858f5800860f5900890f5c0020
:100fa000030033000cf0a20001003a000cf0a10095
:100fb000660207006400e1005f003200780147002c
:100fc0006408e100610032006c014700748557003d
:100fd0003200be001201be003a04be001a05be0077
:100fe0001e039000be0a90008503530006003d00da
:100ff0000004fd008104fd000205fd008305fd00e5
:101000008703ea00050378000df8a300040032000e
:1010100060041400e0841c0060051d00e0851d00d4
:101020006022b8007d0320000d38e1008006eb004f
:101030000b0039004433dd00f300b200830173007c
:1010400039003700848272000d027800e1066400e6
:101050008b85d1000a85d3008984d3000884d3000e
:101060008703e900f7ff3b00080040008980480043
:101070000a0149008b81490004003b006000100018
:10108000e080180060011900e08119000358a300f6
:10109000090032008d827200848272006102600059
:1010a0008301d1000281d3008180d3000080d3006e
:1010b0000603e8001b0037000348a30017003a00ae
:1010c0000600e000170034000603e9000d00a3004d
:1010d00000004800818048000201490083814900e6
:1010e0000348a3000f003a000600e00009003400a6
:1010f0000603e90000004000818048000201490029
:101100008381490001003a000003eb000348a3007b
:10111000f5ff32006022b8000200370084827200be
:10112000618266002202070003f0a1000cf0a70014
:1011300003f0a00019023700640147006408e100d1
:1011400002003a000df8a30011023a003200be007e
:101150001201be00110237001400fa00889fbe0081
:101160008a9fbe008c9fbe000004be000205be0028
:10117000680047000a90be000890be0061020700a8
:101180000070a7000bf0a1000bf8a30020003a00ac
:101190009e0990000e099000fe0090006e009000e5
:1011a0009e0290003443200084825200fb013200f2
:1011b0000a003c00b4fc2f000428e10014003400b5
:1011c0008301d1000281d3008180d3000080d3004d
:1011d0008502e800faff3a00f0013700b400200071
:1011e0000428e10007003c00000040008180480026
:1011f00002014900838149008502e900faff3a00b3
:10120000e60137000300280002002000010037003b
:101210006011b8006000b800e00137002800fa0053
:10122000889fbe008a9fbe008c9fbe0003866b0015
:10123000c60107006400e100440032006408e100d8
:101240004a0032006100e100460032006108e1001e
:1012500049003200ec0647006000b8003d02be00c5
:101260003d03be00f48657006011b8003d04be0087
:101270003d05be007d0320000b0037000000a000ec
:101280008d06e900130032000402420085824a0004
:1012900006034b0087834b0000004000818048001c
:1012a00002014900838149000802520089825a00e4
:1012b0000a035b008b835b00f0ff3b0008024200e7
:1012c00089824a000a034b008b834b008d06e9009c
:1012d000edff3a008482720086827200f707b20046
:1012e0008782720001003200150020001e04900069
:1012f0003e0b900006035400e63fb0000368a300d5
:10130000070032000000a7000500a0008301d10003
:101310000281d3008180d3000080d3000603e8005f
:101320008301d1000281d3008180d3000080d300eb
:101330000002eb000482d2009d01070003f0a1002f
:101340000cf0a70003f0a0009401370064024700ee
:101350006408e1008e0132003400be003401be009a
:10136000f6ff37006108e100890132006011b80022
:101370006000b800f1ff370003ff270002002000e3
:10138000fbff3700889fbe000082700004027100de
:10139000048271002400320036432000c500200082
:1013a0008383cf000a0039000541b1008283cf005a
:1013b000070039000541b1008183cf0004003900e6
:1013c0000541b1008083cf00010039000541b10023
:1013d00085c353006022b800120032000a003b00af
:1013e00084827200610260008301d1000281d30017
:1013f0008180d3000080d3000603e8008743e80023
:10140000f7ff3a00070037000000400081804800e5
:1014100002014900838149000603e9008743e9008e
:10142000f9ff3a00620107004f04be000000060009
:1014300007f0a200cbfe3700889fbe008a9fbe0047
:101440003004be002005be000404440085844c0026
:1014500006054d0087854d000898be000a90be0025
:101460000440e10005c8e10006d0e10007d8e10032
:1014700002003100680040001008e8004f05be007f
:101480004f04be00000006001000fa00889fbe0056
:101490008a9fbe000605be000404be003002be00e6
:1014a0002003be00c4b79f00d5b79f00e6b79f00da
:1014b000f7b79f000802520089825a000a035b00b6
:1014c0008b835b0084bf9f0095bf9f00a6bf9f00da
:1014d000b7bf9f000498be000698be001100200010
:1014e0004fb29700dfb297006fb39700ffb397003a
:1014f000b2000700010039008000eb0010881000e6
:101500004f05be004f04be000080fa000000060038
:101510001400fa00889fbe008a9fbe008c9fbe0008
:10152000790007000605be000404be000006eb00bb
:10153000ccb79f00bcb79f00acb79f009cb79f0083
:101540008cb79f000d0420004fb39700bfb29700e7
:10155000860343002fb29700e00f530004003d00c4
:101560009b0007000f004000b3ff07000300370097
:10157000970007000f004000c3ff0700cfb297009d
:1015800095bf9f00e08f52000900350065000700fd
:1015900014002000050020006033b8000000720035
:1015a000818072000201730083817300560007007e
:1015b0000c06e8008d0f5600e3ff3a001fba9700b3
:1015c000e00f520005003d000802be000a03be0005
:1015d00000fe2f000f00400097ff07004faa970062
:1015e000e00f520008003a000fb497009fb4970034
:1015f0002fb59700bfb59700d8b79f00e9b79f00f8
:10160000fab79f008bbf9f00460007004f06be0041
:101610004f05be004f04be000080fa000000060027
:10162000881f780018002000881f7800b8ff070086
:101630008f87e9004f04780000000600801feb0050
:10164000b3ff07008f87e90000000600889fbe00f7
:101650008a9fbe004100070007003d0044000700cc
:10166000180020004900070008003d002f00070077
:101670000004eb00050037000004eb004300070006
:1016800002003d002900070018002000e4ff0700c9
:10169000e00f540001003200410007004f05be007a
:1016a0004f04be0000000600889fbe008a9fbe0057
:1016b0008c1f78002900070005003d002c00070062
:1016c0001c0020003d00070007003d00050037001a
:1016d0000006eb002d00070003003d006044b80049
:1016e0006055b80013000700d4ff0700e00f560054
:1016f000010032002a0007004f0678004f05be00a7
:101700004f04be00000006000100070000000600b4
:1017100090b79f00a1b79f00b2b79f00c3b79f00cb
:101720000000060008000700000006006044b80042
:101730006055b8000402540085825c0006035d0019
:1017400087835d00000006001fb09700afb09700d0
:101750003fb19700cfb1970000000600e00f5000a6
:10176000e08f5800e00f5900e08f5900000006009c
:101770006044b8006055b8000000540081805c00ef
:1017800002015d0083815d0000000600e00f520051
:10179000e08f5a00e00f5b00e08f5b000000060066
:1017a0006022b8006033b8000000520081805a0007
:1017b00002015b0083815b00000006000820e1005d
:1017c00009a8e1000ab0e1000bb8e1000000060042
:1017d0004f2bde0086837300a7b79f004f23de00e8
:1017e000858242008682720095b79f00ffaa97000b
:1017f0004f2bde00040242000602720084b79f00f5
:101800006faa97004f23de00858242008682720015
:10181000f5af9f00ccff07004f18de000402420026
:1018200000027200e4af9f00c7ff07000000400005
:10183000818048000201490083814900b4ff07000c
:101840000802be000a03be0000fe2f0000000600d2
:10185000889fbe008a9fbe008c1f78000006eb00a8
:10186000e00f5000e08f5800e00f5900e08f590062
:1018700007003d006044b8006055b8000000540007
:1018800081805c0002015d0083815d001c002000fe
:10189000e00f5200e08f5a00e00f5b00e08f5b002a
:1018a00007003d006044b8006055b80004025400d1
:1018b00085825c0006035d0087835d000c00a2004a
:1018c000b7000700e00f5600060032006022b800a3
:1018d0006033b8000000520081805a0002015b00b2
:1018e00083815b004f0678004f05be004f04be00a9
:1018f000000006006022b800060220000000d000b0
:101900008180d2000482d2008582d2000000a00033
:101910000202520083825a00030031000202420098
:1019200083824a000000a1000603e900f3ff3a00a9
:1019300000000600020ab900001bb9000200b8004e
:101940008100420081004300000006006804470057
:101950000294be000094be00fc0447008694be00c2
:101960008494be0009007800660007000800780033
:101970006400070099007800814f70000b003b0065
:101980000800be00a80007004f00b10003003700a8
:10199000f3ff2700f2ff2f006110b9004f06be00d1
:1019a0004f05be004f04be000080fa000000060094
:1019b0001800200057002000080453000d003d00cf
:1019c0000600200097fc2f000740e1001e003400b5
:1019d00084827200610260008301d1000281d30021
:1019e0008180d3000080d3000804e800f8ff3a00ab
:1019f00047002000610460000504740004046400d2
:101a00000d00320061004000e080480060014900a4
:101a1000e081490003b8a500070032000603e80092
:101a20006538e10004003a008301d1000281d3004f
:101a30008180d3000080d300f87f20000830e100cf
:101a400003003500080378006000b8006011b8009a
:101a50004433dd00f300b200830173000000060090
:101a6000889fbe008a9fbe008c9fbe000404be00fb
:101a70000605be00809fbe00829fbe007800070062
:101a8000040678000800be000a01be0074000700ca
:101a9000840678004f03be004f02be008d4f7600d3
:101aa0007fb0970013003300f0ff2f008b8f6b0087
:101ab00006003b000d0666000c00a7000a00370078
:101ac00007f0a600100020000a003700880f52001f
:101ad000898f5a008a0f5b008b8f5b0003003900ef
:101ae0001000200001003e000000200007f0a700c9
:101af0000000ea004f06be004f05be004f04be00c6
:101b000000000600800078005002be005003be00b6
:101b10004439de00f700b200f37f200003016100ca
:101b2000090032000218e10016003a008501720037
:101b300083017300838173000008200015003a00c0
:101b400040002000130037008501720083017300fc
:101b50008381730005003a0004a8be0006a8be00f9
:101b6000100020000b0037000201e90004024200cf
:101b700085824a0006034b0087834b000748a30079
:101b8000f9ff32000740a00004a8be0006a8be006e
:101b900020002000800098009200980000000600bd
:101ba000889fbe008a9fbe008c9fbe000404b800c0
:101bb0000506b8008904460060854e000606b80098
:101bc0000a054600e0854e000706b8008b05460072
:101bd000040eb800890446000a854e00e0854d00d9
:101be000050eb8000a0546008b854e00060eb800ab
:101bf0008b0546000416b8000a0546008b854e008a
:101c00000516b8008b054600041eb8008b0546007b
:101c10000800be000a01be004f06be004f05be0010
:101c20004f04be0000000600e48240001078a300cc
:101c300007003200640240001178a3003400be00a7
:101c40001401be00040032000330a70000000600ab
:101c50003500be001501be000330a00000000600e4
:101c600005ff270005826100070032000428e1001b
:101c700001003200240005000600070001003a00c0
:101c8000440005000408050002000700f9ff3a00bf
:101c9000140005006f8261008102700085027100ee
:101ca00085027200000006000c00fa00889fbe004a
:101cb00000047800f4ff2700d4bf9f008004eb00ed
:101cc00099bf9f0088bf9f00a8bf9f00240c2000e1
:101cd000b4bf9f0078815700cfb097007080570045
:101ce000c40007000fba9700094a78000fba97009e
:101cf000080052004f04be000080fa0000000600f9
:101d00000800fa00889fbe008a9fbe000084fb0086
:101d1000d4c6b300844f5000340036004b06200078
:101d2000110009000b84d800810578007200400082
:101d30004300dd00e98c2000008044006022b800f0
:101d40000600200007fe23005001be004000be0038
:101d5000c4fb07000002be000203be0084bf9f0058
:101d600095bf9f00a6bf9f00b7bf9f00aa0020009d
:101d7000110009008a85d80080057800e9854500b2
:101d8000c35ddd008b8544003b02be002b03be001b
:101d90000fb897009fb897002fb99700bfb9970069
:101da000b0fb07000002be000203be0084bf9f001c
:101db00095bf9f00a6bf9f00b7bf9f0011000900fd
:101dc0000a84d800010478004344dd00888444007c
:101dd0003902be002903be000fb897009fb89700d4
:101de0002fb99700bfb997001d003700ea4f500088
:101df00013003600aa002000110009000a84d80050
:101e000001057800690440004344dd00e98c2000ae
:101e1000088444006022b8000600200007fe23006a
:101e20003800be002801be008efb07004355dd00d0
:101e30008a8444003902be002903be00080037002e
:101e40004344dd00e48c2000080442006022b80016
:101e50000600200007fe23003800be002801be0057
:101e600080fb07004f05be004f04be000080fa0053
:101e7000000006000800fa00889fbe008a9fbe008e
:101e8000d4c6b300e04f500022003d000040ea00fd
:101e90000004fb00844f50000a0034004406200078
:101ea000110009000404d800a90020001100090055
:101eb0008900d800e9004000c308dd00ea8c20005a
:101ec00020003700ea4f50000f003400a40020002b
:101ed000110009000404d800690040004300dd003f
:101ee000e48c200000004200430cdd0008024200a8
:101ef0005403be004402be005001be004000be00bc
:101f000058fb0700370037004344dd00e48c200015
:101f1000310037000004fb00844f500023003400e0
:101f200044062000110009000404d800a900200084
:101f3000110009008900d800e9004000c308dd0055
:101f4000ea812000810045003102be002103be006d
:101f50008b0920008a8545003b00be002b01be0096
:101f600040fb07000002be000203be0084bf9f00ca
:101f700095bf9f00a6bf9f00b7bf9f00110009003b
:101f80000904d800010478004344dd000805450039
:101f90003a02be002a03be000fb897009fb8970010
:101fa0002fb99700bfb99700d5ff3700ea4f50000f
:101fb00007003400a4002000110009000404d80028
:101fc000690040004300dd00e4812000c5ff3700c8
:101fd0004344dd00e4812000080442003800be00d4
:101fe0002801be004f05be004f04be000080fa006d
:101ff00000000600ef05b000889fbe008a9fbe006b
:102000008c9fbe008e1f780000067800e19f9f0025
:1020100082af9f006000b8006011b80080a79f00e9
:1020200091a79f00a2a79f00b3a79f000007eb0006
:10203000da053700ef9897008100e800e19f9f00e4
:1020400054c2b300844f500006003a0001037800e8
:102050008006eb0007c3b30000c2b300b1c2b300f7
:102060000e0037003c0290000404b200040032006d
:102070001c027800004a7800040ee80005003700d2
:102080000000fb008c007800d0050700e10f400045
:10209000c20532000e07e800c005370006027800ce
:1020a000b6427800d2c2b30082cf5200090032009b
:1020b00005003c0080cf52000800320081cf520062
:1020c0000c003a000700370087cf520009003a00a1
:1020d000060037000d30a000f0ff37000d00a00013
:1020e000eeff37000d10a000ecff37000d20a00020
:1020f000eaff370062836600010032000d00a10094
:1021000068836600010032000d20a1000503fb007a
:102110000603b100e90f53000d003e008402780071
:10212000070020006a3bb9003502fb000403b10040
:1021300086034200050278001503fb000603b10088
:10214000e90f5300f7ff360097b79f000a003700ea
:102150000003eb0096b79f00a6c2b30086cf5200e3
:1021600005003a008fab97004700780087af9f00cb
:1021700090b79f000402e800e5c2b30094cf1200bc
:1021800017003a000de0a000e4c25200d4cf1200c4
:1021900003003200840278000700200009003700a5
:1021a0000fa99700c201780082af9f00d3af9f00b4
:1021b0000402e800c6c6b3000d0037006a38b90053
:1021c00080034300050278003503fb000603b100dd
:1021d000e90f5300f9ff3600d7af9f00f5ff370036
:1021e0000dc0a0008002eb00d5af9f00f1ff3700cb
:1021f00084037800b74278000702780086cf520047
:102200002d003200e79f9f00c4c6b30084cf520068
:1022100014003c006842520084cf52002400320077
:1022200009003c006c42520084cf52002f00320063
:102230006b42420084cf52009a003200e0cf52003d
:102240005b053200b700370064c6b30084cf52008c
:10225000200032006342420084cf5200b1003a00b5
:102260001300370034c7b30084cf5200230032007c
:1022700007003c006442520084cf52001800320034
:102280000442e80084cf5200a6003a00170037004d
:1022900054c7b30084cf5200a7003200634242000b
:1022a00084cf52009f003a00e5579f00110037008d
:1022b000e5579f00a2003700f0836600050120006b
:1022c00001003200050028008d827200850678002a
:1022d000c7ff3700e5579f000da0a000980037000a
:1022e000e5579f000d60a00095003700e5579f005f
:1022f0000d50a0000d70a00091003700e5579f0021
:102300000fab97004602780086af9f000404780068
:10231000e00f520001003a00089a2000880278007d
:102320000002eb00010037000402e80065437a0078
:10233000e04f5300fcff3a0084047800dfab9700c5
:10234000e08f530003003200898f530001003100f9
:10235000870478000002eb001fb09700890f50003f
:102360000100360009025000e8866600ddaf9f00dc
:102370008d007800e08f50002d003a008406780030
:1023800004c2b30010003700bc0290000504b20084
:10239000040032009c027800844a7800050ee800b0
:1023a000070037008c0078000002200084bf9f00e7
:1023b000060507000fba9700e10f40000100320048
:1023c0000e07e8008d06e900e08f5600eeff3a00a8
:1023d0000082eb0016003700bc0290000504b2003a
:1023e000090032009c0378008802780035437800a9
:1023f000864b7800070ee80005047800e04f530094
:102400000a003a000a003700880278003500fb0015
:10241000050478008c00780084bf9f00eb0407005f
:102420000fba9700e10f4000010032000e07e800ec
:10243000890278008504e900e08f5200e6ff3a0047
:102440005fa99700e00f5100d404320084067800a1
:1024500004c2b30010003700bc0290000504b200b3
:10246000040032009c027800844a7800050ee800df
:10247000070037008c0078000002200084bf9f0016
:10248000d20407000fba9700e10f400001003200ac
:102490000e07e8008d06e900e08f5600eeff3a00d7
:1024a000be0437008fa997004302780083af9f00d6
:1024b00004007800cf80de000101780082017800fe
:1024c00090af9f00a1af9f00b2af9f00c3af9f002e
:1024d0004800de00480add0000007200e0579f005f
:1024e000f082660009003200e04f50000700320021
:1024f000e14f400005003200f0579f00afd2970037
:10250000855f9f0029002000030037002fd397002c
:10251000f6579f001900200078f92f000f0444009f
:1025200086ff3700e5579f0068f92f000f0444002d
:102530001900200081ff3700e5579f000d0cb30004
:10254000047020000482660067023200040021004b
:10255000048266000200320067002000d7af9f00af
:1025600070826600090032000faa97004401be0085
:102570004400be0084af9f0090af9f00a1af9f00ba
:10258000b2af9f00c3af9f000a0037008faa970029
:102590004500be0085af9f0027fa07000002be007d
:1025a0000203be0094af9f00a5af9f00b6af9f008f
:1025b000c7af9f006022b8006033b8001fa8970023
:1025c000afa897003fa99700cfa9970039fa070055
:1025d000e00f50000a003d001fa89700afa8970029
:1025e0003fa99700cfa9970003f0a20090af9f00ea
:1025f000a1af9f00b2af9f00c3af9f003d00b300eb
:102600000002eb00d48f9f006022b8006033b80056
:102610001fa89700afa897003fa99700cfa99700e0
:1026200029fa0700e00f500034003200a4f92f000f
:102630000f0242001fa89700afa897003fa997007c
:10264000cfa9970025fa07005f8897000000e900ee
:102650006300b900a4002000110009000400d800a4
:10266000d08f9f00e00f500002003d000000e90005
:10267000d08f9f005f8c97000840ea00fdfd0700a7
:102680001faa9700afaa97003fab9700cfab970068
:1026900074f907000002be000203be0084a79f0079
:1026a00095a79f00a6a79f00b7a79f006022b8002c
:1026b0000600200007ff2300fef90700e00f50008e
:1026c00002003d000804e9000b0037006022b8005a
:1026d00006002000470224000fa097009fa097004b
:1026e0002fa19700bfa1970019fa0700e00f500033
:1026f000020035000804e800d88f9f00dfaa970089
:10270000f88f52000f003c00054078007cfd070068
:102710000002be000203be001fa89700afa89700ea
:102720003fa99700cfa997000efa07000002be004c
:102730000203be0094af9f00a5af9f00b6af9f00fd
:10274000c7af9f005f8c9700e90f540015003c0055
:102750006022b8006033b8001fa89700afa89700a8
:102760003fa99700cfa99700d7f90700e00f5000c5
:10277000320032001fa89700afa897003fa997002a
:10278000cfa9970074fa0700e00f5000e08f5800bf
:10279000e00f5900e08f590028003a00e10f540083
:1027a000260034000400200005002e00b6e02200c0
:1027b000170124000fa097009fa097002fa197005a
:1027c000bfa19700bbf90700e00f500002003d00d9
:1027d000730454000100370072045400d88f9f0026
:1027e0002f589700a3fd07000002be000203be00a1
:1027f00084a79f0095a79f00a6a79f00b7a79f004b
:102800001fa89700afa897003fa99700cfa99700ee
:1028100082fa070050fa07000205be000004be005d
:102820006000b8006011b80090af9f00a1af9f009a
:10283000b2af9f00c3af9f00170037001fa89700db
:10284000afa897003fa99700cfa9970042fa0700c9
:102850000205be000004be00cafa07000002be0066
:102860000203be001fa89700afa897003fa99700da
:10287000cfa99700eefa07000002be000203be00d7
:1028800094af9f00a5af9f00b6af9f00c7af9f005a
:102890000002eb00d48f9f00019b200010c0b3000a
:1028a000080037003102be003103be000440e100e1
:1028b00005c8e10006d0e10007d8e10003003900b7
:1028c0000040e800f44f5000f6ff3a00e0579f0048
:1028d0005f8a97009fb29700048252005fab970017
:1028e000060252000000fb000000520090b79f005b
:1028f000e00f5300020032000000e90090b79f0093
:1029000063826600030032009fb397008703e900eb
:1029100097b79f00648266004500320062826600bd
:10292000e1826600e00f5200110032003c0290008c
:102930000404b200080032001c037800b4c2b300e3
:10294000e08f52000100320004c2e800044b78001e
:10295000060ee80015003700b0022000e08f52009c
:10296000010032000080e8008c0078000c00370085
:10297000e08f5200200032003c0290000404b200bc
:10298000050032009c02780004c2b300844a78003b
:10299000050ee800050037008c00780000022000da
:1029a0008a030700e10f4000130032000e07e80021
:1029b000110037003c0290000404b2000400320011
:1029c0001c027800054a7800040ee8000700370072
:1029d0008c00780000032000f5b79f007b03070000
:1029e000ffb29700e10f4000010032000e07e8003f
:1029f0008904e9000600370005c3b300c8a79f009b
:102a0000d9a79f00eaa79f00fba79f009fb497004c
:102a1000e08f5400e7ff3c0099b79f004fa4970058
:102a2000dfa497006fa59700ffa597006f00370000
:102a3000688266001f003a00110037003c029000d7
:102a40000404b200040032001c027800054a780039
:102a5000040ee800070037008c0078000002200018
:102a6000f5b79f0059030700ffb29700e10f400040
:102a7000010032000e07e8008904e9000600370073
:102a800005c2b300c8a79f00d9a79f00eaa79f006f
:102a9000fba79f009fb49700e08f5400e7ff3c0026
:102aa00099b79f004fa49700dfa497006fa59700e8
:102ab000ffa5970062826600e1826600e00f520087
:102ac000110032003c0290000404b2000800320001
:102ad0001c037800b4c2b300e08f52000100320042
:102ae00004c2e800044b7800060ee8003e00370000
:102af000b0022000e08f5200010032000080e800a8
:102b00008c00780035003700e08f5200370032002b
:102b10003c0290000404b200050032009c027800e0
:102b200004c2b300844a7800050ee8002e00370086
:102b30008c00780000022000280037003c02900042
:102b40000404b2008502fb00e00f520013003200c3
:102b50009c007800c1a79f00c32add00829a200054
:102b6000850241005503be004502be000800be00bc
:102b70000a01be00aafa0700a400200005002000f8
:102b80006033b800adfa070005c3b3004fa2970049
:102b9000054a4000040ee80013003700c32add0098
:102ba000869a2000850243005503be004502be0000
:102bb0000800be000a01be0099fa0700a400200028
:102bc000050020006033b8009cfa070004032000d1
:102bd000000242008c00780004007800fb0207002d
:102be000e10f4000010032000e07e8006f5297002d
:102bf0008442e900e5579f00e04f5200cfff3a00c2
:102c0000110037003c0290000404b20004003200be
:102c10001c027800084a7800040ee800050037001e
:102c20008c00780000032000e8020700e10f40005c
:102c3000010032000e07e8005f8a97000402e900f5
:102c4000d48f9f000100370008c3b3005f8a97004c
:102c5000e00f5200ebff3c00dfab9700f28f530018
:102c60000300340024c1b300e4579f000200370082
:102c70002fd89700e0579f006f5297008402fb0007
:102c8000dfa8970085825000c5a79f00e04f520043
:102c90000e0032003c0290000404b2000500320035
:102ca0001c027800e5c2b300054a7800040ee80073
:102cb000050037008c007800e0022000c302070006
:102cc000e10f4000010032000e07e8006f5097004e
:102cd00068fc07000002be000203be001fa89700a8
:102ce000afa897003fa99700cfa99700ddf707008d
:102cf00019f90700360037003c0290000404b200c6
:102d00008502fb00e00f5200130032001c01780026
:102d1000d2af9f00c32add00839a20008582410044
:102d20005503be004502be000800be000a01be00f9
:102d30003bfa0700a4002000050020006033b80023
:102d40003efa070005c3b3005faa9700054a40009a
:102d5000040ee80013003700c32add00869a200025
:102d6000850243005503be004502be000800be00b8
:102d70000a01be002afa0700a40020000500200076
:102d80006033b8002dfa070004032000000242005f
:102d90008c007800040078008c020700e10f4000ee
:102da000010032000e07e800ef5397000702fb0016
:102db0004322dd00809a2000040240005403be003c
:102dc0004402be000800be000a01be001bfa070054
:102dd0000205be000004be006f5297008442e90065
:102de000e5579f00e04f5200c3ff3a001100370043
:102df000bc0290000504b200040032009c0278007e
:102e0000844a7800050ee800070037008c0078003f
:102e10000003200084bf9f006c0207000fba9700d8
:102e2000e10f4000010032000e07e8008904e900cc
:102e30000600370004c3b300d0af9f00e1af9f008e
:102e4000f2af9f0083b79f00cfa49700e08f54009c
:102e5000e7ff3a005fac9700efac97007fad9700bb
:102e60008fb59700e88666004c0232009fb097004d
:102e7000e08f5000490234000dc2b3000802be00ca
:102e80000a03be00810478003c0090000004b200f8
:102e9000040032001c0078000d487800000ee800a5
:102ea0000d0037008c0078000002200084bf9f00d6
:102eb000f5b79f00d6b79f00e7b79f004302070012
:102ec0000fba9700ffb297005fb39700efb3970078
:102ed000e10f4000010032000e07e8008904e9001c
:102ee000e9ff3a002d0237008d027800050cb20090
:102ef0002a003a00e08f560005003d000fa9970018
:102f00004205be004204be0082af9f00160037009b
:102f1000708266000e0032000fab97004602be00c2
:102f200086af9f00c4979f00d5979f001602900020
:102f30004fa2de00e4979f00f4979f004f94970004
:102f4000df9497006f959700ff9597000600370074
:102f50000fa897004004780080af9f00cfc4de0028
:102f6000090578008a057800e00f5400e08f5c00c6
:102f7000e00f5d00e08f5d0023003d003d00b300e9
:102f80006022b8006033b8000804520089845a00f7
:102f90000a055b008b855b001b003700e08f560045
:102fa00005003d008fa897004105be004104be000a
:102fb00081af9f0014003700f08266000c003200e1
:102fc0008faa97004501be0085af9f0082979f00a2
:102fd00093979f00a4979f00b4979f000f9497002a
:102fe0009f9497002f959700bf9597000600370094
:102ff0008fab97004704780087af9f00090020003f
:103000000a0020000b0020005fa89700e00f50008e
:1030100009003a0011002000d1af9f00e00f5400da
:10302000e08f5c00e00f5d00e08f5d000200320089
:103030000001eb00d2af9f008d017800030cb200bd
:1030400093af9f0004042000848f51002c003200b5
:1030500003003c00e08f5100080032003c003700c4
:10306000040820009faa9700848f520010003200ad
:10307000040c2000848f520035003a00059b20008c
:1030800014c0b3003500be003501be000040e100b1
:1030900001c8e10002d0e10003d8e1002b003900b3
:1030a0000442e800f44f5200f6ff3a0027003700d0
:1030b00014c0b30000012000010020006011b8001e
:1030c0000040e10001c8e10002d0e10003d8e100c6
:1030d0001e003900460020000000d0008180d20090
:1030e0000281d2008381d2000603e900faff3a0090
:1030f0000442e800f04f5200f1ff3a00130037009d
:1031000014c0b30080002000010020006011b8004e
:103110000040e10001c8e10002d0e10003d8e10075
:103120000a003900370020000000d0008180d20062
:103130000281d2008381d2008703e900faff3a00be
:103140000442e800f54f5200f1ff3a00e4579f00b7
:103150006f5097000002fb00dfa89700810f52001c
:1031600002003d00e1579f00040037005fa997006f
:10317000840f510001003d00d4af9f009fb1970024
:10318000e08f5100040032006382660002003200ca
:103190008301e90093b79f000400240004826600c5
:1031a000090032001fb29700dfaa9700850f520076
:1031b000030034000502520094b79f00020037005c
:1031c0000003eb0096b79f00ef5397000702fb0048
:1031d0000000eb00c0a79f009fb09700848f5000b5
:1031e0000200340004825000c4a79f00648266007d
:1031f00045003200e282660061826600e08f520084
:1032000011003200bc0290000504b2000800320038
:103210009c027800b6c2b300e00f520001003200f9
:1032200006c3e800864a7800050ee800150037005e
:10323000b0022000e00f5200010032000080e800e0
:103240008c0078000c003700e00f52000e003200b6
:103250003c0290000404b200050032001c02780019
:1032600005c2b300054a7800040ee80005003700e7
:103270008c0078000002200054010700e10f40009c
:10328000010032000e07e8004fa19700e00f510047
:103290006300320004c3b30098b79f00a9b79f0032
:1032a000bab79f00cbb79f00cfa49700bc02900095
:1032b0000504b200040032009c027800844a7800c1
:1032c000050ee800070037008c007800000320009e
:1032d00084bf9f003d0107000fba9700e10f400037
:1032e000010032000e07e8008904e900efff3a0010
:1032f000c9a79f001fb49700afb497003fb59700d0
:10330000cfb5970046003700cfa09700e08f500060
:103310001e003200688266001c003a0004c2b3003e
:1033200098b79f00a9b79f00bab79f00cbb79f007f
:10333000cfa49700bc0290000504b2000400320044
:103340009c027800844a7800050ee80007003700e8
:103350008c0078000002200084bf9f001b01070042
:103360000fba9700e10f4000010032000e07e8009d
:103370008904e900efff3a00c9a79f001fb4970036
:10338000afb497003fb59700cfb59700e2826600d3
:1033900061826600e08f520011003200bc02900092
:1033a0000504b200080032009c027800b6c2b300e7
:1033b000e00f52000100320006c3e800864a7800a0
:1033c000050ee80015003700b0022000e00f5200a3
:1033d000010032000080e8008c0078000c0037000b
:1033e000e00f52000e0032003c0290000404b200d4
:1033f000050032001c02780005c2b300054a7800bf
:10340000040ee800050037008c0078000002200060
:10341000ee000700e10f4000010032000e07e80057
:10342000dfa897000102e9004221dd00929f9f0082
:103430006323b90086017800839f9f004322dd004b
:10344000859a200085024200f59f9f0070826600e9
:10345000f48f9f008d0278000502b200e58f9f0077
:1034600098b79f00a9b79f00bab79f00cbb79f003e
:10347000a3003700dfa897008100e900d1af9f00cb
:103480001fa9970003042000830f5100730032002e
:1034900003003c00e00f5100080032007e003700be
:1034a000040820009faa9700848f52005600320023
:1034b000040c2000848f520077003a00e08f560001
:1034c0001f003d007f9b97003604be002605be000e
:1034d0000802be000a03be001fb09700afb09700fd
:1034e0003fb19700cfb197004df80700e0579f001c
:1034f0000000fb00cf80de0001017800820178002f
:103500000802be000a03be00d1f807001fb29700f0
:10351000afb297003fb39700cfb3970000025200bd
:1035200081825a0002035b0083835b0094b79f0093
:10353000a5b79f00b6b79f00c7b79f002e00370002
:10354000ff8a9700e08f5200220032001fb29700de
:10355000afb297007f9b97003604be002605be00e1
:103560000801be000400be0084bf9f00f5b79f00a5
:10357000e0f80700e0579f000000fb00cf80de006e
:103580000801be00ebf807000fba9700ffb29700e2
:103590000001520081815a00a29f9f00b39f9f00ab
:1035a0008001eb00c39f9f000002eb00d49f9f00af
:1035b0002f989700bf9897004f999700df99970031
:1035c00090b79f00a1b79f00b2b79f00c3b79f00fd
:1035d00009003700ff989700110278001fb197008b
:1035e000110009000481d800a40020001100090086
:1035f0000480d800e1579f00ef5197000343b000cb
:10360000e3579f0024003700f4982000ef8a9700ca
:10361000e08f520001003200e49720001fb09700b5
:10362000afb097003fb19700cfb197001f9b9700b5
:103630000603e900050033008301d1000281d300b5
:103640008180d3000080d300f9ff37006f00600055
:1036500064407800e0579f000f0037001fb29700ca
:10366000afb297003fb39700cfb397000f98970082
:103670000000e900050033008703d1000683d30072
:103680008582d3000482d300f9ff370067426200cd
:103690000443b000e4579f003c0290000404b200d1
:1036a000070032009c0278006f529700844a78002d
:1036b000050ee800e04f520007003a00070037000f
:1036c000ef5097000100fb008c0078003f000700de
:1036d000e10f4000010032000e07e8001f9997003b
:1036e00064015100929f9f008f999700e3815100e0
:1036f000839f9f007f9a970068025200f49f9f006b
:10370000dfaa9700e08f52005aff3a001fb49700db
:10371000afb497003fb59700cfb59700e886660035
:103720001e0032004fa39700e00f53001b0034002f
:103730000dc2b3000802be000a03be00cfa497006a
:103740003c0090000004b200040032001c0078002d
:103750000d487800000ee8000d0037008c0078005e
:103760000002200084bf9f00f5b79f00d6b79f00de
:10377000e7b79f00150007000fba9700ffb2970048
:103780005fb39700efb39700e10f400001003200f4
:103790000e07e8008904e900e9ff3a00ef9b970073
:1037a00017407800e0579f00e04f500021fa3a00a0
:1037b0000e0078004f0778004f06be004f05be0090
:1037c0004f04be00ef05b10000000600889fbe0058
:1037d0000104780038029000e20262008084eb006d
:1037e0003b003200040378000620b20098029000eb
:1037f00002003a00e08f520035003a000490a00029
:103800003404980080047800f90fb200e08f520071
:1038100002003a00a8029000050c7800ea8f5400dc
:1038200005003a000408b20003003a00880078005e
:10383000d0002000e5ff070018029000d802900099
:10384000850f52000b0032000402e80014049800b7
:1038500018027800094a7800040ce80015c0b3008b
:10386000e4a62000054a7800ea8f540018003a00c8
:10387000050037008800780009407800170007002d
:103880008004780012003700380290000410b20063
:103890000f00320018019000a8009000480090002e
:1038a0002ef3070018029000840f5000040032002d
:1038b000380290000403b300340498008084eb00c5
:1038c0000002eb001404980028029000040c780019
:1038d000090078004f04be00000006000200fa0054
:1038e000889fbe00a0ff9f0001047800380290006e
:1038f000840278000504b200020032000000fb00e0
:1039000035003700e202620005003a000403b3000c
:1039100034049800150498000080eb002e00370056
:10392000d8049000e08f540006003a0012002000f6
:10393000e68057004800900008f30700190498003b
:1039400023003700a8029000e08f520008003a00e0
:1039500015a7200025049800050c780025002000fc
:1039600055049800150498000430a0003404980011
:1039700018019000a800900048009000f7f207009e
:10398000280290008082eb0015049800affa97009f
:10399000054a7800040ce8002ffa9700ea4f52001d
:1039a0000b003a00380290000410b2000800320008
:1039b00018019000a800900048009000e7f207006e
:1039c0000002eb0014049800a8029000050c780097
:1039d0002ffa97000400fb004f04be000080fa009d
:0439e00000000600dd
:020000040000fa
:020000040001f9
:0457f800ad7b000085
:020000040000fa
:020000040001f9
:0457fc003f3f00002b
:020000040000fa
:10000800a6020000a6020000a6020000a602000048
:10001800a6020000a6020000a6020000a602000038
:10002800a6020000a6020000a6020000a602000028
:10003800a6020000a6020000a6020000a602000018
:10004800a6020000a6020000a6020000a602000008
:10005800a6020000a6020000a6020000a6020000f8
:10006800a6020000a6020000a6020000042200006a
:10007800a6020000a6020000a6020000a6020000d8
:10008800a6020000a6020000a6020000a6020000c8
:10009800a6020000a6020000a6020000a6020000b8
:1000a800a6020000a6020000a6020000a6020000a8
:1000b800a6020000a6020000a6020000a602000098
:1000c800a6020000a6020000a6020000a602000088
:1000d800a6020000a6020000a6020000a602000078
:1000e800a6020000a6020000a6020000a602000068
:1000f800a6020000a6020000a6020000a602000058
:10010800a6020000a6020000a6020000a602000047
:10011800a6020000a6020000a6020000a602000037
:10012800a6020000a6020000a6020000a602000027
:10013800a6020000a6020000a6020000a602000017
:10014800a6020000a6020000a6020000a602000007
:10015800a6020000a6020000a6020000a6020000f7
:10016800a6020000a6020000a6020000a6020000e7
:10017800a6020000a6020000a6020000a6020000d7
:10018800a6020000a6020000a6020000a6020000c7
:10019800a6020000a6020000a6020000a6020000b7
:1001a800a6020000a6020000a6020000a6020000a7
:1001b800a6020000a6020000a6020000a602000097
:1001c800a6020000a6020000a6020000a602000087
:1001d800a6020000a6020000a6020000a602000077
:1001e800a6020000a6020000a6020000a602000067
:0801f800a6020000a6020000af
:020000040000fa
:10020800a6020000a6020000a6020000a602000046
:10021800a6020000a6020000a6020000a602000036
:10022800a6020000a6020000a6020000a602000026
:10023800a6020000a6020000a6020000a602000016
:10024800a6020000a6020000a6020000a602000006
:10025800a6020000a6020000a6020000a6020000f6
:10026800a6020000a6020000a60200000422000068
:10027800a6020000a6020000a6020000a6020000d6
:10028800a6020000a6020000a6020000a6020000c6
:10029800a6020000a6020000a6020000a6020000b6
:1002a800a6020000a6020000a6020000a6020000a6
:1002b800a6020000a6020000a6020000a602000096
:1002c800a6020000a6020000a6020000a602000086
:1002d800a6020000a6020000a6020000a602000076
:1002e800a6020000a6020000a6020000a602000066
:1002f800a6020000a6020000a6020000a602000056
:10030800a6020000a6020000a6020000a602000045
:10031800a6020000a6020000a6020000a602000035
:10032800a6020000a6020000a6020000a602000025
:10033800a6020000a6020000a6020000a602000015
:10034800a6020000a6020000a6020000a602000005
:10035800a6020000a6020000a6020000a6020000f5
:10036800a6020000a6020000a6020000a6020000e5
:10037800a6020000a6020000a6020000a6020000d5
:10038800a6020000a6020000a6020000a6020000c5
:10039800a6020000a6020000a6020000a6020000b5
:1003a800a6020000a6020000a6020000a6020000a5
:1003b800a6020000a6020000a6020000a602000095
:1003c800a6020000a6020000a6020000a602000085
:1003d800a6020000a6020000a6020000a602000075
:1003e800a6020000a6020000a6020000a602000065
:0803f800a6020000a6020000ad
:020000040000fa
:1039e400253300002e30000066000000256400002e
:0c39f40000000000424300000000000042
:020000040000fa
:103a00000e00fa000400200005f82300048fbe0019
:103a10000002eb0024079800c902a900c942a900ce
:103a2000c922a900c962a900c802a8002c43a900a4
:103a3000c002a8002c03a900c022a8002c23a900c2
:103a4000c842a8002c83a900c8a2a8006360a800ef
:103a50008660a9009660a8000002eb001419880097
:103a60001410200024198800440e22000419880034
:103a70000002eb00441988000002eb008419880062
:103a800085a0a90021e3a800ac0507006000b800ec
:103a90008902070001003700000000000002eb006f
:103aa00044198800800c2000560507000000000023
:103ab0000419800061026200e00f5200fcff320036
:103ac00004188000050020000400be00d3f20700a7
:103ad0000002be0024408800354088001400200009
:103ae00044198800800c20004605070000000000f3
:103af0000419800061026200e00f5200fcff3200f6
:103b000004188000050020000400be00c3f2070076
:103b10000002be00044088001540880044002000d8
:103b200044198800800c20003605070000000000c2
:103b30000419800061026200e00f5200fcff3200b5
:103b400004188000050020000400be00b3f2070046
:103b50000002be0044408800554088004440800078
:103b60005540800066034700849fbe0024cf290093
:103b7000841f7800060078004bf80700e68757009e
:103b80002400200044198800800c20001d05070037
:103b9000000000000419800061026200e00f520082
:103ba000fcff320004188000050020000400be0065
:103bb0009af207000002be00644088007540880049
:103bc000644080007540800066034700849fbe000b
:103bd00024cf2900841f78000600780032f80700ff
:103be000e68757008040eb000040eb00930507009c
:103bf00000c2b300a2050700660247000400780077
:103c0000a8050700b540800066024700851f7800c0
:103c100085cf2900851f78000400780022f807006e
:103c2000e4875700664080007740800004812000d0
:103c3000a3812000828120000600be00f802070058
:103c4000b44080006123b90014002000050020006a
:103c50000602420087824a0066002000070020001a
:103c6000860f5200878f5a008bff3e0004600100d0
:103c700078003700050037001000370027003700b4
:103c8000400037005d0037006100370024408000ad
:103c90003540800046408000574080000040800052
:103ca000114080000601be0021020700800c2000a8
:103cb000d4040700790007007700370045368000fc
:103cc00004fe2f00048262004436880045368000de
:103cd000f40f2e008482620004202100050272008d
:103ce0004436880055368000f40f2e0004826200ae
:103cf000543688005536800004fe2f00048262008e
:103d00003401b30054368800441522000400010039
:103d10000002eb00b44088005f00370084192200e5
:103d20000400010044002000c440880045368000a3
:103d300004fe2f000482620044368800453680006d
:103d4000f40f2e008482620004202100050272001c
:103d50004436880055368000f40f2e00048262003d
:103d6000543688005536800004fe2f00048262001d
:103d70003401b3005436880034002000b440880079
:103d800045003700244080003540800046408000d8
:103d90005740800000408000114080000601be00b6
:103da000e3010700800c20009604070045368000e0
:103db00004fe2f00048262004436880045368000ed
:103dc000f40f2e008482620004202100050272009c
:103dd0004436880055368000f40f2e0004826200bd
:103de000543688005536800004fe2f00048262009d
:103df0003401b300543688002700370064172200ce
:103e00000400010034002000b44088002200370084
:103e10004536800004fe2f0004826200443688008c
:103e200045368000f40f2e0004826200443688007c
:103e300055368000f40f2e0004826200543688004c
:103e40005536800004fe2f0004826200543688003c
:103e5000110037004536800004fe2f000482620006
:103e60004436880045368000f40f2e00048262003c
:103e70004436880055368000f40f2e00048262001c
:103e8000543688005536800004fe2f0004826200fc
:103e9000543688000000000000ff37000000fa00e0
:103ea000881f7800a4408000e00f520029003a00eb
:103eb000044080001540800018c0b30002002800b4
:103ec000933824000400be00d6f1070000027800f9
:103ed000e00f5200010035000044eb00e04f5400b9
:103ee0001c003200244080003540800018c0b30020
:103ef00002002800933824000400be00c9f1070026
:103f000000027800e00f5200010035000044eb0091
:103f1000e04f54000f0032004440800055408000c4
:103f200018c0b30002002800933824000400be002b
:103f3000bcf1070000027800e00f520001003500dc
:103f40000044eb00e04f5400020032001400200057
:103f5000a4408800a4408000e10f52002a003a00eb
:103f6000044080001540800018c0b300020020000b
:103f7000a33f24000400be00acf10700000278005b
:103f8000e00f520001003c000044eb00e04f540001
:103f90001d003200244080003540800018c0b3006e
:103fa00002002000a33f24000400be009ff1070090
:103fb00000027800e00f520001003c000044eb00da
:103fc000e04f540010003200444080005540800013
:103fd00018c0b30002002000a33f24000400be006c
:103fe00092f1070000027800e00f520001003c004f
:103ff0000044eb00e04f5400030032002400200096
:10400000b44088002c003700a4408000e10f52002b
:1040100029003a00044080001540800018c0b30019
:1040200002002800933824000400be007df1070040
:1040300000027800e00f5200010035000044eb0060
:10404000e04f54001c0032002440800035408000c6
:1040500018c0b30002002800933824000400be00fa
:1040600070f1070000027800e00f520001003500f7
:104070000044eb00e04f54000f0032004440800049
:104080005540800018c0b300020028009338240077
:104090000400be0063f1070000027800e00f520048
:1040a000010035000044eb00e04f540002003200f4
:1040b0000002eb00a4408800040078004f04780060
:1040c0000080fa00000006000000fa00881f780057
:1040d000044080001540800018c0b300020020009a
:1040e000a33f24000400be0050f107000002780046
:1040f000e00f520001003c000044eb00e04f540090
:104100001c003200244080003540800018c0b300fd
:1041100002002800933824000400be0041f107008b
:1041200000027800e00f5200010035000044eb006f
:10413000e04f54000f0032004440800055408000a2
:1041400018c0b30002002000a33f24000400be00fa
:1041500036f1070000027800e00f520001003c0039
:104160000044eb00e04f5400020032001400200035
:10417000a4408800a4408000e10f52002a003a00c9
:10418000044080001540800018c0b30002002000e9
:10419000a33f24000400be0024f1070000027800c1
:1041a000e00f520001003c000044eb00e04f5400df
:1041b0001d003200244080003540800018c0b3004c
:1041c00002002000a33f24000400be0017f10700f6
:1041d00000027800e00f520001003c000044eb00b8
:1041e000e04f5400100032004440800055408000f1
:1041f00018c0b30002002000a33f24000400be004a
:104200000af1070000027800e00f520001003c00b4
:104210000044eb00e04f5400030032005400200043
:10422000b44088001c003700044080001540800026
:1042300018c0b30002002800933824000400be0018
:10424000f8f0070000027800e00f5200010035008e
:104250000044eb00e04f54000d003a004440800061
:104260005540800018c0b300020028009338240095
:104270000400be00ebf0070000027800e00f5200df
:10428000010035000044eb00e04f54000200320012
:104290000002eb00a4408800040078004f0478007e
:1042a0000080fa00000006000200fa00f03f200043
:1042b0009f0007000002eb00040f78000002eb00f3
:1042c000040f780003003700800c20004d03070026
:1042d0001e0fe800f47c20009e027800848f5200bc
:1042e000f9ff34000080fa00000006000200fa0026
:1042f0000000eb008e0007000002eb00040f7800c6
:104300000002eb00040f780003003700800c20004f
:104310003c0307001e0fe800f47c20009e0278009a
:10432000848f5200f9ff34000080fa00000006007c
:104330000200fa00881f78004536800004fe2f0036
:10434000048262002401b3004436880045368000b0
:10435000f40f2e0004826200443688005536800037
:10436000f40f2e0004826200543688005536800017
:1043700004fe2f00048262003401b300543688002a
:104380000001eb008125200060222000680007006a
:104390000002eb00040f78000002eb00040f78002d
:1043a00010003700800c2000160307002440800016
:1043b0003540800018c0b300020028009338240064
:1043c0000400be0097f0070000027800e00f5200e2
:1043d000010035000044eb00e04f540006003a00b5
:1043e0001e0fe800743e20009e027800848f520069
:1043f000ecff340001003700000000004f0478009b
:104400000080fa0000000600801f7800849fbe0034
:104410003400f80000002000a00188000000fa002d
:104420008660a90055168000040220000482620004
:10443000e00f52001b003a00b4408000e10f420040
:1044400016003a000002eb00b440880045368000b8
:1044500004fe2f0004826200443688004536800046
:10446000f40f2e00848262000420210005027200f5
:104470004436880055368000f40f2e000482620016
:10448000543688005536800004fe2f0004826200f6
:104490003401b30054368800020037000082eb007c
:1044a000b44088000080fa003400f9004f02be00da
:1044b0004f007800004006000400fa00008fbe00a4
:1044c0000002eb00140c88000002eb00040c8800d2
:1044d0008461a800240c80000400a1000410a00046
:1044e0000420a000240c88000002eb00440c88008b
:1044f0000002eb00340c88008a61a800540c800094
:104500000400a1000410a0000420a000540c8800a6
:104510000002eb0054088800440020007408880062
:1045200004032800940888000080fa0000000600b8
:104530002600fa00881f7800500f9800610f98003d
:10454000720f980003179800141798002517980009
:104550006022b800048fbe006022b80024079800d3
:10456000350798006022b800440798005507980066
:104570006022b80064079800750798000002eb00fd
:10458000040f980018c0b30002002000a33f2400cd
:104590001e109000ae10900024f00700000278007a
:1045a000e00f520001003c000044eb00e04f5400db
:1045b0001800320018c0b30002002000a337240006
:1045c0007e0890008e10900018f00700000278001e
:1045d000e00f520001003c000044eb00e04f5400ab
:1045e0000c00320018c0b300020020006339240020
:1045f0005e089000ee0890000cf0070000027800c2
:10460000e00f520001003c000044eb00e04f54007a
:104610007f003a0018c0b30002002000f33a2400e3
:104620001e109000ae109000feef07000002780010
:10463000e00f5200010035000044eb00e04f540051
:10464000090032000400280095402400740f9800ef
:10465000051798000400200065412400540f9800bd
:10466000650f98002000370018c0b300020020003a
:10467000833424007e0890008e109000e9ef07003c
:1046800000027800e00f5200010034000044eb000b
:10469000e04f540004003200040020006531240083
:1046a000740f98000517980018c0b300020020008e
:1046b000a33724005e089000ee089000d9ef0700b1
:1046c00000027800e00f5200010034000044eb00cb
:1046d000e04f540004003200040020008534240020
:1046e000540f9800650f98000200200063312400e9
:1046f0007e0890008e109000ceef07000002be00f2
:104700006266260063f223000400be0027f0070063
:104710000002be0002002c00f33f24000400be0093
:1047200056f007000002be003233230033eb2300b3
:104730000400be00c0ef07000002be00640798003e
:104740007507980002002000833424005e08900062
:10475000ee089000b7ef07000002be00a299290002
:1047600093f123000400be0010f007000002be0019
:1047700002002c00f33f24000400be003ff00700bd
:104780000002be00d2cc2c00c3ec23000400be000b
:10479000a9ef07000002be004407980055079800e3
:1047a00002002000030824004e009000de0090006c
:1047b000feef07000002be00048fbe001e00be0018
:1047c00070f007000002be0004027800040c8800ac
:1047d00002002000030824006e009000fe009000fc
:1047e000f2ef07000002be0024079800350798008a
:1047f0002e009000be00900062f007000002be0094
:1048000004027800340c880000000000010037002a
:10481000000000004f0478000080fa00000006004d
:104820001400fa00881f780050079800610798006c
:1048300072079800030f9800140f98000002eb0015
:10484000040f78007e02900014027800e20f42000c
:1048500003003200e10f4200110032006f00370008
:1048600018c0b30002002000031224005e00900074
:10487000ee0090006bef070000027800e00f52009e
:10488000010034000044eb00e04f5400f20032001d
:104890007e0290008082eb00050a7800f500370068
:1048a0001e0a90001402be0018c0b3005e01900002
:1048b000ee0190000400be005aef070000027800ed
:1048c000e00f5200010035000044eb00e04f5400bf
:1048d000040032001e0a90005e039000ee03900078
:1048e000068abe001e0a90001402be0018c0b30063
:1048f00002002000832224000400be004bef0700ca
:1049000000027800e00f520001003d000044eb007f
:10491000e04f54000f003200410207008040eb00de
:1049200010c0b30045020700c0cf29005d02070098
:10493000a0c3b300520207007e0290008002eb0089
:10494000050a78001e0b90006022b800048bbe00a0
:10495000c800370018c0b300020020000312240072
:104960005e009000ee0090002eef0700000278003d
:10497000e00f5200010034000044eb00e04f54000f
:10498000b70032001e0a90001402be0018c0b30027
:1049900002002000832224000400be0021ef070053
:1049a00000027800e00f5200010035000044eb00e7
:1049b000e04f5400ac0032001e0a90001402be000a
:1049c00018c0b30002002000831c24000400be00b5
:1049d00016ef070000027800e00f520001003d00d2
:1049e0000044eb00e04f5400a10032001e0b900089
:1049f0006022b800048bbe000e0b9000040028005b
:104a0000b54b2400048bbe00050207007e02900017
:104a1000e5ff2f00050a78009600370018c0b300a4
:104a200002002000832224005e009000ee0090002f
:104a3000feee070000027800e00f520001003c008b
:104a40000044eb00e04f5400190032000e0a9000c1
:104a50001402be0018c0b30002002000a3472400c7
:104a60000400be00f1ee070000027800e00f5200e3
:104a700001003d000044eb00e04f54000c00320008
:104a80007e029000940278007e029000050a780071
:104a90000e0b900004002800b54b2400048bbe00d0
:104aa0001e0b90006022b800048bbe005a00370035
:104ab0000e0a90001402be0018c0b3005e01900000
:104ac000ee0190000400be00d8ee0700000278005e
:104ad000e00f520001003c000044eb00e04f5400a6
:104ae000050032000e0a90005e039000ee03900075
:104af000068abe004800370018c0b300020020003c
:104b0000832224005e009000ee009000c7ee0700b4
:104b100000027800e00f520001003d000044eb006d
:104b2000e04f54003c0032007e02900014027800f6
:104b300004427800634242008440780010c0b30011
:104b4000be0107000e0a90001402be0018c0b30098
:104b500002002000031224000400be00b1ee070092
:104b600000027800e00f5200010034000044eb0026
:104b7000e04f54000300320000c3b300c00107003f
:104b80001c0037000e0a90001402be0018c0b300cb
:104b900002002000031224000400be00a3ee070060
:104ba00000027800e00f520001003c000044eb00de
:104bb000e04f54000f0032000e0a90001402be00b5
:104bc00018c0b30002002000832224000400be00ad
:104bd00094ee070000027800e00f5200010035005b
:104be0000044eb00e04f54000200320010c3b30059
:104bf000a30107007e029000140278008402e800fe
:104c00007e029000050a78000e0b90000400280038
:104c1000b54b2400048bbe007e0290001402780085
:104c2000e40f520007003a007e029000e5ff2f00db
:104c3000050a78000e0b900004002800b54b2400f4
:104c4000048bbe001e0b90006022b800048bbe00d7
:104c500000000000070037000000000005003700da
:104c600000000000030037000000000001003700d2
:104c7000000000004f0478000080fa0000000600e9
:020000040000fa
:104c8000160800000800000002000000fffffe0000
:104c9000ff008000bb440000000800001600000078
:104ca000000000007e090000ca00000002000000b1
:104cb0003031320033343500363738003941420064
:104cc000434445004600300031323300343536006d
:104cd00037383900616263006465660000286e0041
:104ce000756c6c002900000001000000000000004d
:104cf00000000a0000000000000000000064000046
:104d00000000000000000000e803000000000000b8
:104d100000001000270000000000000000a0860036
:104d2000010000000000000040420f0000000000f1
:104d30000000800096980000000000000000e100e4
:104d4000f50500000000000000ca9a003b000000ca
:104d500000000000e40b5400020000000000e80026
:104d600076481700000000000010a500d4e80000fd
:104d700000000000a0724e00180900000000400072
:104d80007a10f3005a0000000080c600a47e8d0057
:104d90000300000000c16f00f28623000000000045
:104da0008a5d78004563010000006400a7b3b60087
:104db000e00d000000e889000423c7008a0000001d
:104dc0001e0800006001000002000000000000005a
:104dd00000000000f03f0000000000000000240080
:104de00040000000000000000059400000000000ea
:104df000000040008f400000000000000088c30059
:104e000040000000000000006af8400000000000c0
:104e1000008084002e41000000000000d0126300da
:104e20004100000000008400d7974100000000000e
:104e30000065cd00cd410000000020005fa0020011
:104e40004200000000801d00af154400000000007b
:104e500040593e0029460000000000000000f0001c
:104e60007f0000000000000000f07f000000000054
:104e700000000000f07f0000000000000000f000d3
:104e80007f0000000000000000f07f000000000034
:104e900000000000f07f0000000000000000f000b3
:104ea0007f0000000000000000f07f000000000014
:104eb00000000000f07f0000000000000000f00093
:104ec0003f00000000a0990099b93f0000000000d9
:104ed00040e17a00843f00000000e0004d62500095
:104ee0003f00000000e0e200361a3f000000000032
:104ef00080b5f800e43e00000000a000f7c6b00056
:104f00003e00000000a0f200d77a3e000000000042
:104f1000e08e7900453e00000000e0000b2e1100fd
:104f20003e00000000e0df007cdb3d0000000000f0
:104f300000a19c00c73b0000000000004c48b400ea
:104f400039000000000020006ca1370000000000c4
:104f50000000000000000000000000000000000051
:104f60000000000000000000000000000000000041
:104f70000000000000000000000000000000000031
:104f80000000000000000000000000000000000021
:104f90000000000000000000000000000000000011
:104fa00000000000480a0000260000000200000087
:104fb0006f0a0000006f0a000900000000020000f4
:104fc000710a000000710a000e02010000000000da
:104fd00000000000000000000602020000000000c7
:104fe000480a00006e0a00000600000000000000f1
:104ff000740a00000200000002000000010000002e
:0450000000000000ac
:020000040000fa
:105004000200fa00000f78000401280084088800d8
:105014000002eb00340888001e02780004024200fb
:105024000402e9006408880084e0a900000000008c
:10503400250480000408200004826200e00f52006e
:10504400fbff320011e1a90084e0a9000080fa000e
:10505400000006000400fa00004f780011079800d1
:105064009e42780061c262000482fb006102620019
:105074004722dd0066168000f5f72f0085026300e5
:1050840005027200641688001e009000dcff070011
:10509400ccc2a8001e009000d9ff0700ccc2a90012
:1050a4001e009000d6ff07000080fa0000000600f2
:1050b4000600fa00004f78001107980022079800b4
:1050c40065168000f4ff2000848262001e4278008e
:1050d4000483fb00040f2000040263004822dd0067
:1050e40005027200641688001e02900004427800d3
:1050f400ae00900004407800d6ff070065168000db
:10510400f4ff2000848262001e4378000682fb00c4
:105114004c22dd0005027200641688001e02900015
:1051240004427800ae00900004407800c9ff0700f4
:105134000080fa00000006000000fa00c8e2a9009e
:10514400c8c2a900c9e2a900c9c2a900c9a2a9008c
:10515400c982a9000002eb0064168800cce2a90011
:10516400ccc2a90080a92300a5ff07006516800012
:10517400f4ff200084826200040023000502720010
:1051840064168800410021000040eb00b1ff0700d5
:1051940065168000f4ff200084826200040023006e
:1051a4000502720064168800410620000040eb00ee
:1051b400a8ff0700420620008000eb0020c3b300d4
:1051c400bbff0700820220008000eb0080c2b30016
:1051d400b7ff0700820220008000eb0080c0b3000c
:1051e400b3ff0700826620008000eb0010c0b3000c
:1051f400afff0700820220008000eb0060c0b30014
:10520400abff0700220320008000eb00c0c0b30006
:10521400a7ff07000080fa00000006000000fa0063
:10522400025f20008000eb0010c0b300a0ff070065
:105234000080fa00000006000200fa00004f780027
:10524400114798009e4278000582fb004622dd004b
:105254008442780004c8b30084c272001e429000e5
:1052640004c27200820220008000eb000440780037
:105274008fff07000080fa00000006000200fa0019
:10528400004f78001e4278008202200011002000a6
:105294000440780086ff07000080fa000000060042
:1052a4000200fa00000f7800050037001e027800a3
:1052b400144278001e0fe80004407800efff070056
:1052c4001e02780014427800e04f5200f7ff3a00c3
:0852d4000080fa000000060052
:00000001FF
