:020000040000fa
:080000000002040000000000f2
:020000040000fa
:10040000afa620000e7f22000e0188000000000031
:10041000000020000000e000020032000001200087
:10042000200288000c000700c049220001002000c3
:1004300011000700000020000000e0000200320070
:100440000000020000000000a21b020000000000eb
:100450000040da000000fe004440a900a000200097
:100460000000e0000300320000002000a00188002e
:100470004440a80000000600910188008000780038
:100480000000eb0015003700e280400032a0b4000d
:100490009101ba00e280400032a0b4009102ba009b
:1004a000e280400032a0b4000002eb00472bde00e7
:1004b000f507b200602ce10004003a000059eb009f
:1004c0008301e900fdff3e00040037006128e100e0
:1004d000010032000082eb00040007001101ba00a5
:1004e0000200e000e8ff3a00000006003159ba00bf
:1004f0008301e9000c0032002159ba008301e900b0
:10050000080032000400e00003003a00e2804000ee
:1005100032a0b400f5ff370011d9ba008301e90019
:10052000faff3a008100e800e180400032a0b40008
:10053000000006000040da000000fe0000c0da0003
:10054000000006000a00fa00e20f500022003e0000
:1005500044538000e10f5200060032008723200040
:10056000462320002423200005232000e08f530091
:1005700004003a0087222000462220002422200086
:1005800005222000000028001500600003003a004a
:10059000800b780007002800958a73000540200032
:1005a0009482620001003a0014a0a0008202780048
:1005b00006003700940378000710b200fdff3200f8
:1005c000b103fb00070b78008502e900e08f5200c1
:1005d000f8ff3a000800370034002000b4bf9f0045
:1005e000c0bf9f00d1bf9f00e2bf9f006a8057003d
:1005f000d2ff07006fb99700020078000080fa0070
:1006000000000600f4ff2f00f30037001400200064
:10061000f100370003f0a200889fbe008a9fbe0051
:100620008c1f7800070107000e0133006450e100c1
:100630004f0032006420e1005200320003826c005f
:1006400007003b000905d0000306d000820f5400cc
:100650000c065d00020039000200320089017800ba
:10066000030678008582550004003d000003fd006c
:100670008103fd008502ea008b854200840f720031
:1006800002003b0060001000e08018006011b8001c
:100690000005eb007a28e1000a0039000600780026
:1006a000c75ddd00f707b200878075002d003700b9
:1006b000828171000a017800610560008180d100ab
:1006c0000080d3008502e900f9ff3b0006044000ea
:1006d0008784480002003b0060041400e0841c0092
:1006e0000988a300070032008a81710082817100ad
:1006f000610164008904d1000884d3008b05e800ff
:10070000170037000978a30013003a000b00e0003f
:10071000130034008b05e9000804440089844c0070
:100720000a4474000978a3000d003a000b00e000b1
:10073000070034008b05e9000804440089844c005c
:1007400001003a000b0020000978a300f7ff3200f7
:100750000001eb0002003700828171000a0178007d
:10076000d00007000cf0a70001f0a000c600370081
:100770006420e10002003a00838f6c00c600330061
:100780000801be000200be00bf003700889fbe0007
:100790008a9fbe008c1f7800aa000700b1003300ba
:1007a00003866c006450e100240032006420e10004
:1007b000270032006150e100220032006120e10098
:1007c000210032008b854200eb07b1000134b800f4
:1007d000003ab8000804420089844a00013ab8008f
:1007e0000030b8008880400009014a00040033004e
:1007f0000000400081804800020149008b05e900ab
:10080000c909dd00830170000100320013002000df
:10081000c814de004814dd004709de001200b200f3
:10082000c808de00088470009e00070001f0a100e7
:100830000cf0a70001f0a000930037006120e10058
:10084000950032000801be000200be00f7ff37002d
:100850006150e100fcff3a008f003700889fbe0026
:100860008a9fbe008c1f7800760007007d00330051
:1008700003866c006450e1002e0032006420e10029
:10088000330032006150e1002f0032006120e100ae
:100890003100320085855500eb07b00009002000cb
:1008a00008042000050037000804440089844c0037
:1008b0000a0031000603430087834b000001530008
:1008c00081815b00f8ff33000203be000800a00036
:1008d0000804440089844c00f6ff3900c639dd0065
:1008e0008301730001003200130020008904d1004d
:1008f0000884d3000998a300050032000800a7006f
:100900000300a0008904d1000884d3008b05e8000f
:100910008904d1000884d3000001eb000281d200d9
:100920006000070001f0a1000cf0a70001f0a0009a
:10093000550037006420e100570032000801be0076
:100940000200be00f7ff37006120e10052003200d4
:100950006000b800f3ff37000000200001f8270016
:10096000f0ff37000001be00740007000470a7000c
:1009700003f0a10003f8a30013003a006509b100d9
:1009800010003200090035006928e100020035003e
:1009900001002800000005000000400081804800a0
:1009a0008502e900fcff3a0000000600f88f4200d3
:1009b000050035008100d1000080d3008502e800e9
:1009c000fcff3a00000006008000eb00000005007c
:1009d0006011b8006e003700889fbe008a9fbe007d
:1009e000841f7800170007004f00780011003300c3
:1009f000f0ff2f00838f6c0006003b0004056500ac
:100a00000a00a7000800370009f0a6001000200027
:100a100008003700820f5400838f5c000300390008
:100a20001000200001003e000000200009f0a70097
:100a30000000ea004f05be004f04be000000e000c9
:100a4000000006000004be003c0007000003be00da
:100a50000405be000200be0038000700844f750088
:100a6000000006000200be006450e10005003600f0
:100a70006420e100020036000968a30001003a008a
:100a80000800be000160a0004f0678004f05be00c0
:100a90004f04be0000000600f0ff2f00f1ff27000a
:100aa000f9ff370081002000618055000b003d00f8
:100ab0000b00200061fe2f000100e1001d0034004a
:100ac00082817100610164008904d1000884d3002f
:100ad0000000e800faff3a007100200061006400a5
:100ae000030070000200600009003200610444004d
:100af000e0844c000988a500050032008b05e80061
:100b00006808e10002003a008904d1000884d3009b
:100b1000f20f20000258e10005003d00c75ddd0036
:100b2000f907b2008980750008007800000006000f
:100b30000bf827008b00780000000500c70ade00d4
:100b4000f107b200f50fb20008003200e1cf420019
:100b5000020032000170a00024000500810f700027
:100b6000010032000408050044000500810f7000f8
:100b700002003a00140005008502e9000000400070
:100b800081c04800fcff3b000170a000240005006c
:100b9000889fbe008a9fbe00008270000402710020
:100ba00004827100260032000004be000200be0074
:100bb0006011b8006b092000950220000182cf006f
:100bc0000a0039000541b1000082cf00070039005a
:100bd0000541b1000982cf00040039000541b10090
:100be0000882cf00010039000541b10005425200e2
:100bf000120032000a003b00828171006101640032
:100c00008100d1000080d3008984d3000884d30000
:100c10008b05e8000442e800f7ff3a0007003700c0
:100c20000804440089844c0000004800818048008a
:100c30008b05e9000442e900f9ff3a0099ff07003b
:100c40004f05be004f04be00000006002800fa0059
:100c5000889fbe008a9fbe008c9fbe0003866b00eb
:100c6000340307000028a30064003a000128a30011
:100c700067003a000008a30062003a000108a300e0
:100c800065003a001e009000be08900081064000fa
:100c9000ed3fb100f4805700ee019000111ab8004a
:100ca0008e099000311bb8009e099000311cb800dd
:100cb000511db800f485570046000700fe01900062
:100cc0003a0007008b85e8003e0007008e0990007f
:100cd00040000700ee019000340007008b85e8001b
:100ce000380007008e099000400007009e09900020
:100cf0001b18b800890440000a854800fe019000d6
:100d0000340007008b85e80038000700ee019000f2
:100d1000300007008e0990001b18b80089044000bd
:100d20000a8548000a98a30008003a00040242001d
:100d300085824a0006034b0087834b0008044c0061
:100d400089844c000a054d008d06e90084827200fa
:100d5000850273004c3add0085027200010032000a
:100d600015002000443ade001400b2004538de00d1
:100d7000cb45dd000b007000c540de00cb4ddd0033
:100d80008b8070004549de00cb55dd000b01710002
:100d9000c551de000d037800ff02070003f0a1003b
:100da0000cf0a70003f0a000f60237001b18b800f3
:100db0008502400006834800e0834b0060044c003d
:100dc000070037001b18b80006034000878348005f
:100dd000faff37001b18b80087034000088448005a
:100de000e0844c0060054d00000006001b18b800b0
:100df0000804400089844800faff37000108a30076
:100e0000dd023a005800be005801be00e3ff370083
:100e10000008a300d8023a0009047800f9ff37005f
:100e20008103780045ff07000001be006000b800a4
:100e30000478a30013003a006220e10015003e0090
:100e40000d0039008301d1000281d3008180d300dd
:100e50008301d1000281d3008180d3008301d100be
:100e60000281d3008180d3000538b000c42add00a0
:100e7000f300b2008381720007f0a70003f0a00026
:100e800000000600f3ff2700f2ff2f006110b900f9
:100e9000fbff370003ff2700f7ff37008f1fd1004c
:100ea000e90207008f87e9000000e000000006006b
:100eb000801feb00e40207008f87e9000000e000dc
:100ec000000006001400fa00889fbe008a9fbe0042
:100ed0008c9fbe00040678000004be000205be0020
:100ee000680047000a90be000890be00ff0207009d
:100ef0006200e1000800be000a01be0004002000fc
:100f00000b003a001e029000e43fb1006e0090001a
:100f1000fe0090000e0990009e099000f300b200c0
:100f200005fe2300858171000bf0a70003f0a000ef
:100f3000040e780093023700809feb00c202070086
:100f40008f87e9000000e000000006002800fa009a
:100f5000889fbe008a9fbe008c9fbe000706780057
:100f6000878669000c003b00030478008704780042
:100f700008f0a10009f0a100840f5000858f5800ef
:100f8000860f5900890f5c00030033000cf0a200ab
:100f900001003a000cf0a100660207006400e100c5
:100fa0005f003200780147006408e1006100320010
:100fb0006c014700748557003200be001201be006c
:100fc0003a04be001a05be001e039000be0a90003f
:100fd0008503530006003d000004fd008104fd0070
:100fe0000205fd008305fd008703ea000503780084
:100ff0000df8a3000400320060041400e0841c001b
:1010000060051d00e0851d006022b8007d03200002
:101010000d38e1008006eb000b0039004433dd00a1
:10102000f300b2008301730039003700848272003c
:101030000d027800e10664008b85d1000a85d3009b
:101040008984d3000884d3008703e900f7ff3b00bd
:1010500008004000898048000a0149008b8149004e
:1010600004003b0060001000e080180060011900df
:10107000e08119000358a300090032008d8272003c
:1010800084827200610260008301d1000281d3007a
:101090008180d3000080d3000603e8001b003700e6
:1010a0000348a30017003a000600e00017003400d0
:1010b0000603e9000d00a3000000480081804800fd
:1010c00002014900838149000348a3000f003a0050
:1010d0000600e000090034000603e90000004000bb
:1010e00081804800020149008381490001003a00e3
:1010f0000003eb000348a300f5ff32006022b800b4
:1011000002003700848272006182660022020700ba
:1011100003f0a1000cf0a70003f0a00019023700b3
:10112000640147006408e10002003a000df8a300e2
:1011300011023a003200be001201be001102370057
:101140001400fa00889fbe008a9fbe008c9fbe00dc
:101150000004be000205be00680047000a90be0001
:101160000890be00610207000070a7000bf0a1000c
:101170000bf8a30020003a009e0990000e09900091
:10118000fe0090006e0090009e029000344320000c
:1011900084825200fb0132000a003c00b4fc2f00a4
:1011a0000428e100140034008301d1000281d3003f
:1011b0008180d3000080d3008502e800faff3a0066
:1011c000f0013700b40020000428e10007003c00d3
:1011d00000004000818048000201490083814900ed
:1011e0008502e900faff3a00e60137000300280013
:1011f00002002000010037006011b8006000b80054
:10120000e00137002800fa00889fbe008a9fbe00d8
:101210008c9fbe0003866b00c60107006400e100de
:10122000440032006408e1004a0032006100e1003d
:10123000460032006108e10049003200ec06470038
:101240006000b8003d02be003d03be00f4865700ba
:101250006011b8003d04be003d05be007d032000c6
:101260000b0037000000a0008d06e90013003200db
:101270000402420085824a0006034b0087834b002c
:10128000000040008180480002014900838149003c
:101290000802520089825a000a035b008b835b00bc
:1012a000f0ff3b000802420089824a000a034b001b
:1012b0008b834b008d06e900edff3a0084827200bb
:1012c00086827200f707b200878272000100320046
:1012d000150020001e0490003e0b900006035400f1
:1012e000e63fb0000368a300070032000000a7003b
:1012f0000500a0008301d1000281d3008180d300ca
:101300000080d3000603e8008301d1000281d300ee
:101310008180d3000080d3000002eb000482d20061
:101320009d01070003f0a1000cf0a70003f0a0004e
:1013300094013700640247006408e1008e01320026
:101340003400be003401be00f6ff37006108e10042
:10135000890132006011b8006000b800f1ff370069
:1013600003ff270002002000fbff3700889fbe001c
:1013700000827000040271000482710024003200b7
:1013800036432000c50020008383cf000a003900c7
:101390000541b1008283cf00070039000541b1004b
:1013a0008183cf00040039000541b1008083cf0064
:1013b000010039000541b10085c353006022b80027
:1013c000120032000a003b00848272006102600059
:1013d0008301d1000281d3008180d3000080d3003b
:1013e0000603e8008743e800f7ff3a0007003700ec
:1013f00000004000818048000201490083814900cb
:101400000603e9008743e900f9ff3a00620107009b
:101410004f04be000000060007f0a200cbfe37001c
:10142000889fbe008a9fbe003004be002005be001b
:101430000404440085844c0006054d0087854d005a
:101440000898be000a90be000440e10005c8e10013
:1014500006d0e10007d8e10002003100680040003a
:101460001008e8004f05be004f04be000000060053
:101470001000fa00889fbe008a9fbe000605be00cd
:101480000404be003002be002003be00c4b79f00ab
:10149000d5b79f00e6b79f00f7b79f00080252003c
:1014a00089825a000a035b008b835b0084bf9f0024
:1014b00095bf9f00a6bf9f00b7bf9f000498be00c6
:1014c0000698be00110020004fb29700dfb29700cf
:1014d0006fb39700ffb39700b20007000100390017
:1014e0008000eb00108810004f05be004f04be00c6
:1014f0000080fa00000006001400fa00889fbe0079
:101500008a9fbe008c9fbe00790007000605be00c2
:101510000404be000006eb00ccb79f00bcb79f00e0
:10152000acb79f009cb79f008cb79f000d042000b4
:101530004fb39700bfb29700860343002fb29700c6
:10154000e00f530004003d009b0007000f00400027
:10155000b3ff070003003700970007000f004000ab
:10156000c3ff0700cfb2970095bf9f00e08f5200e6
:101570000900350065000700140020000500200068
:101580006033b800000072008180720002017300b5
:1015900083817300560007000c06e8008d0f56008b
:1015a000e3ff3a001fba9700e00f520005003d002c
:1015b0000802be000a03be0000fe2f000f0040001c
:1015c00097ff07004faa9700e00f520008003a006b
:1015d0000fb497009fb497002fb59700bfb5970041
:1015e000d8b79f00e9b79f00fab79f008bbf9f0055
:1015f000460007004f06be004f05be004f04be0068
:101600000080fa0000000600881f78001800200003
:10161000881f7800b8ff07008f87e9004f04780023
:1016200000000600801feb00b3ff07008f87e90072
:1016300000000600889fbe008a9fbe004100070090
:1016400007003d0044000700180020004900070083
:1016500008003d002f0007000004eb0005003700e4
:101660000004eb004300070002003d0029000700d2
:1016700018002000e4ff0700e00f540001003200d2
:10168000410007004f05be004f04be0000000600e9
:10169000889fbe008a9fbe008c1f7800290007002b
:1016a00005003d002c0007001c0020003d00070045
:1016b00007003d00050037000006eb002d00070085
:1016c00003003d006044b8006055b80013000700f7
:1016d000d4ff0700e00f5600010032002a00070087
:1016e0004f0678004f05be004f04be000000060004
:1016f000010007000000060090b79f00a1b79f00ff
:10170000b2b79f00c3b79f000000060008000700a3
:10171000000006006044b8006055b80004025400a0
:1017200085825c0006035d0087835d000000060083
:101730001fb09700afb097003fb19700cfb19700af
:1017400000000600e00f5000e08f5800e00f590045
:10175000e08f5900000006006044b8006055b800f2
:101760000000540081805c0002015d0083815d0007
:1017700000000600e00f5200e08f5a00e00f5b000f
:10178000e08f5b00000006006022b8006033b80004
:101790000000520081805a0002015b0083815b00df
:1017a000000006000820e10009a8e1000ab0e100fd
:1017b0000bb8e100000006004f2bde0086837300ab
:1017c000a7b79f004f23de00858242008682720009
:1017d00095b79f00ffaa97004f2bde00040242003e
:1017e0000602720084b79f006faa97004f23de00a5
:1017f0008582420086827200f5af9f00ccff070011
:101800004f18de000402420000027200e4af9f00a5
:10181000c7ff070000004000818048000201490026
:1018200083814900b4ff07000802be000a03be001e
:1018300000fe2f0000000600889fbe008a9fbe00a9
:101840008c1f78000006eb00e00f5000e08f58007e
:10185000e00f5900e08f590007003d006044b800d8
:101860006055b8000000540081805c0002015d00fa
:1018700083815d001c002000e00f5200e08f5a00c1
:10188000e00f5b00e08f5b0007003d006044b800a4
:101890006055b8000402540085825c0006035d00b8
:1018a00087835d000c00a200b7000700e00f560020
:1018b000060032006022b8006033b8000000520019
:1018c00081805a0002015b0083815b004f06780033
:1018d0004f05be004f04be00000006006022b800a5
:1018e000060220000000d0008180d2000482d200d5
:1018f0008582d2000000a0000202520083825a00ba
:10190000030031000202420083824a000000a1006d
:101910000603e900f3ff3a0000000600020ab900de
:10192000001bb9000200b8008100420081004300a2
:1019300000000600680447000294be000094be0048
:10194000fc0447008694be008494be000900780021
:10195000660007000800780064000700990078001e
:10196000814f70000b003b000800be00a80007007c
:101970004f00b10003003700f3ff2700f2ff2f00f4
:101980006110b9004f06be004f05be004f04be00f7
:101990000080fa0000000600180020005700200018
:1019a000080453000d003d000600200097fc2f00a6
:1019b0000740e1001e003400848272006102600072
:1019c0008301d1000281d3008180d3000080d30045
:1019d0000804e800f8ff3a004700200061046000b6
:1019e00005047400040464000d003200610040002e
:1019f000e080480060014900e081490003b8a5008b
:101a0000070032000603e8006538e10004003a00f0
:101a10008301d1000281d3008180d3000080d300f4
:101a2000f87f20000830e10003003500080378004b
:101a30006000b8006011b8004433dd00f300b2006c
:101a40008301730000000600889fbe008a9fbe00cd
:101a50008c9fbe000404be000605be00809fbe0031
:101a6000829fbe0078000700040678000800be00d0
:101a70000a01be0074000700840678004f03be0010
:101a80004f02be008d4f76007fb0970013003300e9
:101a9000f0ff2f008b8f6b0006003b000d066600e9
:101aa0000c00a7000a00370007f0a6001000200075
:101ab0000a003700880f5200898f5a008a0f5b0096
:101ac0008b8f5b00030039001000200001003e00f6
:101ad0000000200007f0a7000000ea004f06be004b
:101ae0004f05be004f04be000000060080007800d5
:101af0005002be005003be004439de00f700b200c1
:101b0000f37f200003016100090032000218e100a8
:101b100016003a008501720083017300838173000f
:101b20000008200015003a00400020001300370094
:101b300085017200830173008381730005003a0000
:101b400004a8be0006a8be00100020000b0037004d
:101b50000201e9000402420085824a0006034b00ac
:101b600087834b000748a300f9ff32000740a0001d
:101b700004a8be0006a8be00200020008000980037
:101b80009200980000000600889fbe008a9fbe0059
:101b90008c9fbe000404b8000506b8008904460006
:101ba00060854e000606b8000a054600e0854e0036
:101bb0000706b8008b054600040eb80089044600ed
:101bc0000a854e00e0854d00050eb8000a05460066
:101bd0008b854e00060eb8008b0546000416b80033
:101be0000a0546008b854e000516b8008b05460099
:101bf000041eb8008b0546000800be000a01be00a6
:101c00004f06be004f05be004f04be000000060098
:101c1000e48240001078a300070032006402400014
:101c20001178a3003400be001401be00040032008d
:101c30000330a700000006003500be001501be00fd
:101c40000330a0000000060005ff270005826100a8
:101c5000070032000428e1000100320024000500e2
:101c60000600070001003a004400050004080500d2
:101c700002000700f9ff3a00140005006f826100be
:101c8000810270008502710085027200000006006a
:101c90000c00fa00889fbe0000047800f4ff2700c3
:101ca000d4bf9f008004eb0099bf9f0088bf9f00b6
:101cb000a8bf9f00240c2000b4bf9f00788157006c
:101cc000cfb0970070805700c40007000fba97008c
:101cd000094a78000fba9700080052004f04be006e
:101ce0000080fa00000006000800fa00889fbe008d
:101cf0008a9fbe000084fb00d4c6b300844f50000e
:101d0000340036004b062000110009000b84d80077
:101d100081057800720040004300dd00498d2000fd
:101d2000008044006022b8000600200007fe230067
:101d30005001be004000be00c4fb07000002be0010
:101d40000203be0084bf9f0095bf9f00a6bf9f00f7
:101d5000b7bf9f00aa002000110009008a85d800a3
:101d600080057800e9854500c35ddd008b85440072
:101d70003b02be002b03be000fb897009fb8970030
:101d80002fb99700bfb99700b0fb07000002be0053
:101d90000203be0084bf9f0095bf9f00a6bf9f00a7
:101da000b7bf9f00110009000a84d8000104780021
:101db0004344dd00888444003902be002903be008c
:101dc0000fb897009fb897002fb99700bfb9970039
:101dd0001d003700ea4f500013003600aa00200013
:101de000110009000a84d800010578006904400048
:101df0004344dd00498d2000088444006022b8007f
:101e00000600200007fe23003800be002801be00a7
:101e10008efb07004355dd008a8444003902be0072
:101e20002903be00080037004344dd00448d200034
:101e3000080442006022b8000600200007fe2300cc
:101e40003800be002801be0080fb07004f05be0021
:101e50004f04be000080fa00000006000800fa00ef
:101e6000889fbe008a9fbe00d4c6b300e04f5000da
:101e700022003d000040ea000004fb00844f5000b7
:101e80000a00340044062000110009000404d800b0
:101e9000a9002000110009008900d800e9004000d5
:101ea000c308dd004a8d200020003700ea4f5000b3
:101eb0000f003400a4002000110009000404d80021
:101ec000690040004300dd00448d20000000420016
:101ed000430cdd00080242005403be004402be0071
:101ee0005001be004000be0058fb0700370037001d
:101ef0004344dd00448d2000310037000004fb0026
:101f0000844f5000230034004406200011000900d3
:101f10000404d800a9002000110009008900d8009d
:101f2000e9004000c308dd004a822000810045002e
:101f30003102be002103be008b0920008a854500c6
:101f40003b00be002b01be0040fb07000002be00ac
:101f50000203be0084bf9f0095bf9f00a6bf9f00e5
:101f6000b7bf9f00110009000904d80001047800e0
:101f70004344dd00080545003a02be002a03be00c6
:101f80000fb897009fb897002fb99700bfb9970077
:101f9000d5ff3700ea4f500007003400a4002000ae
:101fa000110009000404d800690040004300dd006e
:101fb00044822000c5ff37004344dd0044822000f6
:101fc000080442003800be002801be004f05be00d4
:101fd0004f04be000080fa0000000600cf04b000ed
:101fe000889fbe008a9fbe008c9fbe008e1f780017
:101ff00000067800a1a79f00f2a79f006000b8002c
:102000006011b800b0a79f00c1a79f00d2a79f0092
:10201000e3a79f008006eb0033053700afa09700d1
:102020008100e800a1a79f0054c2b300844f500074
:1020300006003a00810378008002eb0000c3b30081
:1020400001c2b300b2c2b3000e0037003c029000e0
:102050000404b200040032001c027800004a780038
:10206000040ee800050037000000fb008c0078003b
:1020700029050700e10f40001b0532008d06e8002e
:10208000190537000702780037437800d3c2b30040
:10209000834f53000900320005003c00814f53007c
:1020a00008003200824f53000c003a00070037004e
:1020b000804f530009003a00060037000530a000a9
:1020c000f0ff37000500a000eeff37000510a0006c
:1020d000ecff37000520a000eaff3700e283620032
:1020e000010032000500a100e88362000100320017
:1020f0000520a1008603fb000703b100e98f530010
:102100000d003e0004037800000020006a00b900c2
:102110003602fb000403b100000042000602780012
:102120009603fb000703b100e98f5300f7ff360069
:1021300090b79f000a0037008003eb0097b79f001d
:10214000a7c2b300874f530005003a007fa0970055
:10215000c0007800f0a79f0091b79f000402e8003c
:10216000e6c2b300944f130017003a0005e0a00048
:1021700064435300d44f130003003200040378007b
:102180000000200009003700ffa1970043037800fa
:10219000f3a79f00c6af9f000402e800c7c6b300c4
:1021a0000d0037006a00b900008043000602780085
:1021b000b603fb000703b100e98f5300f9ff3600b7
:1021c000c0af9f00f5ff370005c0a0008003eb0003
:1021d000c7af9f00f1ff370034437800a4a79f00ea
:1021e000874f530016003200c4c6b300844f53001b
:1021f00009003c0069425200844f530081003200c4
:1022000063424200844f530014003200e04f5300f9
:10221000ba0432009b00370054c7b300844f530008
:102220009d00320063424200844f53000e00320092
:1022300065425200844f530092003a000d0037006f
:1022400070806200060120000100320006002800b4
:102250000503730086027800dfff3700866f9f005a
:1022600005a0a0008e003700866f9f000570a000bb
:102270008b003700866f9f00ffa097004102780017
:10228000f1a79f0004047800e00f520001003a001b
:1022900048982000880378000002eb000100370016
:1022a0000402e80067437a00e04f5300fcff3a0065
:1022b000840478004fa99700e00f5100030032001a
:1022c000890f510001003100820478000007eb0003
:1022d0009fb19700898f5100010036000987510096
:1022e000e8826200d5af9f0004c2b3001100320043
:1022f00028003700bc0290000504b2000400320040
:102300009c027800844a7800050ee8000700370038
:102310008c0078000002200084bf9f007e0407002c
:102320000fba9700e10f4000010032008d06e8006f
:102330000e07e900e00f5700eeff3a000087eb00c0
:10234000140037003c0290000404b200090032007f
:102350001c03780008027800b4427800054b78002e
:10236000060ee80004047800e0cf520008003a00ae
:1023700008003700080278003400fb0004047800ed
:102380008c00780064040700e10f40000100320077
:102390008d06e800090278008404e900e00f52008d
:1023a000e8ff3a005faa9700e00f52004e043200a7
:1023b00004c2b30010003700bc0290000504b20054
:1023c000040032009c027800844a7800050ee80080
:1023d000070037008c0078000002200084bf9f00b7
:1023e0004d0407000fba9700e10f400001003200d2
:1023f0008d06e8000e07e900e00f5700eeff3a00f7
:10240000390437007fa3970046027800f6a79f00a3
:1024100004007800cf80de0001017800820178009e
:10242000d0af9f00e1af9f00f2af9f0083b79f0046
:102430004800de00480add0000007200806f9f0047
:102440007083620009003200e04f50000700320044
:10245000e14f400005003200906f9f002fdb970096
:10246000a66f9f002900200003003700afdb970014
:10247000976f9f001900200098fa2f000f04440066
:102480008cff3700866f9f0088fa2f000f044400ee
:102490001900200087ff3700866f9f00050cb300ee
:1024a000d5af9f00047020005fa897000402600071
:1024b0006f023200040021000402600002003200ba
:1024c00061002000c1af9f005fa99700700261000a
:1024d000050032007fa097004003be004002be000e
:1024e000f0a79f00060037007fa197004200be00c2
:1024f000f2a79f004afa07000002be000203be00d6
:1025000084af9f0095af9f00a6af9f00b7af9f001d
:102510006022b8006033b8000fa897009fa897000a
:102520002fa99700bfa997005cfa0700e00f5000a1
:102530000c003d000fa897009fa897002fa99700b7
:10254000bfa9970003f0a20080af9f0091af9f004a
:10255000a2af9f00b3af9f00dfa897003100b30088
:10256000d1af9f000002eb00e4979f006022b8000b
:102570006033b8000fa897009fa897002fa9970075
:10258000bfa997004afa0700e00f5000340032005c
:10259000c4fa2f000f0242000fa897009fa89700cf
:1025a0002fa99700bfa9970046fa07006f909700e0
:1025b0000000e9006300b900a40020001100090038
:1025c0000400d800e0979f00e00f500002003d009b
:1025d0000000e900e0979f006f9497000840ea0030
:1025e0001efe07000faa97009faa97002fab970027
:1025f000bfab970095f907000002be000203be00c2
:10260000b4a79f00c5a79f00d6a79f00e7a79f007c
:102610006022b8000600200007ff23001ffa070011
:10262000e00f500002003d000804e9000b003700f5
:102630006022b80006002000470224003fa0970057
:10264000cfa097005fa19700efa197003afa07008b
:10265000e00f5000020035000804e800e8979f00f2
:10266000cfaa9700f88f52000f003c000540780079
:102670009dfd07000002be000203be000fa89700e8
:102680009fa897002fa99700bfa997002ffa0700ce
:102690000002be000203be0084af9f0095af9f0002
:1026a000a6af9f00b7af9f006f949700e90f54004b
:1026b00015003c006022b8006033b8000fa89700f6
:1026c0009fa897002fa99700bfa99700f8f90700c6
:1026d000e00f5000320032000fa897009fa897002b
:1026e0002fa99700bfa9970095fa0700e00f5000a7
:1026f000e08f5800e00f5900e08f590028003a00a1
:10270000e10f5400260034000400200005002e00d4
:10271000b6e02200170124003fa09700cfa0970049
:102720005fa19700efa19700dcf90700e00f5000d0
:1027300002003d007304540001003700720454008d
:10274000e8979f004f689700c4fd07000002be0095
:102750000203be00b4a79f00c5a79f00d6a79f0095
:10276000e7a79f000fa897009fa897002fa99700a1
:10277000bfa99700a3fa070071fa07000205be007f
:102780000004be006000b8006011b80080af9f0078
:1027900091af9f00a2af9f00b3af9f00170037001b
:1027a0000fa897009fa897002fa99700bfa997008f
:1027b00063fa07000205be000004be00ebfa070042
:1027c0000002be000203be000fa897009fa897005a
:1027d0002fa99700bfa997000ffb07000002be00ba
:1027e0000203be0084af9f0095af9f00a6af9f007d
:1027f000b7af9f000002eb00e4979f00419a2000d2
:1028000010c0b300080037003102be003103be0023
:102810000440e10005c8e10006d0e10007d8e1006e
:10282000030039000040e800f44f5000f6ff3a0082
:10283000806f9f006f9297009fb2970004825200b2
:102840004fab9700060252000000fb000000520050
:1028500090b79f00e00f5300020032000000e90033
:1028600090b79f00dfab97006382630003003200e4
:102870001fb097000000e90090b79f00dfa8970005
:10288000648260004700320062826000e182600082
:10289000e00f5200110032003c0290000404b2002c
:1028a000080032001c037800b4c2b300e08f52006d
:1028b0000100320004c2e800044b7800060ee80074
:1028c00015003700b0022000e08f520001003200f6
:1028d0000080e8008c0078000c003700e08f520088
:1028e000260032003c0290000404b20005003200d1
:1028f0009c02780004c2b300844a7800050ee80008
:10290000050037008c007800000220000203070059
:10291000e10f4000190032008d06e8001700370073
:102920003c0090000004b200040032001c0078005b
:102930000e487800000ee8000d0037008c0078008b
:102940000003200084bf9f00f5b79f00d6b79f000b
:10295000e7b79f00f00207000fba9700ffb2970099
:102960005fb39700efb39700e10f40000100320022
:102970008d06e8008904e900040037000ec3b300a7
:102980000802be000a03be009fb49700e08f540007
:10299000e3ff3c0099b79f000605be000404be009b
:1029a000710037005fa997006802610021003a00ba
:1029b000170037003c0090000004b2000400320011
:1029c0001c0078000e487800000ee8000d0037006b
:1029d0008c0078000002200084bf9f00f5b79f00a4
:1029e000d6b79f00e7b79f00cb0207000fba97004a
:1029f000ffb297005fb39700efb39700e10f40007d
:102a0000010032008d06e8008904e9000400370067
:102a10000ec2b3000802be000a03be009fb49700b6
:102a2000e08f5400e3ff3c0099b79f000605be000d
:102a30000404be00dfa9970062826100e1826100a8
:102a4000e00f5200110032003c0290000404b2007a
:102a5000080032001c037800b4c2b300e08f5200bb
:102a60000100320004c2e800044b7800060ee800c2
:102a70003c003700b0022000e08f5200010032001d
:102a80000080e8008c00780033003700e08f5200af
:102a9000350032003c0290000404b2000500320010
:102aa0009c02780004c2b300844a7800050ee80056
:102ab0002c0037008c007800000220002600370030
:102ac0003c0290000404b2008502fb00e00f5200bb
:102ad000110032001c077800c32add00c4992000d1
:102ae000850242005503be004502be000800be003c
:102af0000a01be00c4fa0700a4002000050020005f
:102b00006033b800c7fa070005c3b300054f4000a3
:102b10000e0ee80013003700c32add00c69920001e
:102b2000850243005503be004502be000800be00fa
:102b30000a01be00b4fa0700a4002000050020002e
:102b40006033b800b7fa0700040320000002420017
:102b50008c007800040078006f020700e10f40004d
:102b6000010032008d06e8000f6a97008442e900f8
:102b7000856f9f00e04f5200d1ff3a0011003700ef
:102b80003c0290000404b200040032001c027800f1
:102b9000084a7800040ee800050037008c00780031
:102ba000000320005c020700e10f4000010032003a
:102bb0008d06e8006f9297000402e900e4979f00f9
:102bc0000100370008c3b3006f929700e00f520076
:102bd000ebff3c00cfab9700f28f530003003400b3
:102be00024c1b300846f9f00020037000fd8970004
:102bf000806f9f000f6a97008402fb00cfa89700a8
:102c00008582500095a79f00e04f52000e003200d1
:102c10003c0290000404b200050032001c0278005f
:102c2000e5c2b300054a7800040ee800050037004d
:102c30008c007800e002200037020700e10f40001e
:102c4000010032008d06e8000f68970083fc070042
:102c50000002be000203be000fa897009fa89700c5
:102c60002fa99700bfa99700f8f7070034f90700cc
:102c70000205be000004be00ce99200035003700da
:102c80003c0290000404b2008502fb00e00f5200f9
:102c9000120032001c017800c2af9f00c32add0081
:102ca000850247005503be004502be000800be0075
:102cb0000a01be0054fa0700a4002000050020000d
:102cc0006033b80057fa070005c3b3004faa970056
:102cd000054a4000040ee80012003700c32add0058
:102ce000850247005503be004502be000800be0035
:102cf0000a01be0044fa0700a400200005002000dd
:102d00006033b80047fa07000403200000024200c5
:102d10008c00780004007800ff010700e10f4000fc
:102d2000010032008d06e8000f6b97000602fb00e1
:102d30004322dd00040247005403be004402be00eb
:102d40000800be000a01be0036fa07000205be00f8
:102d50000004be000f6a97008442e900856f9f005f
:102d6000e04f5200c6ff3a00170037003c009000c9
:102d70000004b200040032001c0078000e48780005
:102d8000000ee8000d0037008c00780000032000e2
:102d900084bf9f00f5b79f00d6b79f00e7b79f009d
:102da000dd0107000fba9700ffb297005fb39700ed
:102db000efb39700e10f4000010032008d06e800fc
:102dc0008904e900040037000ec3b3000802be0006
:102dd0000a03be009fa49700e08f5400e3ff3a006f
:102de0000605be000404be00dfab9700e882630066
:102df000bd0132001fb09700e00f5000ba0134004f
:102e00000ec2b3000802be000a03be0080047800b0
:102e10003c0090000004b200040032001c00780066
:102e20000e487800000ee8000d0037008c00780096
:102e30000002200084bf9f00f5b79f00d6b79f0017
:102e4000e7b79f00b40107000fba9700ffb29700e1
:102e50005fb39700efb39700e10f4000010032002d
:102e60008d06e8008904e900e9ff3a009e01370079
:102e7000dfa89700e08f500005003d007fa197007c
:102e80004205be004204be00f2a79f0015003700b5
:102e9000dfa99700f08261000c0032007fa097004c
:102ea0004003be00f0a79f00969f9f00a79f9f0032
:102eb000b49f9f00c49f9f001f9c9700af9c9700ea
:102ec0003f9d9700cf9d9700060037007fa1970098
:102ed00042047800f2a79f00090020000a002000a9
:102ee0000b002000cfa99700e08f510009003a00a5
:102ef00014002000c4af9f00e00f5400e08f5c007e
:102f0000e00f5d00e08f5d00020032008002eb0008
:102f1000c5af9f005fab9700060cb20086af9f0065
:102f200004082000840f530010003200040c20001d
:102f3000840f530021003a00459a200014c0b300ca
:102f40003500be003501be000040e10001c8e100cf
:102f500002d0e10003d8e100170039000442e80084
:102f6000f44f5200f6ff3a001300370014c0b300cc
:102f700000012000010020006011b8000040e100c5
:102f800001c8e10002d0e10003d8e1000a003900e5
:102f9000470020000000d0008180d2000281d200d2
:102fa0008381d2008703e900faff3a000442e80077
:102fb000f04f5200f1ff3a00846f9f000f689700b6
:102fc0000002fb00cfa89700810f520002003d00d5
:102fd000816f9f00040037004fa99700840f5100b4
:102fe00001003d00c4af9f009fb19700e08f5100ea
:102ff00005003200dfaa97006382620002003200ff
:103000008301e90093b79f00040024005fab9700a1
:1030100004026300090032009fb397004fa8970095
:10302000808f5300030034008083530097b79f00c4
:10303000020037008000eb0091b79f000f699700f6
:103040000202fb000007eb009fb19700848f510044
:103050000100340004875100dfaa970064826200f7
:103060003b00320005037800e20263006102630066
:10307000e08f520011003200bc0290000504b20043
:10308000080032009c027800b6c2b300e00f520084
:103090000100320006c3e800864a7800050ee80009
:1030a00015003700b0022000e00f5200010032008e
:1030b0000080e8008c0078000c003700e00f520020
:1030c0000e0032003c0290000404b2000500320001
:1030d0001c02780005c2b300054a7800040ee8001f
:1030e000050037008c007800000220000a0107006c
:1030f000e10f4000010032008d06e800e00f5700ac
:103100005000320004c3b300bc0290000504b200ba
:10311000040032009c027800844a7800050ee80022
:10312000070037008c0078000003200084bf9f0058
:10313000f90007000fba9700e10f400001003200cc
:103140008d06e8000e07e900efff3a003d0037006a
:10315000e00f570015003200dfab97006882630074
:1031600012003a0004c2b300bc0290000504b20091
:10317000040032009c027800844a7800050ee800c2
:10318000070037008c0078000002200084bf9f00f9
:10319000e10007000fba9700e10f40000100320084
:1031a0008d06e8000e07e900efff3a005fa89700e0
:1031b000e202600061026000e08f52001100320004
:1031c000bc0290000504b200080032009c027800a6
:1031d000b6c2b300e00f52000100320006c3e8009f
:1031e000864a7800050ee80015003700b00220007e
:1031f000e00f5200010032000080e8008c007800ef
:103200000c003700e00f52000e0032003c0290002c
:103210000404b200050032001c02780005c2b300ad
:10322000054a7800040ee800050037008c0078009d
:1032300000022000b8000700e10f4000010032004a
:103240008d06e800cfa897008102e9004229dd0041
:1032500092a79f00c32add00c49920000482420087
:10326000dfa99700f0816100839f9f008e027800a4
:10327000f5979f000407780098b79f00a9b79f00b3
:10328000bab79f00cbb79f007c003700cfa897004c
:103290008100e900c1af9f00040820000fa997003a
:1032a000840f510050003200040c2000840f5100a4
:1032b0005d003a00dfa99700e08f51001a003d0041
:1032c0003e04be002e05be000802be000a03be007a
:1032d0001fb09700afb097003fb19700cfb19700f4
:1032e000c9f80700806f9f000000fb00cf80de0060
:1032f00001017800820178000802be000a03be00c6
:103300004df907001fb29700afb297003fb3970087
:10331000cfb397000002520081825a0002035b0083
:1033200083835b001f0037008f9a9700e08f520065
:10333000210032001fb29700afb297003e04be00da
:103340002e05be000801be000400be0084bf9f0021
:10335000f5b79f0061f90700806f9f000000fb0038
:10336000cf80de000801be006cf907000fba97009d
:10337000ffb297000003520081835a00d69f9f003e
:10338000e79f9f008003eb00f79f9f000000eb008a
:1033900080a79f005f9a9700ef9a97007f9b970006
:1033a0008fa3970094b79f00a5b79f00b6b79f0063
:1033b000c7b79f00080037001e0278009fb2970031
:1033c000110009008482d800a40020001100090027
:1033d0000480d800816f9f000f6b97000643b000f8
:1033e000866f9f00100037001fb29700afb29700a2
:1033f0003fb39700cfb397001fa097000000e900ec
:10340000050033008703d1000683d3008582d300f3
:103410000482d300f9ff37006f026200b1982000e8
:1034200061427a00846f9f003c0290000404b20065
:10343000070032009c0278000f6a9700844a7800e7
:10344000050ee800e04f520007003a000700370081
:103450000f6997000200fb008c0078002e00070027
:10346000e10f4000010032008d06e8009fa19700a7
:10347000e481510093a79f00680757004faa970067
:10348000e00f520081ff3a007f9797005fab9700f3
:10349000e802630014003200e00f5700120034000d
:1034a00004c2b300bc0290000504b2000400320064
:1034b0009c027800844a7800050ee8000700370077
:1034c0008c0078000002200084bf9f0012000700db
:1034d0000fba9700e10f4000010032008d06e800ae
:1034e0000e07e900efff3a00afa3970017407800fe
:1034f000806f9f00e04f5000c8fa3a000d0078003e
:103500004f0778004f06be004f05be004f04be00b7
:10351000cf04b10000000600889fbe0001047800bf
:1035200038029000e20262008084eb003b0032002f
:10353000040378000620b2009802900002003a00ce
:10354000e08f520035003a000490a0003404980047
:1035500080047800f90fb200e08f520002003a00b8
:10356000a8029000050c7800ea8f540005003a008c
:103570000408b20003003a0088007800d000200060
:10358000e5ff070018029000d8029000850f520056
:103590000b0032000402e8001404980018027800be
:1035a000094a7800040ce80015c0b30024a62000e6
:1035b000054a7800ea8f540018003a0005003700e9
:1035c0008800780009407800170007008004780020
:1035d00012003700380290000410b2000f003200d1
:1035e00018019000a800900048009000d5f3070053
:1035f00018029000840f500004003200380290003e
:103600000403b300340498008084eb000002eb0054
:103610001404980028029000040c78000900780037
:103620004f04be00000006000200fa00889fbe00a2
:10363000a0ff9f0001047800380290008402780007
:103640000504b200020032000000fb003500370024
:10365000e202620005003a000403b300340498005b
:10366000150498000080eb002e003700d80490006d
:10367000e08f540006003a0012002000e680570058
:1036800048009000aff307001904980023003700aa
:10369000a8029000e08f520008003a0055a62000d2
:1036a00025049800050c780025002000550498009a
:1036b000150498000430a00034049800180190000c
:1036c000a8009000480090009ef307002802900098
:1036d0008082eb0015049800affa9700054a780045
:1036e000040ce8002ffa9700ea4f52000b003a0052
:1036f000380290000410b200080032001801900057
:10370000a8009000480090008ef307000002eb0034
:1037100014049800a8029000050c78002ffa970076
:103720000400fb004f04be000080fa000000060009
:020000040000fa
:020000040001f9
:0457f800ad7b000085
:020000040000fa
:020000040001f9
:0457fc003f3f00002b
:020000040000fa
:100008009a0200009a0200009a0200009a02000078
:100018009a0200009a0200009a0200009a02000068
:100028009a0200009a0200009a0200009a02000058
:100038009a0200009a0200009a0200009a02000048
:100048009a0200009a0200009a0200009a02000038
:100058009a0200009a0200009a0200009a02000028
:100068009a0200009a0200009a020000782000001c
:100078009a0200009a0200009a0200009a02000008
:100088009a0200009a0200009a0200009a020000f8
:100098009a0200009a0200009a0200009a020000e8
:1000a8009a0200009a0200009a0200009a020000d8
:1000b8009a0200009a0200009a0200009a020000c8
:1000c8009a0200009a0200009a0200009a020000b8
:1000d8009a0200009a0200009a0200009a020000a8
:1000e8009a0200009a0200009a0200009a02000098
:1000f8009a0200009a0200009a0200009a02000088
:100108009a0200009a0200009a0200009a02000077
:100118009a0200009a0200009a0200009a02000067
:100128009a0200009a0200009a0200009a02000057
:100138009a0200009a0200009a0200009a02000047
:100148009a0200009a0200009a0200009a02000037
:100158009a0200009a0200009a0200009a02000027
:100168009a0200009a0200009a0200009a02000017
:100178009a0200009a0200009a0200009a02000007
:100188009a0200009a0200009a0200009a020000f7
:100198009a0200009a0200009a0200009a020000e7
:1001a8009a0200009a0200009a0200009a020000d7
:1001b8009a0200009a0200009a0200009a020000c7
:1001c8009a0200009a0200009a0200009a020000b7
:1001d8009a0200009a0200009a0200009a020000a7
:1001e8009a0200009a0200009a0200009a02000097
:0801f8009a0200009a020000c7
:020000040000fa
:100208009a0200009a0200009a0200009a02000076
:100218009a0200009a0200009a0200009a02000066
:100228009a0200009a0200009a0200009a02000056
:100238009a0200009a0200009a0200009a02000046
:100248009a0200009a0200009a0200009a02000036
:100258009a0200009a0200009a0200009a02000026
:100268009a0200009a0200009a020000782000001a
:100278009a0200009a0200009a0200009a02000006
:100288009a0200009a0200009a0200009a020000f6
:100298009a0200009a0200009a0200009a020000e6
:1002a8009a0200009a0200009a0200009a020000d6
:1002b8009a0200009a0200009a0200009a020000c6
:1002c8009a0200009a0200009a0200009a020000b6
:1002d8009a0200009a0200009a0200009a020000a6
:1002e8009a0200009a0200009a0200009a02000096
:1002f8009a0200009a0200009a0200009a02000086
:100308009a0200009a0200009a0200009a02000075
:100318009a0200009a0200009a0200009a02000065
:100328009a0200009a0200009a0200009a02000055
:100338009a0200009a0200009a0200009a02000045
:100348009a0200009a0200009a0200009a02000035
:100358009a0200009a0200009a0200009a02000025
:100368009a0200009a0200009a0200009a02000015
:100378009a0200009a0200009a0200009a02000005
:100388009a0200009a0200009a0200009a020000f5
:100398009a0200009a0200009a0200009a020000e5
:1003a8009a0200009a0200009a0200009a020000d5
:1003b8009a0200009a0200009a0200009a020000c5
:1003c8009a0200009a0200009a0200009a020000b5
:1003d8009a0200009a0200009a0200009a020000a5
:1003e8009a0200009a0200009a0200009a02000095
:0803f8009a0200009a020000c5
:020000040000fa
:10373000253300002e3000006600000042430000e8
:043740000000000085
:020000040000fa
:103744000800fa00889fbe00c902a900c942a90066
:10375400c922a900c962a900c802a8002c43a90073
:10376400c002a8002c03a900c022a8002c23a90091
:10377400c842a8002c83a900c8a2a8006360a800be
:103784008660a9009660a8000002eb001419880066
:103794001410200024198800440e22000419880003
:1037a4000002eb00441988000002eb008419880031
:1037b40085a0a90021e3a800870507006000b800e0
:1037c4007602070001003700000000000002eb0051
:1037d40044198800800c2000310507000000000017
:1037e4000419800061026200e00f5200fcff320005
:1037f40004188000050020000400be0073f40700d4
:103804000002be0024408800354088002440800027
:1038140035408000849fbe0084b92900841f78004d
:103824000e00780019f90700e68757008040eb0086
:103834000040eb00a80507000e007800c005070053
:103844001400200044198800800c2000140507008f
:10385400000000000419800061026200e00f5200c1
:10386400fcff320004188000050020000400be00a4
:1038740056f407000002be0004408800154088008a
:103884004400200044198800800c2000040507002f
:10389400000000000419800061026200e00f520081
:1038a400fcff320004188000050020000400be0064
:1038b40046f407000002be004440880055408800da
:1038c4002400200044198800800c2000f404070020
:1038d400000000000419800061026200e00f520041
:1038e400fcff320004188000050020000400be0024
:1038f40036f407000002be0064408800754088006a
:1039040066408000774080004481200003822000cc
:10391400e28120000600be00f9020700e4408000b6
:103924006123b900140020000500200006024200b3
:1039340087824a006600200007002000860f52009c
:10394400878f5a00a0ff3e00046001007900370011
:103954000500370012003700280037004000370008
:103964005f00370062003700f6408000244080008a
:103974003540800040408000514080000840800075
:10398400194080000001be000800be0021020700ab
:10399400800c2000c204070078000700760037007e
:1039a4004536800004fe2f000482620044368800fd
:1039b40045368000f40f2e0084826200042021002a
:1039c400050272004436880055368000f40f2e003c
:1039d40004826200543688005536800004fe2f00ad
:1039e400048262003401b300543688006401070085
:1039f40064002000e44088005f0037008401070071
:103a0400e4ff2f00f44088004536800004fe2f00b8
:103a1400048262004436880045368000f40f2e008c
:103a2400848262000420210005027200443688006a
:103a340055368000f40f2e0004826200543688004c
:103a44005536800004fe2f00048262003401b30066
:103a54005436880034002000e440880046003700d3
:103a6400f6408000244080003540800040408000c3
:103a74005140800008408000194080000001be00d1
:103a84000800be00e3010700800c20008404070046
:103a94004536800004fe2f0004826200443688000c
:103aa40045368000f40f2e00848262000420210039
:103ab400050272004436880055368000f40f2e004b
:103ac40004826200543688005536800004fe2f00bc
:103ad400048262003401b3005436880026003700a3
:103ae4003a01070034002000e44088002200370037
:103af4004536800004fe2f000482620044368800ac
:103b040045368000f40f2e0004826200443688009b
:103b140055368000f40f2e0004826200543688006b
:103b24005536800004fe2f0004826200543688005b
:103b3400110037004536800004fe2f000482620025
:103b44004436880045368000f40f2e00048262005b
:103b54004436880055368000f40f2e00048262003b
:103b6400543688005536800004fe2f00048262001b
:103b7400543688000000000014ff37000000fa00eb
:103b8400881f7800c4408000e00f520029003a00ea
:103b9400044080001540800018c0b30002002800d3
:103ba400933824000400be0097f207000002780056
:103bb400e00f5200010035000044eb00e04f5400d8
:103bc4001c003200244080003540800018c0b3003f
:103bd40002002800933824000400be008af2070083
:103be40000027800e00f5200010035000044eb00b1
:103bf400e04f54000f0032004440800055408000e4
:103c040018c0b30002002800933824000400be004a
:103c14007df2070000027800e00f52000100350039
:103c24000044eb00e04f5400020032001400200076
:103c3400c4408800c4408000e10f52002a003a00ca
:103c4400044080001540800018c0b300020020002a
:103c5400a33f24000400be0069f2070000027800bc
:103c6400e00f520001003c000044eb00e04f540020
:103c74001d003200244080003540800018c0b3008d
:103c840002002000a33f24000400be005cf20700f1
:103c940000027800e00f520001003c000044eb00f9
:103ca400e04f540010003200444080005540800032
:103cb40018c0b30002002000a33f24000400be008b
:103cc4004ff2070000027800e00f520001003c00b0
:103cd4000044eb00e04f54000300320024002000b5
:103ce400e44088002c003700c4408000e10f5200fb
:103cf40029003a00044080001540800018c0b30039
:103d040002002800933824000400be003ef207009d
:103d140000027800e00f5200010035000044eb007f
:103d2400e04f54001c0032002440800035408000e5
:103d340018c0b30002002800933824000400be0019
:103d440031f2070000027800e00f52000100350054
:103d54000044eb00e04f54000f0032004440800068
:103d64005540800018c0b300020028009338240096
:103d74000400be0024f2070000027800e00f5200a5
:103d8400010035000044eb00e04f54000200320013
:103d94000002eb00c44088004f0478000080fa0061
:103da400000006000000fa00881f7800044080002c
:103db4001540800018c0b30002002000a33f240077
:103dc4000400be000ef2070000027800e00f52006b
:103dd40001003c000044eb00e04f54001c003200a2
:103de400244080003540800018c0b3000200280041
:103df400933824000400be0003f207000002780098
:103e0400e00f5200010035000044eb00e04f540085
:103e14000f003200444080005540800018c0b300b9
:103e240002002000a33f24000400be00f4f10700b8
:103e340000027800e00f520001003c000044eb0057
:103e4400e04f54000200320014002000c4408800f7
:103e5400c4408000e10f52002a003a000440800070
:103e64001540800018c0b30002002000a33f2400c6
:103e74000400be00e2f1070000027800e00f5200e7
:103e840001003c000044eb00e04f54001d003200f0
:103e9400244080003540800018c0b3000200200098
:103ea400a33f24000400be00d5f1070000027800ff
:103eb400e00f520001003c000044eb00e04f5400ce
:103ec40010003200444080005540800018c0b30008
:103ed40002002000a33f24000400be00c8f1070034
:103ee40000027800e00f520001003c000044eb00a7
:103ef400e04f54000300320054002000e4408800e6
:103f04001c003700044080001540800018c0b30036
:103f140002002800933824000400be00baf1070010
:103f240000027800e00f5200010035000044eb006d
:103f3400e04f54000d003a0044408000554080009a
:103f440018c0b30002002800933824000400be0007
:103f5400adf1070000027800e00f520001003500c7
:103f64000044eb00e04f5400020032000002eb007a
:103f7400c44088004f0478000080fa000000060066
:103f84000200fa000001eb00812520000000eb0094
:103f9400a00007000002eb00040f78000002eb0011
:103fa400040f780003003700800c20003c03070056
:103fb4001e0fe800341f20009e027800848f5200f8
:103fc400f9ff34000080fa00000006000200fa0045
:103fd4000000eb008f0007000002eb00040f7800e4
:103fe4000002eb00040f780003003700800c20006f
:103ff4002b0307001e0fe800f47c20009e027800cb
:10400400848f5200f9ff34000080fa00000006009b
:104014000200fa00881f78004536800004fe2f0055
:10402400048262002401b3004436880045368000cf
:10403400f40f2e0004826200443688005536800056
:10404400f40f2e0004826200543688005536800036
:1040540004fe2f00048262003401b3005436880049
:104064008001eb000001eb0081252000602220008c
:10407400680007000002eb00040f78000002eb0068
:10408400040f780010003700800c200004030700a0
:10409400244080003540800018c0b300020028008e
:1040a400933824000400be0057f107000002780092
:1040b400e00f5200010035000044eb00e04f5400d3
:1040c40006003a001e0fe800743e20009e027800ad
:1040d400848f5200ecff3400010037000000000020
:1040e4004f0478000080fa0000000600801f78006a
:1040f400849fbe003400f80000002000a001880066
:104104000000fa008660a900551680000402200011
:1041140004826200e00f52001b003a00e440800079
:10412400e10f420016003a000002eb00e440880070
:104134004536800004fe2f00048262004436880065
:1041440045368000f40f2e00848262000420210092
:10415400050272004436880055368000f40f2e00a4
:1041640004826200543688005536800004fe2f0015
:10417400048262003401b300543688000200370020
:104184000082eb00e44088000080fa003400f9006b
:104194004f02be004f007800004006000400fa0001
:1041a400008fbe000002eb00140c88000002eb003c
:1041b400040c88008461a800240c80000400a10081
:1041c4000410a0000420a000240c88000002eb00ce
:1041d400440c88000002eb00340c88008a61a800bb
:1041e400540c80000400a1000410a0000420a000ce
:1041f400540c88000002eb0054088800440020009e
:104204007408880004032800940888000080fa00d9
:10421400000006001e00fa00881f7800000f9800b6
:10422400110f9800220f9800330f9800440f980044
:10423400550f9800660f98006022b800048fbe00e6
:104244006022b80024079800350798006022b8005f
:1042540044079800550798006022b8006407980046
:104264007507980018c0b30002002000a33f240083
:104274004e089000de089000e1f00700000278008c
:10428400e00f520001003c000044eb00e04f5400fa
:104294001800320018c0b30002002000a337240025
:1042a4002e089000be089000d5f0070000027800a8
:1042b400e00f520001003c000044eb00e04f5400ca
:1042c4000c00320018c0b30002002000633924003f
:1042d4000e0890009e089000c9f0070000027800c4
:1042e400e00f520001003c000044eb00e04f54009a
:1042f4007f003a0018c0b30002002000f33a240003
:104304004e089000de089000bff00700000278001d
:10431400e00f5200010035000044eb00e04f540070
:10432400090032000400200065412400240f980095
:10433400350f98000400280025422400040f98003b
:10434400150f98002000370018c0b30002002000a9
:10435400833424002e089000be089000aaf00700c1
:1043640000027800e00f5200010034000044eb002a
:10437400e04f5400040032000400200065312400a2
:10438400240f9800350f980018c0b30002002000d5
:10439400a33724000e0890009e0890009af00700ae
:1043a40000027800e00f5200010034000044eb00ea
:1043b400e04f54000400320004002000853424003f
:1043c400040f9800150f980002002000832c24008d
:1043d4002e089000be0890008df007000002be0079
:1043e4006266260063f223000400be00e6f00700c4
:1043f4000002be0002002c00f33f24000400be00b3
:1044040015f107000002be00a299290093e92300d8
:104414000400be007ff007000002be00640798009d
:104424007507980002002000633124000e089000f4
:104434009e08900076f007000002be00a2992900b1
:1044440093f123000400be00cff007000002be0079
:1044540002002c00f33f24000400be00fef007001d
:104464000002be003233230033eb23000400be00fd
:1044740068f007000002be00440798005507980042
:1044840002002000030824004e009000de0090008b
:10449400bdf007000002be00048fbe001e00be0077
:1044a4002ff107000002be0004027800040c88000b
:1044b40002002000030824006e009000fe0090001b
:1044c400b1f007000002be002407980035079800e9
:1044d4002e009000be00900021f107000002be00f3
:1044e40004027800340c880000000000010037004a
:1044f400000000004f0478000080fa00000006006d
:104504000a00fa00881f7800008fbe002207980076
:1045140033079800440798002e0290001402780094
:10452400e20f420003003200e10f420010003200ab
:104534006b00370018c0b3000200200003122400ef
:104544001e00be0030f0070000027800e00f5200a9
:10455400010034000044eb00e04f5400eb00320053
:104564002e0290008082eb00050a7800ee003700ee
:104574004e0290001402be0018c0b3001e01be001b
:104584000400be0020f0070000027800e00f520093
:10459400010035000044eb00e04f540003003200fa
:1045a4004e0290003e1a78002e1278004e029000bf
:1045b4001402be0018c0b3000200200083212400ae
:1045c4000400be000ef0070000027800e00f520065
:1045d40001003d000044eb00e04f54000f003200a6
:1045e400360207008040eb0010c0b3003a02070017
:1045f400e0b9290052020700a0c3b3004702070034
:104604002e0290008002eb00050a78004e03900011
:104614006022b800048bbe00c300370018c0b3008a
:1046240002002000031224001e00be00f6ef070063
:1046340000027800e00f5200010034000044eb0057
:10464400e04f5400b30032004e0290001402be004a
:1046540018c0b30002002000832124000400be001f
:10466400e9ef070000027800e00f52000100350076
:104674000044eb00e04f5400a80032004e029000ca
:104684001402be0018c0b30002002000831c2400e2
:104694000400be00daef070000027800e00f5200c9
:1046a40001003d000044eb00e04f54009d00320047
:1046b4004e0390006022b800048bbe003e039000bd
:1046c40004002800b54b2400048bbe00fb01070046
:1046d4002e029000e5ff2f00050a780092003700b3
:1046e40018c0b30002002000832124001e00be0075
:1046f400c3ef070000027800e00f520001003c0005
:104704000044eb00e04f5400190032003e029000d8
:104714001402be0018c0b30002002000a347240006
:104724000400be00b6ef070000027800e00f52005c
:1047340001003d000044eb00e04f54000c00320047
:104744002e029000940278002e029000050a780050
:104754003e03900004002800b54b2400048bbe00e7
:104764004e0390006022b800048bbe00570037004f
:104774003e0290001402be0018c0b3001e01be0029
:104784000400be009eef070000027800e00f520014
:1047940001003c000044eb00e04f540004003200f0
:1047a4003e0290003e1a78002e127800470037002f
:1047b40018c0b30002002000832124001e00be00a4
:1047c4008fef070000027800e00f520001003d0067
:1047d4000044eb00e04f54003c0032002e029000f5
:1047e4001402780004427800634242008440780056
:1047f40010c0b300b80107003e0290001402be00ce
:1048040018c0b30002002000031224000400be00fc
:104814007def070000027800e00f52000100340031
:104824000044eb00e04f54000300320000c3b30027
:10483400ba0107001c0037003e0290001402be00bb
:1048440018c0b30002002000031224000400be00bc
:104854006bef070000027800e00f520001003c00fb
:104864000044eb00e04f54000f0032003e02900081
:104874001402be0018c0b3000200200083212400eb
:104884000400be0060ef070000027800e00f520051
:10489400010035000044eb00e04f540002003200f8
:1048a40010c3b3009d0107002e029000140278008b
:1048b4008402e8002e029000050a78003e0390006e
:1048c40004002800b54b2400048bbe002e02900087
:1048d40014027800e40f520007003a002e02900000
:1048e400e5ff2f00050a78003e039000040028002d
:1048f400b54b2400048bbe004e0390006022b80028
:10490400048bbe0000000000070037000000000018
:10491400050037000000000003003700000000001d
:1049240001003700000000004f0478000080fa0006
:044934000000060079
:020000040000fa
:104938001c0800000800000002000000fffffe0045
:10494800ff008000bb440000000800001c000000bd
:104958000000000084090000b80000000200000008
:10496800286e75006c6c2900003031003233340039
:1049780035363700383961006263640065660000c7
:10498800010000000000000000000a000000000014
:1049980000000000006400000000000000000000ab
:1049a800e8030000000000000000100027000000dd
:1049b8000000000000a086000100000000000000c8
:1049c80040420f00000000000000800096980000a0
:1049d800000000000000e100f505000000000000f4
:1049e80000ca9a003b00000000000000e40b5400dd
:1049f800020000000000e8007648170000000000f0
:104a08000010a500d4e8000000000000a0724e00cd
:104a180018090000000040007a10f3005a00000056
:104a28000080c600a47e8d000300000000c16f0056
:104a3800f2862300000000008a5d780045630100cb
:104a480000006400a7b3b600e00d000000e889008c
:104a58000423c7008a000000240800006001000049
:104a6800020000000000000000000000f03f00000d
:104a780000000000000024004000000000000000ca
:104a88000059400000000000000040008f40000076
:104a9800000000000088c300400000000000000083
:104aa8006af8400000000000008084002e410000e9
:104ab80000000000d01263004100000000008400e4
:104ac800d7974100000000000065cd00cd410000ef
:104ad800000020005fa002004200000000801d00ce
:104ae800af1544000000000040593e002946000070
:104af800000000000000f0007f000000000000003f
:104b080000f07f000000000000000000f07f0000bf
:104b1800000000000000f0007f000000000000001e
:104b280000f07f000000000000000000f07f00009f
:104b3800000000000000f0007f00000000000000fe
:104b480000f07f000000000000000000f07f00007f
:104b5800000000000000f0003f00000000a09900e5
:104b680099b93f000000000040e17a00843f00004e
:104b78000000e0004d6250003f00000000e0e2004d
:104b8800361a3f000000000080b5f800e43e00003f
:104b98000000a000f7c6b0003e00000000a0f20030
:104ba800d77a3e0000000000e08e7900453e000004
:104bb8000000e0000b2e11003e00000000e0df00c6
:104bc8007cdb3d000000000000a19c00c73b00000a
:104bd800000000004c48b40039000000000020002c
:104be8006ca1370000000000000000000000000079
:104bf80000000000000000000000000000000000ad
:104c0800000000000000000000000000000000009c
:104c1800000000000000000000000000000000008c
:104c2800000000000000000000000000000000007c
:104c38000000000000000000000000003c0a000026
:104c48002600000002000000630a000000630a005a
:104c58000900000000020000650a000000650a0063
:104c68000e0201000000000000000000000000002b
:104c780006020200000000003c0a0000620a000070
:104c88000600000000000000680a000002000000a2
:0c4c98000200000001000000000000000d
:020000040000fa
:104ca4000200fa00000f780004012800840888003c
:104cb4000002eb00340888001e027800040242005f
:104cc4000402e9006408880084e0a90000000000f0
:104cd400250480000408200004826200e00f5200d2
:104ce400fbff320011e1a90084e0a9000080fa0072
:104cf400000006000400fa00004f78001107980035
:104d04009e42780061c262000482fb00610262007c
:104d14004722dd0066168000f5f72f008502630048
:104d240005027200641688001e009000dcff070074
:104d3400ccc2a8001e009000d9ff0700ccc2a90075
:104d44001e009000d6ff07000080fa000000060055
:104d54000600fa00004f7800110798002207980017
:104d640065168000f4ff2000848262001e427800f1
:104d74000483fb00040f2000040263004822dd00ca
:104d840005027200641688001e0290000442780036
:104d9400ae00900004407800d6ff0700651680003e
:104da400f4ff2000848262001e4378000682fb0028
:104db4004c22dd0005027200641688001e02900079
:104dc40004427800ae00900004407800c9ff070058
:104dd4000080fa00000006000000fa00c8e2a90002
:104de400c8c2a900c9e2a900c9c2a900c9a2a900f0
:104df400c982a9000002eb0064168800cce2a90075
:104e0400ccc2a90080a92300a5ff07006516800075
:104e1400f4ff200084826200040023000502720073
:104e240064168800410021000040eb00b1ff070038
:104e340065168000f4ff20008482620004002300d1
:104e44000502720064168800410620000040eb0051
:104e5400a8ff0700420620008000eb0020c3b30037
:104e6400bbff0700820220008000eb0080c2b30079
:104e7400b7ff0700820220008000eb0080c0b3006f
:104e8400b3ff0700826620008000eb0010c0b3006f
:104e9400afff0700820220008000eb0060c0b30077
:104ea400abff0700220320008000eb00c0c0b3006a
:104eb400a7ff07000080fa00000006000000fa00c7
:104ec400025f20008000eb0010c0b300a0ff0700c9
:104ed4000080fa00000006000200fa00004f78008b
:104ee400114798009e4278000582fb004622dd00af
:104ef4008442780004c8b30084c272001e42900049
:104f040004c27200820220008000eb00044078009a
:104f14008fff07000080fa00000006000200fa007c
:104f2400004f78001e427800820220001100200009
:104f34000440780086ff07000080fa0000000600a5
:104f44000200fa00000f7800050037001e02780006
:104f5400144278001e0fe80004407800efff0700b9
:104f64001e02780014427800e04f5200f7ff3a0026
:084f74000080fa0000000600b5
:00000001FF
