:020000040000fa
:080000000002040000000000f2
:020000040000fa
:10040000ef8f20000e7f22000e0188000000000008
:1004100000012000200288000c0007002085210038
:100420000100200011000700000020000000e00093
:100430000200320000000200000000005813020019
:10044000000000000040da000000fe004440a90067
:10045000e00020000000e000030032000000200067
:10046000a00188004440a800000006009101880017
:10047000800078000000eb0015003700e2804000ab
:1004800032a0b4009101ba00e280400032a0b40072
:100490009102ba00e280400032a0b4000002eb00fa
:1004a000472bde00f507b200602ce10004003a00a3
:1004b0000059eb008301e900fdff3e000400370016
:1004c0006128e100010032000082eb000400070017
:1004d0001101ba000200e000e8ff3a000000060047
:1004e0003159ba008301e9000c0032002159ba00e9
:1004f0008301e900080032000400e00003003a0034
:10050000e280400032a0b400f5ff370011d9ba00f4
:100510008301e900faff3a008100e800e180400031
:1005200032a0b4000000060000000000000000003f
:1005300000000000000000000000000000000000bb
:100540000040da000000fe0000c0da0000000600f3
:100550000a00fa00e20f500022003e00e44780004b
:10056000e10f5200060032008723200046232000be
:100570002423200005232000e08f530004003a00cc
:10058000872220004622200024222000052220006d
:10059000000028001500600003003a00800b78007e
:1005a00007002800958a73000540200094826200ad
:1005b00001003a0014a0a000820278000600370073
:1005c000940378000710b200fdff3200b103fb0076
:1005d000070b78008502e900e08f5200f8ff3a002f
:1005e0000800370034002000b4bf9f00c0bf9f0048
:1005f000d1bf9f00e2bf9f006a805700d2ff070073
:100600006fb99700020078000080fa000000060031
:100610004f89de0082017800f3003700889fbe001a
:100620008a9fbe008c1f7800ff0007000601330080
:1006300003866c006450e100240032006420e10075
:10064000270032006150e100220032006120e10009
:10065000210032008b854200eb07b1000134b80065
:10066000003ab8000804420089844a00013ab80000
:100670000030b8008880400009014a0004003300bf
:100680000000400081804800020149008b05e9001c
:10069000c909dd0083017000010032001300200051
:1006a000c814de004814dd004709de001200b20065
:1006b000c808de0008847000f300070001f0a10004
:1006c0000cf0a70001f0a000e80037006120e10075
:1006d000ea0032000801be000200be00f7ff37004a
:1006e0006150e100fcff3a00e400370003f0a20093
:1006f000889fbe008a9fbe008c1f7800ca0007003a
:10070000d10033006450e1004f0032006420e1006a
:100710005200320003826c0007003b000905d00044
:100720000306d000820f54000c065d000200390061
:1007300002003200890178000306780085825500a6
:1007400004003d000003fd008103fd008502ea0076
:100750008b854200840f720002003b006000100095
:10076000e08018006011b8000005eb007a28e10075
:100770000a00390006007800c75ddd00f707b20007
:10078000878075002d003700828171000a01780092
:10079000610560008180d1000080d3008502e900fe
:1007a000f9ff3b00060440008784480002003b003c
:1007b00060041400e0841c000988a30007003200d4
:1007c0008a81710082817100610164008904d10015
:1007d0000884d3008b05e800170037000978a300d0
:1007e00013003a000b00e000130034008b05e90011
:1007f0000804440089844c000a4474000978a3006a
:100800000d003a000b00e000070034008b05e90002
:100810000804440089844c0001003a000b002000c9
:100820000978a300f7ff32000001eb000200370057
:10083000828171000a017800930007000cf0a70084
:1008400001f0a000890037006420e10002003a00b6
:10085000838f6c00890033000801be000200be00d7
:1008600082003700889fbe008a9fbe008c1f7800e0
:100870006d0007007400330003866c006450e100d3
:100880002e0032006420e100330032006150e100ac
:100890002f0032006120e1003100320085855500d3
:1008a000eb07b00009002000080420000500370015
:1008b0000804440089844c000a0031000603430008
:1008c00087834b000001530081815b00f8ff3300f8
:1008d0000203be000800a0000804440089844c0004
:1008e000f6ff3900c639dd008301730001003200d4
:1008f000130020008904d1000884d3000998a300c4
:10090000050032000800a7000300a0008904d10000
:100910000884d3008b05e8008904d1000884d30043
:100920000001eb000281d2005700070001f0a10096
:100930000cf0a70001f0a0004c0037006420e1009b
:100940004e0032000801be000200be00f7ff370073
:100950006120e100490032006000b800f3ff370079
:100960000000200001f82700f0ff370014002000ed
:100970006b0037000001be00840007000470a70070
:1009800003f0a10003f8a30013003a006509b100c9
:1009900010003200090035006928e100020035002e
:1009a0000100280000000500000040008180480090
:1009b0008502e900fcff3a0000000600f88f4200c3
:1009c000050035008100d1000080d3008502e800d9
:1009d000fcff3a00000006008000eb00000005006c
:1009e000f4ff2f004e003700881f780003047800c2
:1009f0000300e00007003d0060001000e0801800e8
:100a000060011900e081190002003b0001f02d0097
:100a1000030037007200070008f0a70001f0a000f3
:100a20004f047800000006000004be0057000700d5
:100a30000003be000405be000200be005300070014
:100a4000844f7500000006000200be006450e10003
:100a5000050036006420e100020036000968a300aa
:100a600001003a000800be000160a0004f067800b7
:100a70004f05be004f04be0000000600f0ff2f002f
:100a8000f1ff2700f9ff3700810020006180550049
:100a90000b003d000b00200061fe2f000100e10073
:100aa0001d00340082817100610164008904d1005d
:100ab0000884d3000000e800faff3a00710020002b
:100ac0006100640003007000020060000900320051
:100ad00061044400e0844c000988a5000500320050
:100ae0008b05e8006808e10002003a008904d100a3
:100af0000884d300f20f20000258e10005003d00f9
:100b0000c75ddd00f907b200898075000800780034
:100b1000000006000bf827008b007800000005009d
:100b2000889fbe008a9fbe00841f7800beff07001a
:100b30004f00780011003300f0ff2f00838f6c000e
:100b400006003b00040565000a00a7000800370006
:100b500009f0a6001000200008003700820f5400a2
:100b6000838f5c00030039001000200001003e006c
:100b70000000200009f0a7000000ea004f05be00b9
:100b80004f04be000000e00000000600c70ade00bf
:100b9000f107b200f50fb20008003200e1cf4200c9
:100ba000020032000170a00024000500810f7000d7
:100bb000010032000408050044000500810f7000a8
:100bc00002003a00140005008502e9000000400020
:100bd00081c04800fcff3b000170a000240005001c
:100be000889fbe008a9fbe000082700004027100d0
:100bf00004827100260032000004be000200be0024
:100c00006011b8006b092000950220000182cf001e
:100c10000a0039000541b1000082cf000700390009
:100c20000541b1000982cf00040039000541b1003f
:100c30000882cf00010039000541b1000542520091
:100c4000120032000a003b008281710061016400e1
:100c50008100d1000080d3008984d3000884d300b0
:100c60008b05e8000442e800f7ff3a000700370070
:100c70000804440089844c0000004800818048003a
:100c80008b05e9000442e900f9ff3a007eff070006
:100c90004f05be004f04be0000000600889fbe0046
:100ca0008a9fbe003004be002005be00040444003c
:100cb00085844c0006054d0087854d000898be00d0
:100cc0000a90be000440e10005c8e10006d0e10042
:100cd00007d8e10002003100680040001008e80079
:100ce0004f05be004f04be00000006001000fa00d1
:100cf000889fbe008a9fbe000605be000404be0099
:100d00003002be002003be00c4b79f00d5b79f00cd
:100d1000e6b79f00f7b79f000802520089825a0089
:100d20000a035b008b835b0084bf9f0095bf9f001d
:100d3000a6bf9f00b7bf9f000498be000698be00e4
:100d4000110020004fb29700dfb297006fb39700f9
:100d5000ffb39700b2000700010039008000eb00ec
:100d6000108810004f05be004f04be000080fa003e
:100d7000000006001400fa00889fbe008a9fbe0093
:100d80008c9fbe00790007000605be000404be006b
:100d90000006eb00ccb79f00bcb79f00acb79f002c
:100da0009cb79f008cb79f000d0420004fb39700a5
:100db000bfb29700860343002fb29700e00f5300a5
:100dc00004003d009b0007000f004000b3ff070038
:100dd00003003700970007000f004000c3ff070023
:100de000cfb2970095bf9f00e08f520009003500f9
:100df0006500070014002000050020006033b800e3
:100e00000000720081807200020173008381730010
:100e1000560007000c06e8008d0f5600e3ff3a006d
:100e20001fba9700e00f520005003d000802be0007
:100e30000a03be0000fe2f000f00400097ff0700ce
:100e40004faa9700e00f520008003a000fb4970035
:100e50009fb497002fb59700bfb59700d8b79f00f4
:100e6000e9b79f00fab79f008bbf9f0046000700bd
:100e70004f06be004f05be004f04be000080fa00c2
:100e800000000600881f780018002000881f7800e6
:100e9000b8ff07008f87e9004f04780000000600c4
:100ea000801feb00b3ff07008f87e90000000600fa
:100eb000889fbe008a9fbe004100070007003d00da
:100ec00044000700180020004900070008003d000a
:100ed0002f0007000004eb00050037000004eb00c2
:100ee0004300070002003d00290007001800200011
:100ef000e4ff0700e00f540001003200410007004a
:100f00004f05be004f04be0000000600889fbe00d3
:100f10008a9fbe008c1f78002900070005003d0055
:100f20002c0007001c0020003d00070007003d00ca
:100f3000050037000006eb002d00070003003d0010
:100f40006044b8006055b80013000700d4ff0700e4
:100f5000e00f5600010032002a0007004f0678001b
:100f60004f05be004f04be00000006000100070050
:100f70000000060090b79f00a1b79f00b2b79f0086
:100f8000c3b79f000000060008000700000006002d
:100f90006044b8006055b8000402540085825c00cb
:100fa00006035d0087835d00000006001fb0970008
:100fb000afb097003fb19700cfb197000000060097
:100fc000e00f5000e08f5800e00f5900e08f59000b
:100fd000000006006044b8006055b80000005400ee
:100fe00081805c0002015d0083815d0000000600dd
:100ff000e00f5200e08f5a00e00f5b00e08f5b00d3
:10100000000006006022b8006033b8000000520003
:1010100081805a0002015b0083815b0000000600b2
:101020000820e10009a8e1000ab0e1000bb8e100e6
:10103000000006004f2bde0087037300a7b79f0058
:101040004f23de00858242008502730095b79f0022
:10105000ffaa97004f2bde00040242000402730037
:1010600084b79f006faa97004f23de00858242005d
:1010700085027300f5af9f00ccff07004f18de001c
:101080000402420000027200e4af9f00c7ff0700a5
:10109000000040008180480002014900838149002e
:1010a000b4ff07000802be000a03be0000fe2f00c6
:1010b000000006000c00fa00889fbe0000047800c3
:1010c000f4ff2700d4bf9f008004eb0099bf9f006e
:1010d00088bf9f00a8bf9f00240c2000b4bf9f00c2
:1010e00078815700cfb09700708057000700070045
:1010f0000fba9700094a78000fba9700080052000b
:101100004f04be000080fa00000006002f02b0006d
:10111000889fbe008a9fbe008c9fbe008e1f7800f5
:10112000c0b79f00a1b79f00b2b79f000006eb00b9
:10113000d2013700afb097008100e800a1b79f004f
:1011400054c2b300844f500006003a0001027800f8
:101150008042eb0002c3b30001c2b300b0c2b300cf
:10116000070037000000fb00cfb09700cf01070059
:10117000e10f4000c10132000c06e800bf0137005a
:1011800004037800b4437800d3c2b30083cf530084
:101190000900320005003c0081cf530008003200f6
:1011a00080cf53000c003a000700370082cf530075
:1011b00009003a00060037000534a000f0ff3700b0
:1011c0000504a000eeff37000514a000ecff370077
:1011d0000524a000eaff37006282620001003200ad
:1011e0000504a10068826200010032000524a1000c
:1011f0000702fb000403b100e90f52000c003e009f
:10120000860378000002eb006a20b9003702fb0079
:101210000403b10000024200070378001700fb003e
:101220000003b100e90f5000f7ff36000800370057
:101230000002eb00a0c2b30080cf530004003a00cc
:10124000bfb3970047027800b7b79f000603e800d6
:101250008006eb00e7c2b30096cf130009003a0006
:10126000e4c35300d6cf1300020032008603780097
:101270000a0037003fb09700c0067800b0b79f0063
:101280000603e8008603780031c6b300c0c6b30089
:10129000080037006a69b900820640000703780039
:1012a0003700fb000003b100e90f5000f9ff3600e2
:1012b000f4ff37000701780032437800820378009a
:1012c00033c7b300834f53001a00320008003c00bc
:1012d000814f530059003200804f53000c00320000
:1012e000a2b79f00e04f530069013200740037003d
:1012f000a2b79f0057c7b300874f53007500320055
:10130000e3c34300874f53006d003a0006003700e7
:101310007081620006c1b300010032000043eb009f
:1013200086c27200e3ff3700a6d79f000574a000b5
:101330006b003700a2b79f0036c7b300a6d79f0047
:10134000bfb3970047037800b7b79f000604780043
:10135000e00f530001003a00e88d20008803780078
:101360000003eb00010037000603e80067407b0044
:10137000e04f5000fcff3a0086047800e08f5600f2
:1013800003003200898f5600010031008d0478007f
:101390008006eb00890f52000100360089065200da
:1013a0006887620014003a0007003700cfb097004a
:1013b000000220003d010700e10f40000100320063
:1013c0000c06e8008d06e900e08f5600f7ff3a00b2
:1013d0008086eb0008003700080278003400fb002c
:1013e00004047800cfb0970030010700e10f4000ff
:1013f000010032000c06e800090278008404e900cc
:10140000e00f5200f4ff3a00e00f57001b013200da
:1014100007003700cfb0970000022000230107002b
:10142000e10f4000010032000c06e8008d06e900e3
:10143000e08f5600f7ff3a0010013700a2b79f0077
:101440003fb0970040037800b0b79f0006007800d7
:10145000cf80de000101780082017800d0b79f00c4
:10146000e1b79f00f2b79f0083bf9f004800de00f6
:10147000480bdd0000007300a0d79f00f0836200de
:1014800009003200e04f500007003200e14f4000f9
:1014900005003200b0d79f00afeb9700c7d79f0081
:1014a00029002000030037002fe89700b0d79f00e5
:1014b0001900200038fd2f000f044400afff370053
:1014c000a6d79f0028fd2f000f044400190020001c
:1014d000aaff3700a6d79f0006ccb30086c27200d1
:1014e0008582fb00d5b79f0085007800f082600000
:1014f0000e003200bfb297004501be00b5b79f0095
:10150000d2af9f00e3af9f000003eb00f6af9f0058
:101510008003eb0087b79f005fac9700efac9700ac
:101520007fad97008fb59700060037003fb097005a
:1015300040047800b0b79f00090020000a00200096
:101540000b002000e08f560007003a001d0020002d
:10155000e00f5400e08f5c00e00f5d00e08f5d0065
:10156000010032008006eb00dfb09700010cb200f2
:1015700091b79f0005082000858f500010003200b1
:10158000050c2000858f500021003a0006822000c3
:1015900015c0b3003600be003601be000040e100b9
:1015a00001c8e10002d0e10003d8e10017003900d2
:1015b0008542e800f4cf5200f6ff3a0013003700ee
:1015c00015c0b30000012000010020006011b80028
:1015d0000040e10001c8e10002d0e10003d8e100d1
:1015e0000a003900460020000000d0008180d200af
:1015f0000281d2008381d2000603e900faff3a009b
:101600008542e800f0cf5200f1ff3a00a5d79f00d5
:10161000afd397008702fb008d8f520002003d0080
:10162000add79f0003003700858f560001003d00b5
:1016300085067800e00f5200040032005fb097008a
:10164000e3026000010032000402e900afd097001d
:101650008102fb000007eb00850f520001003400ff
:10166000050752005fb19700640261001c00320060
:10167000e202610061026100e08f52000600320068
:10168000b0022000e00f5200010032000080e800ac
:10169000cfb0970004003700e00f52000600320080
:1016a000cfb097000002200080000700e10f40004b
:1016b000010032000c06e800e00f5700290032005c
:1016c000cfb097000003200078000700e10f400032
:1016d000010032000c06e8000e07e900f6ff3700b3
:1016e000e00f57000b003200dfb197006882610005
:1016f00008003a00cfb09700000220006b000700fe
:10170000e10f4000010032000c06e8000e07e9007e
:10171000f8ff3a005fb29700e2026200040378002b
:1017200061026300e08f520006003200b002200028
:10173000e00f5200010032000080e800cfb09700b7
:1017400004003700e00f520006003200cfb09700cf
:101750000002200055000700e10f400001003200a8
:101760000c06e8000d02e9004323dd00858120001e
:1017700085024300c5af9f004222dd002f003700e5
:101780008d06e9009fb3970000082000808f53006a
:1017900010003200040c2000848f53001b003a001c
:1017a000cfa897003102be002103be000800be0092
:1017b0000a01be00b3fd0700a400200005002000c0
:1017c0006033b800b6fd070004c3b3000442400014
:1017d0000d0037000802be000a03be003fa89700b4
:1017e0000000e900050033008703d1000683d30021
:1017f0008582d3000482d300f9ff37006f026200b4
:10180000518e200061427a00a4d79f002fd197000b
:101810000200fb00cfb0970024000700e10f40005a
:10182000010032000c06e800cfa99700e8815100c2
:10183000c3af9f003faa970064025200b4af9f005d
:10184000e08f5600ceff3a00dfb297006882620058
:101850000a003200e00f570008003400cfb09700b4
:101860000002200011000700e10f400001003200db
:101870000c06e8000e07e900f8ff3a002fb39700c6
:1018800016407800a0d79f00e04f500029fe3a0094
:101890000c0078004f0778004f06be004f05be00d1
:1018a0004f04be002f02b10000000600889fbe005a
:1018b0000104780038029000e20262008084eb00ac
:1018c0003b003200040378000620b200980290002a
:1018d00002003a00e08f520035003a000490a00068
:1018e0003404980080047800f90fb200e08f5200b1
:1018f00002003a00a8029000050c7800ea8f54001c
:1019000005003a000408b20003003a00880078009d
:10191000d0002000e5ff070018029000d8029000d8
:10192000850f52000b0032000402e80014049800f6
:1019300018027800094a7800040ce80015c0b300ca
:10194000648f2000054a7800ea8f540018003a009e
:10195000050037008800780009407800170007006c
:101960008004780012003700380290000410b200a2
:101970000f00320018019000a8009000480090006d
:10198000f3fa070018029000840f500004003200a0
:10199000380290000403b300340498008084eb0004
:1019a0000002eb001404980028029000040c780058
:1019b000090078004f04be00000006000200fa0093
:1019c000889fbe00a0ff9f000104780038029000ad
:1019d000840278000504b200020032000000fb001f
:1019e00035003700e202620005003a000403b3004c
:1019f00034049800150498000080eb002e00370096
:101a0000d8049000e08f540006003a001200200035
:101a1000e680570048009000cdfa070019049800ae
:101a200023003700a8029000e08f520008003a001f
:101a3000958f200025049800050c780025002000d3
:101a400055049800150498000430a0003404980050
:101a500018019000a800900048009000bcfa070010
:101a6000280290008082eb0015049800affa9700de
:101a7000054a7800040ce8002ffa9700ea4f52005c
:101a80000b003a00380290000410b2000800320047
:101a900018019000a800900048009000acfa0700e0
:101aa0000002eb0014049800a8029000050c7800d6
:101ab0002ffa97000400fb004f04be000080fa00dc
:041ac000000006001c
:020000040000fa
:020000040001f9
:0457f800ad7b000085
:020000040000fa
:020000040001f9
:0457fc003f3f00002b
:020000040000fa
:10000800a0020000a0020000a0020000a002000060
:10001800a0020000a0020000a0020000a002000050
:10002800a0020000a0020000a0020000a002000040
:10003800a0020000a0020000a0020000a002000030
:10004800a0020000a0020000a0020000a002000020
:10005800a0020000a0020000a0020000a002000010
:10006800a0020000a0020000a0020000b8160000d4
:10007800a0020000a0020000a0020000a0020000f0
:10008800a0020000a0020000a0020000a0020000e0
:10009800a0020000a0020000a0020000a0020000d0
:1000a800a0020000a0020000a0020000a0020000c0
:1000b800a0020000a0020000a0020000a0020000b0
:1000c800a0020000a0020000a0020000a0020000a0
:1000d800a0020000a0020000a0020000a002000090
:1000e800a0020000a0020000a0020000a002000080
:1000f800a0020000a0020000a0020000a002000070
:10010800a0020000a0020000a0020000a00200005f
:10011800a0020000a0020000a0020000a00200004f
:10012800a0020000a0020000a0020000a00200003f
:10013800a0020000a0020000a0020000a00200002f
:10014800a0020000a0020000a0020000a00200001f
:10015800a0020000a0020000a0020000a00200000f
:10016800a0020000a0020000a0020000a0020000ff
:10017800a0020000a0020000a0020000a0020000ef
:10018800a0020000a0020000a0020000a0020000df
:10019800a0020000a0020000a0020000a0020000cf
:1001a800a0020000a0020000a0020000a0020000bf
:1001b800a0020000a0020000a0020000a0020000af
:1001c800a0020000a0020000a0020000a00200009f
:1001d800a0020000a0020000a0020000a00200008f
:1001e800a0020000a0020000a0020000a00200007f
:0801f800a0020000a0020000bb
:020000040000fa
:10020800a0020000a0020000a0020000a00200005e
:10021800a0020000a0020000a0020000a00200004e
:10022800a0020000a0020000a0020000a00200003e
:10023800a0020000a0020000a0020000a00200002e
:10024800a0020000a0020000a0020000a00200001e
:10025800a0020000a0020000a0020000a00200000e
:10026800a0020000a0020000a0020000b8160000d2
:10027800a0020000a0020000a0020000a0020000ee
:10028800a0020000a0020000a0020000a0020000de
:10029800a0020000a0020000a0020000a0020000ce
:1002a800a0020000a0020000a0020000a0020000be
:1002b800a0020000a0020000a0020000a0020000ae
:1002c800a0020000a0020000a0020000a00200009e
:1002d800a0020000a0020000a0020000a00200008e
:1002e800a0020000a0020000a0020000a00200007e
:1002f800a0020000a0020000a0020000a00200006e
:10030800a0020000a0020000a0020000a00200005d
:10031800a0020000a0020000a0020000a00200004d
:10032800a0020000a0020000a0020000a00200003d
:10033800a0020000a0020000a0020000a00200002d
:10034800a0020000a0020000a0020000a00200001d
:10035800a0020000a0020000a0020000a00200000d
:10036800a0020000a0020000a0020000a0020000fd
:10037800a0020000a0020000a0020000a0020000ed
:10038800a0020000a0020000a0020000a0020000dd
:10039800a0020000a0020000a0020000a0020000cd
:1003a800a0020000a0020000a0020000a0020000bd
:1003b800a0020000a0020000a0020000a0020000ad
:1003c800a0020000a0020000a0020000a00200009d
:1003d800a0020000a0020000a0020000a00200008d
:1003e800a0020000a0020000a0020000a00200007d
:0803f800a0020000a0020000b9
:020000040000fa
:101ac400253300002e660000004900006e760000f9
:0c1ad400616c000069640000000000006c
:020000040000fa
:101ae0001800fa00881f7800200f9800310f980026
:101af0006022b80044079800550798006022b8009b
:101b000064079800750798006022b800048fbe0033
:101b10006022b80024079800350798006022b800ba
:101b2000040f9800150f980002002800f33f2400ce
:101b30002e089000be0890004afb07000002be007d
:101b4000040f9800150f980018c0b3000200200081
:101b500003f823000e0890009e08900083fb070006
:101b600000027800e00f5200010035000044eb0055
:101b7000e04f5400080032000400200005f8230064
:101b800024079800350798000e0a90009e0a9000de
:101b9000048fbe000b0037000400200005f823006e
:101ba000048fbe000e0990009e09900000002000e6
:101bb00001002400cdfa07000002be0024079800af
:101bc0003507980002002000030824001e00be0014
:101bd00092fa07000002be004407980055079800db
:101be00002002000030824002e009000be00900098
:101bf0008afa07000002be00640798007507980083
:101c00000002eb00140c88004e009000de009000f3
:101c100058fb07000002be0004027800040c880094
:101c20008461a800240c80000400a1000410a0001e
:101c30000420a000240c88000002eb00440c880063
:101c40006e009000fe0090004afb07000002be00fc
:101c500004027800340c88008a61a800540c8000cb
:101c60000400a1000410a0000420a000540c88006f
:101c70000002eb005408880044002000740888002b
:101c800004032800940888004f0478000080fa00bc
:101c9000000006002000fa00881f7800600f9800fe
:101ca000710f98006022b80044079800550798000b
:101cb0006022b80064079800750798006022b80099
:101cc000048fbe006022b8002407980035079800f2
:101cd0006022b800040f9800150f98000200280039
:101ce000f33f24006e089000fe089000ddfa070024
:101cf0000002be00040f9800150f980018c0b30032
:101d00000200200003f823000e0890009e089000b7
:101d100016fb070000027800e00f520001003500ba
:101d20000044eb00e04f54000800320004002000a3
:101d300005f8230024079800350798000e0a900044
:101d40009e0a9000048fbe000b00370004002000a4
:101d500005f82300048fbe000e0990009e09900034
:101d6000000020000100240060fa07000002be000d
:101d7000240798003507980002002000030824007b
:101d80001e00be0025fa07000002be0044079800ae
:101d9000550798004e009000de009000f5fa07000d
:101da0000002be0004027800140c88004e0090006f
:101db000de009000effa07000002be000402780087
:101dc000040c880018c0b3006011b8002e00900009
:101dd000be009000e5fa070000027800e00f520014
:101de000010035000044eb00e04f540003003200d6
:101df0006022b800240798003507980002002000f0
:101e0000832c24001e00be0004fa07000002be005e
:101e100074034700849fbe0024d62800841f7800e6
:101e200006007800a3fc0700e68757008000eb005f
:101e300010002000730407007402470004007800bb
:101e40008a040700500220007f04070002002000df
:101e5000030824002e009000be009000eff9070058
:101e60000002be0064079800750798006e0090009d
:101e7000fe009000bffa07000002be0004027800d6
:101e8000440c88006e009000fe009000b9fa070034
:101e90000002be0004027800340c880018c0b300b1
:101ea0006011b8002e009000be009000affa07004d
:101eb00000027800e00f5200010035000044eb0002
:101ec000e04f5400030032006022b800240798005d
:101ed0003507980002002000832c24002e0090007b
:101ee000be009000cdf907000002be007403470059
:101ef000849fbe0024d62800841f78000600780046
:101f00006cfc0700e6875700740247000400780065
:101f100056040700500220004b0407004f047800cd
:101f20000080fa00000006001000fa00881f780008
:101f3000200798003107980042079800530798003f
:101f400064079800750798000042eb00244798004a
:101f50000042eb00344798000002eb00040f7800c9
:101f60006e02900014027800e20f520038003a002e
:101f700018c0b30002002000533124002e0090004e
:101f8000be00900079fa070000027800e00f5200ce
:101f9000010034000044eb00e04f54001000320018
:101fa0006e0290008082eb00050a780094c5b300b1
:101fb00024479800e4c4b300344798000a0407009b
:101fc0008000eb000000eb000e040700c0042000be
:101fd0001d040700a00320001b040700b101370007
:101fe00018c0b30002002000533124004e009000be
:101ff000de0090005dfa070000027800e00f52005a
:10200000010034000044eb00e04f54009e01320018
:102010006e0290008082eb00050a7800e4c4b300f1
:102020002447980094c5b30034479800ee03070096
:102030008000eb0010002000f203070020052000c4
:1020400001040700a0032000ff03070095013700eb
:10205000ae42900094c5b30084cf5200bf003a0056
:1020600018c0b30002002000533124002e0090005d
:10207000be0090003dfa070000027800e00f520019
:10208000010034000044eb00e04f54002100320016
:102090007e0290001402780004024200ee029000da
:1020a0000482420014027800e00f52007d013200e9
:1020b0007e0290001402780004024200ee029000ba
:1020c0000482420014027800e10f420075013200e0
:1020d0007e0290001402780004024200ee0290009a
:1020e000048242008002eb00050a78007e02900024
:1020f0001402780004024200ee02900004824200c2
:10210000140278000403b00004007800ce03070036
:102110006401370018c0b3000200200063312400be
:102120002e009000be0090002dfa070000027800fb
:10213000e00f520001003d000044eb00e04f54006e
:102140002500320018c0b30002002c0053412400c7
:102150002e009000be00900004fa070000027800f4
:10216000e00f5200010034000044eb00e04f540047
:10217000190032007e02900014027800040242002e
:10218000ee0290000482420014027800e10f520037
:102190003f0132007e0290001402780004024200e7
:1021a000ee0290000482420015002000050a78002b
:1021b0007e0290001402780004024200ee029000b9
:1021c00004824200140278000403b0000400780086
:1021d0009d0307006000370018c0b3000200200014
:1021e000634124002e009000be009000fcf907001f
:1021f00000027800e00f520001003d000044eb00b7
:10220000e04f54001000320018c0b30002002c0050
:10221000034624002e009000be009000d3f9070072
:1022200000027800e00f5200010034000044eb008f
:10223000e04f5400040032007e0290000482e80067
:10224000740798004400370018c0b3000200200053
:10225000634124002e009000be009000e0f90700ca
:1022600000027800e00f520001003d000044eb0046
:10227000e04f54002100320018c0b30002002c00cf
:10228000034624002e009000be009000b7f907001e
:1022900000027800e00f5200010034000044eb001f
:1022a000e04f5400150032007e02900014027800c6
:1022b000e40f520011003a000002eb00040f780016
:1022c000070037001e02780004024200ee02900070
:1022d0000482420025002000050a78001e0fe80055
:1022e0001e027800e40f5200f6ff34007e029000d8
:1022f0008002eb00050a7800170037003a03070058
:102300008000eb000000eb003e03070070d62800c1
:10231000560307000002eb00040f780007003700a7
:102320001e02780004024200ee0290000482420085
:1023300025002000050a78001e0fe8001e02780024
:10234000e40f5200f6ff34007e0290008002eb00a2
:10235000050a7800d3003700d2003700be42900053
:1023600094c5b30084cf5200cb003a0018c0b3002c
:1023700002002000533124004e009000de00900047
:102380007af9070000027800e00f520001003400e3
:102390000044eb00e04f5400240032007e02900025
:1023a0001402780004024200ee029000048242000f
:1023b00014027800e00f5200ba0032007e02900052
:1023c0001402780004024200ee02900004824200ef
:1023d00014027800e10f4200b20032007e02900049
:1023e0000482e800740798007e02900014027800ce
:1023f00004024200ee029000048242008002eb00e0
:10240000050a78007e02900014027800040242005f
:10241000ee02900004824200140278000403b0002f
:1024200004007800080307009e00370018c0b300be
:1024300002002000633124004e009000de00900076
:1024400067f9070000027800e00f520001003d002c
:102450000044eb00e04f54002800320018c0b300e5
:1024600002002c00534124004e009000de0090003a
:102470003ef9070000027800e00f5200010034002e
:102480000044eb00e04f54001c0032007e0290003c
:102490001402780004024200ee029000048242001e
:1024a00014027800e10f52007d0032007e0290009d
:1024b0000482e800740798007e02900014027800fd
:1024c00004024200ee029000048242001500200047
:1024d000050a78007e02900014027800040242008f
:1024e000ee02900004824200140278000403b0005f
:1024f00004007800d40207006100370018c0b30060
:1025000002002000634124004e009000de00900095
:1025100033f9070000027800e00f520001003d008f
:102520000044eb00e04f54001100320018c0b3002b
:1025300002002c00034624004e009000de009000b4
:102540000af9070000027800e00f52000100340091
:102550000044eb00e04f5400050032007e02900082
:10256000940278007e029000050a7800440037004b
:1025700018c0b30002002000634124002e00900028
:10258000be00900016f9070000027800e00f52002c
:1025900001003d000044eb00e04f540021003200f8
:1025a00018c0b30002002c00034624002e00900047
:1025b000be009000edf8070000027800e00f520026
:1025c000010034000044eb00e04f540015003200dd
:1025d0007e02900014027800e40f520011003a00cd
:1025e0000002eb00040f7800070037001e0278009d
:1025f00004024200ee029000048242002500200006
:10260000050a78001e0fe8001e027800e40f520051
:10261000f6ff34007e0290008002eb00050a78008d
:1026200017003700700207008000eb000000eb008d
:102630007402070070d628008c0207000002eb002d
:10264000040f7800070037001e02780004024200e1
:10265000ee0290000482420025002000050a780066
:102660001e0fe8001e027800e40f5200f6ff34004f
:102670007e0290008002eb00050a78000900370016
:1026800000000000070037000000000005003700d0
:1026900000000000030037000000000001003700c8
:1026a000000000004f0478000080fa0000000600df
:1026b0000c00fa00889fbe000400200005f82300eb
:1026c000048fbe00c902a900c842a900c862a900bf
:1026d000c942a900c002a8002c03a900c022a8007a
:1026e0002c23a900c8a2a8006360a8008660a900e6
:1026f0009660a80065198000e4ff2f000482620044
:10270000641988000002eb001419880014102000de
:1027100024198800440e2200041988000002eb00ee
:10272000441988000002eb008419880085a0a900e4
:1027300021e3a800f3010700144080002540800039
:102740000400be00e6fc07000100370000000000a6
:1027500065198000d4ff2f0004826200641988008c
:10276000000000000419800061026200e00f5200c6
:10277000fcff320004188000344088006519800096
:10278000e4ff2f000482620064198800000000004a
:102790000419800061026200e00f5200fcff320069
:1027a000141880004440880065198000b4ff2f0091
:1027b000048262006419880000000000041980008f
:1027c00061026200e00f5200fcff3200241880001a
:1027d00054408800044080006123b90014002000a8
:1027e000050020000602420087824a0066002000a1
:1027f00007002000860f5200878f5a00d3ff3e004b
:1028000004600100a4003700050037003a003700db
:102810005000370054003700890037008d00370022
:1028200054408000cfa2de000400be0078f707000d
:102830000002be001e01be000400be0077f70700c4
:102840000002be0002002000034024000400be007d
:10285000a7f707000002be000404be003440800059
:10286000cfa2de000400be0069f707000002be0030
:102870001e01be000400be0068f707000002be0093
:102880000401be000800be0098f707000002be0069
:1028900014408800254088001440800025408000b6
:1028a0000400be00fbfc07004536800004fe2f003c
:1028b00004826200443688001536800004fe2f0032
:1028c000048262002401b3001436880015368000ab
:1028d000f40f2e0004826200143688005536800002
:1028e00004fe2f00048262003401b30054368800d5
:1028f0007b000700790037004536800004fe2f007a
:1029000004826200443688001536800004fe2f00e1
:10291000048262002401b30014368800153680005a
:10292000f40f2e00048262001436880055368000b1
:1029300004fe2f00048262003401b3005436880084
:1029400004632100040001000002eb000440880041
:1029500062003700246721000400010034002000d9
:10296000044088005d00370054408000cfa2de00a4
:102970000400be0026f707000002be001e01be00d4
:102980000400be0025f707000002be000200200080
:10299000034024000400be0055f707000002be00fb
:1029a0000404be0034408000cfa2de000400be005c
:1029b00017f707000002be001e01be000400be00a3
:1029c00016f707000002be000401be000800be00aa
:1029d00046f707000002be0014408800254088002a
:1029e00014408000254080000400be00a9fc0700c0
:1029f0004536800004fe2f000482620044368800c1
:102a00001536800004fe2f00048262002401b3000a
:102a10001436880015368000f40f2e000482620000
:102a2000143688005536800004fe2f0004826200b0
:102a30003401b300543688005900070027003700de
:102a400024652100040001003400200004408800b7
:102a5000220037004536800004fe2f000482620009
:102a6000443688001536800004fe2f000482620080
:102a70001436880015368000f40f2e0004826200a0
:102a8000143688005536800004fe2f000482620050
:102a900054368800110037004536800004fe2f00b0
:102aa00004826200443688001536800004fe2f0040
:102ab000048262001436880015368000f40f2e0060
:102ac00004826200143688005536800004fe2f0010
:102ad0000482620054368800000000001cff3700aa
:102ae0000000fa0035408000b4082000848f5200b6
:102af0000b003c0045408000040f2000848f5200f2
:102b00000700340055408000040f2000848f5200dd
:102b10000300340014002000044088001d0037002a
:102b200035408000040f2000848f52000b003400d9
:102b300045408000b4082000848f520007003c000c
:102b400055408000040f2000848f520003003400a1
:102b500014002000044088000e003700354080003b
:102b6000040f2000848f52000a003400454080008a
:102b7000040f2000848f520006003400554080006e
:102b8000040f2000848f5200020034002400200033
:102b900004408800040078000080fa00000006006d
:102ba0000000fa0055408000b4082000848f5200d5
:102bb0000b003c0045408000040f2000848f520031
:102bc0000700340035408000040f2000848f52003d
:102bd0000300340044002000044088001d0037003a
:102be00035408000040f2000848f52000b00340019
:102bf00045408000b4082000848f520007003c004c
:102c000055408000040f2000848f520003003400e0
:102c100044002000044088000e003700354080004a
:102c2000b4082000848f52000a003c004540800018
:102c3000b4082000848f520006003c0055408000fc
:102c4000b4082000848f520002003c005400200091
:102c500004408800040078000080fa0000000600ac
:102c60000200fa0000002c00f147240009fc0700d4
:102c70000002eb00040f78000002eb00040f780064
:102c800003003700006a2800500007001e0fe8000c
:102c90001e027800e90f5200faff34000080fa00ab
:102ca000000006000200fa006000b800f9fb07000f
:102cb0000002eb00040f78000002eb00040f780024
:102cc00003003700006a2800400007001e0fe800dc
:102cd0001e027800e90f5200faff34000080fa006b
:102ce000000006000000fa004536800004fe2f00b8
:102cf000048262002401b300443688001536800047
:102d000004fe2f000482620014368800153680000d
:102d1000f40f2e00048262001436880055368000bd
:102d200004fe2f00048262003401b3005436880090
:102d300035408000b4082000848f52000a003c0017
:102d400045408000040f2000848f520006003400ac
:102d500055408000b4082000848f520002003c00df
:102d60000002eb00044088000080fa00000006002a
:102d7000849fbe003400f80004002000a4018800f5
:102d80000000fa008660a9005516800004022000a9
:102d900004826200e00f520008003a000440800004
:102da000e10f420003003a000002eb0004408800fb
:102db000020037000082eb00044088000080fa0027
:102dc0003400f9004f02be00004006000200fa0085
:102dd000000f780004012800840888000002eb003e
:102de000340888001e027800040242000402e90050
:102df0006408880084e0a900000000002504800029
:102e00000408200004826200e00f5200fbff320041
:102e100011e1a90084e0a9000080fa00000006008a
:102e20000400fa00004f7800110798009e427800d5
:102e300061c262000482fb00610262004722dd0081
:102e400066168000f5f72f00850263000482720089
:102e5000641688001e009000dcff0700ccc2a800aa
:102e60001e009000d9ff0700ccc2a9001e009000f0
:102e7000d6ff07000080fa00000006000600fa00f6
:102e8000004f78001107980022079800651680000f
:102e9000f4ff2000848262001e4278000483fb005d
:102ea000040f2000040263004822dd000482720047
:102eb000641688001e02900004427800ae00900064
:102ec00004407800d6ff070065168000f4ff20005c
:102ed000848262001e4378000682fb004c22dd00e3
:102ee00004827200641688001e029000044278007a
:102ef000ae00900004407800c9ff07000080fa008f
:102f0000000006000000fa00c8e2a900c8c2a9003b
:102f1000c9e2a900c9c2a900c9a2a900c982a90021
:102f20000002eb0064168800cce2a900ccc2a90024
:102f300080a92300a5ff070065168000f4ff20008c
:102f400084826200040023000482720064168800f8
:102f5000410021000040eb00b1ff07006516800032
:102f6000f4ff2000848262000400230004827200c7
:102f700064168800410620000040eb00a8ff07000f
:102f8000420620008000eb0020c3b300bbff070017
:102f9000820220008000eb0080c2b300b7ff070070
:102fa000820220008000eb0080c0b300b3ff070066
:102fb000826620008000eb0010c0b300afff070066
:102fc000820220008000eb0060c0b300abff07006e
:102fd000220320008000eb00c0c0b300a7ff070061
:102fe0000080fa00000006000000fa00025f2000e6
:102ff0008000eb0010c0b300a0ff07000080fa00c3
:10300000000006000200fa00004f78001147980007
:103010009e4278000582fb004622dd008442780053
:1030200004c8b30084c272001e42900004c2720041
:10303000820220008000eb00044078008fff070030
:103040000080fa00000006000200fa00004f78003d
:103050001e42780082022000110020000440780007
:1030600086ff07000080fa00000006000200fa0058
:10307000000f7800050037001e0278001442780027
:103080001e0fe80004407800efff07001e027800e2
:1030900014427800e04f5200f7ff3a000080fa0037
:0430a0000000060026
:020000040000fa
:1030a40000080000180000000200000000000000fa
:1030b4006000440000000000000000000200020064
:1030c400000200000200020000000000de08000010
:1030d4001800000002000000286e75006c6c2900c6
:1030e400003031003233340035363700383961006e
:1030f400626364006566000018080000a000000018
:1031040002000000010000000000000000000a00ae
:103114000000000000000000006400000000000047
:1031240000000000e80300000000000000001000a0
:10313400270000000000000000a08600010000003d
:103144000000000040420f0000000000000080006a
:1031540096980000000000000000e100f505000062
:103164000000000000ca9a003b00000000000000bc
:10317400e40b5400020000000000e8007648170049
:10318400000000000010a500d4e8000000000000ca
:10319400a0724e0018090000000040007a10f300ed
:1031a4005a0000000080c600a47e8d0003000000c9
:1031b40000c16f00f2862300000000008a5d7800e1
:1031c4004563010000006400a7b3b600e00d0000f1
:1031d40000e889000423c7008a000000f608000004
:1031e4000600000000000000b808000026000000ef
:1031f40002000000f708000000f7080009000000c2
:1032040000020000f908000000f908000e020100a5
:1032140000000000000000000000000006020200a0
:1032240000000000b8080000fc08000002000000d4
:0c3234000200000001000000000000008b
:00000001FF
